{
  "_format": "hh-sol-artifact-1",
  "contractName": "AppointmentManager",
  "sourceName": "contracts/AppointmentManager.sol",
  "abi": [
    {
      "anonymous": false,
      "inputs": [
        {
          "indexed": false,
          "internalType": "uint256",
          "name": "appointmentID",
          "type": "uint256"
        },
        {
          "indexed": false,
          "internalType": "address",
          "name": "patientAddress",
          "type": "address"
        },
        {
          "indexed": false,
          "internalType": "address",
          "name": "doctorAddress",
          "type": "address"
        },
        {
          "indexed": false,
          "internalType": "string",
          "name": "date",
          "type": "string"
        },
        {
          "indexed": false,
          "internalType": "string",
          "name": "time",
          "type": "string"
        },
        {
          "indexed": false,
          "internalType": "string",
          "name": "status",
          "type": "string"
        }
      ],
      "name": "AppointmentCreated",
      "type": "event"
    },
    {
      "anonymous": false,
      "inputs": [
        {
          "indexed": false,
          "internalType": "uint256",
          "name": "appointmentID",
          "type": "uint256"
        },
        {
          "indexed": false,
          "internalType": "string",
          "name": "status",
          "type": "string"
        }
      ],
      "name": "AppointmentUpdated",
      "type": "event"
    },
    {
      "inputs": [],
      "name": "appointmentID",
      "outputs": [
        {
          "internalType": "uint256",
          "name": "",
          "type": "uint256"
        }
      ],
      "stateMutability": "view",
      "type": "function"
    },
    {
      "inputs": [
        {
          "internalType": "address",
          "name": "_patientAddress",
          "type": "address"
        },
        {
          "internalType": "address",
          "name": "_doctorAddress",
          "type": "address"
        },
        {
          "internalType": "string",
          "name": "_date",
          "type": "string"
        },
        {
          "internalType": "string",
          "name": "_time",
          "type": "string"
        },
        {
          "internalType": "uint256",
          "name": "_duration",
          "type": "uint256"
        },
        {
          "internalType": "string",
          "name": "_comments",
          "type": "string"
        }
      ],
      "name": "createAppointment",
      "outputs": [],
      "stateMutability": "nonpayable",
      "type": "function"
    },
    {
      "inputs": [
        {
          "internalType": "address",
          "name": "",
          "type": "address"
        },
        {
          "internalType": "uint256",
          "name": "",
          "type": "uint256"
        }
      ],
      "name": "doctorAppointments",
      "outputs": [
        {
          "internalType": "uint256",
          "name": "appointmentID",
          "type": "uint256"
        },
        {
          "internalType": "address",
          "name": "patientAddress",
          "type": "address"
        },
        {
          "internalType": "address",
          "name": "doctorAddress",
          "type": "address"
        },
        {
          "internalType": "string",
          "name": "date",
          "type": "string"
        },
        {
          "internalType": "string",
          "name": "time",
          "type": "string"
        },
        {
          "internalType": "uint256",
          "name": "duration",
          "type": "uint256"
        },
        {
          "internalType": "string",
          "name": "comments",
          "type": "string"
        },
        {
          "internalType": "string",
          "name": "status",
          "type": "string"
        }
      ],
      "stateMutability": "view",
      "type": "function"
    },
    {
      "inputs": [],
      "name": "getAllAppointments",
      "outputs": [
        {
          "components": [
            {
              "internalType": "uint256",
              "name": "appointmentID",
              "type": "uint256"
            },
            {
              "internalType": "address",
              "name": "patientAddress",
              "type": "address"
            },
            {
              "internalType": "address",
              "name": "doctorAddress",
              "type": "address"
            },
            {
              "internalType": "string",
              "name": "date",
              "type": "string"
            },
            {
              "internalType": "string",
              "name": "time",
              "type": "string"
            },
            {
              "internalType": "uint256",
              "name": "duration",
              "type": "uint256"
            },
            {
              "internalType": "string",
              "name": "comments",
              "type": "string"
            },
            {
              "internalType": "string",
              "name": "status",
              "type": "string"
            }
          ],
          "internalType": "struct AppointmentManager.Appointment[]",
          "name": "",
          "type": "tuple[]"
        }
      ],
      "stateMutability": "view",
      "type": "function"
    },
    {
      "inputs": [
        {
          "internalType": "address",
          "name": "_doctorAddress",
          "type": "address"
        }
      ],
      "name": "getAppointmentByDoctorAddress",
      "outputs": [
        {
          "components": [
            {
              "internalType": "uint256",
              "name": "appointmentID",
              "type": "uint256"
            },
            {
              "internalType": "address",
              "name": "patientAddress",
              "type": "address"
            },
            {
              "internalType": "address",
              "name": "doctorAddress",
              "type": "address"
            },
            {
              "internalType": "string",
              "name": "date",
              "type": "string"
            },
            {
              "internalType": "string",
              "name": "time",
              "type": "string"
            },
            {
              "internalType": "uint256",
              "name": "duration",
              "type": "uint256"
            },
            {
              "internalType": "string",
              "name": "comments",
              "type": "string"
            },
            {
              "internalType": "string",
              "name": "status",
              "type": "string"
            }
          ],
          "internalType": "struct AppointmentManager.Appointment[]",
          "name": "",
          "type": "tuple[]"
        }
      ],
      "stateMutability": "view",
      "type": "function"
    },
    {
      "inputs": [
        {
          "internalType": "address",
          "name": "_patientAddress",
          "type": "address"
        }
      ],
      "name": "getAppointmentByPatientAddress",
      "outputs": [
        {
          "components": [
            {
              "internalType": "uint256",
              "name": "appointmentID",
              "type": "uint256"
            },
            {
              "internalType": "address",
              "name": "patientAddress",
              "type": "address"
            },
            {
              "internalType": "address",
              "name": "doctorAddress",
              "type": "address"
            },
            {
              "internalType": "string",
              "name": "date",
              "type": "string"
            },
            {
              "internalType": "string",
              "name": "time",
              "type": "string"
            },
            {
              "internalType": "uint256",
              "name": "duration",
              "type": "uint256"
            },
            {
              "internalType": "string",
              "name": "comments",
              "type": "string"
            },
            {
              "internalType": "string",
              "name": "status",
              "type": "string"
            }
          ],
          "internalType": "struct AppointmentManager.Appointment[]",
          "name": "",
          "type": "tuple[]"
        }
      ],
      "stateMutability": "view",
      "type": "function"
    },
    {
      "inputs": [
        {
          "internalType": "uint256",
          "name": "_appointmentID",
          "type": "uint256"
        }
      ],
      "name": "getAppointmentsByAppointmentID",
      "outputs": [
        {
          "components": [
            {
              "internalType": "uint256",
              "name": "appointmentID",
              "type": "uint256"
            },
            {
              "internalType": "address",
              "name": "patientAddress",
              "type": "address"
            },
            {
              "internalType": "address",
              "name": "doctorAddress",
              "type": "address"
            },
            {
              "internalType": "string",
              "name": "date",
              "type": "string"
            },
            {
              "internalType": "string",
              "name": "time",
              "type": "string"
            },
            {
              "internalType": "uint256",
              "name": "duration",
              "type": "uint256"
            },
            {
              "internalType": "string",
              "name": "comments",
              "type": "string"
            },
            {
              "internalType": "string",
              "name": "status",
              "type": "string"
            }
          ],
          "internalType": "struct AppointmentManager.Appointment",
          "name": "",
          "type": "tuple"
        }
      ],
      "stateMutability": "view",
      "type": "function"
    },
    {
      "inputs": [
        {
          "internalType": "address",
          "name": "",
          "type": "address"
        },
        {
          "internalType": "uint256",
          "name": "",
          "type": "uint256"
        }
      ],
      "name": "patientAppointments",
      "outputs": [
        {
          "internalType": "uint256",
          "name": "appointmentID",
          "type": "uint256"
        },
        {
          "internalType": "address",
          "name": "patientAddress",
          "type": "address"
        },
        {
          "internalType": "address",
          "name": "doctorAddress",
          "type": "address"
        },
        {
          "internalType": "string",
          "name": "date",
          "type": "string"
        },
        {
          "internalType": "string",
          "name": "time",
          "type": "string"
        },
        {
          "internalType": "uint256",
          "name": "duration",
          "type": "uint256"
        },
        {
          "internalType": "string",
          "name": "comments",
          "type": "string"
        },
        {
          "internalType": "string",
          "name": "status",
          "type": "string"
        }
      ],
      "stateMutability": "view",
      "type": "function"
    },
    {
      "inputs": [
        {
          "internalType": "uint256",
          "name": "",
          "type": "uint256"
        }
      ],
      "name": "registeredPatients",
      "outputs": [
        {
          "internalType": "address",
          "name": "",
          "type": "address"
        }
      ],
      "stateMutability": "view",
      "type": "function"
    },
    {
      "inputs": [
        {
          "internalType": "uint256",
          "name": "_appointmentID",
          "type": "uint256"
        },
        {
          "internalType": "string",
          "name": "_status",
          "type": "string"
        }
      ],
      "name": "updateAppointmentStatus",
      "outputs": [],
      "stateMutability": "nonpayable",
      "type": "function"
    }
  ],
  "bytecode": "0x608060405261012c600055348015601557600080fd5b50612dea806100256000396000f3fe608060405234801561001057600080fd5b506004361061009e5760003560e01c806357cd46f51161006657806357cd46f51461016d5780636a85de14146101a45780637933570c146101db578063d73d5208146101f9578063f5e2ba9c146102295761009e565b80630473d9ea146100a357806321768afd146100d35780633aafa1961461010357806344392b631461011f5780634e005ff71461013d575b600080fd5b6100bd60048036038101906100b891906120c0565b610245565b6040516100ca9190612292565b60405180910390f35b6100ed60048036038101906100e891906122e0565b610730565b6040516100fa9190612494565b60405180910390f35b61011d600480360381019061011891906125eb565b610ad7565b005b610127610f06565b60405161013491906126db565b60405180910390f35b610157600480360381019061015291906122e0565b610f0c565b6040516101649190612494565b60405180910390f35b610187600480360381019061018291906126f6565b6112b3565b60405161019b98979695949392919061278f565b60405180910390f35b6101be60048036038101906101b991906126f6565b611578565b6040516101d298979695949392919061278f565b60405180910390f35b6101e361183d565b6040516101f09190612494565b60405180910390f35b610213600480360381019061020e91906120c0565b611db0565b6040516102209190612829565b60405180910390f35b610243600480360381019061023e9190612844565b611def565b005b61024d612005565b60005b6003805490508110156106ef57600060038281548110610273576102726128a0565b5b9060005260206000200160009054906101000a900473ffffffffffffffffffffffffffffffffffffffff16905060005b600160008373ffffffffffffffffffffffffffffffffffffffff1673ffffffffffffffffffffffffffffffffffffffff168152602001908152602001600020805490508110156106e05784600160008473ffffffffffffffffffffffffffffffffffffffff1673ffffffffffffffffffffffffffffffffffffffff168152602001908152602001600020828154811061033f5761033e6128a0565b5b906000526020600020906008020160000154036106d357600160008373ffffffffffffffffffffffffffffffffffffffff1673ffffffffffffffffffffffffffffffffffffffff16815260200190815260200160002081815481106103a7576103a66128a0565b5b906000526020600020906008020160405180610100016040529081600082015481526020016001820160009054906101000a900473ffffffffffffffffffffffffffffffffffffffff1673ffffffffffffffffffffffffffffffffffffffff1673ffffffffffffffffffffffffffffffffffffffff1681526020016002820160009054906101000a900473ffffffffffffffffffffffffffffffffffffffff1673ffffffffffffffffffffffffffffffffffffffff1673ffffffffffffffffffffffffffffffffffffffff168152602001600382018054610487906128fe565b80601f01602080910402602001604051908101604052809291908181526020018280546104b3906128fe565b80156105005780601f106104d557610100808354040283529160200191610500565b820191906000526020600020905b8154815290600101906020018083116104e357829003601f168201915b50505050508152602001600482018054610519906128fe565b80601f0160208091040260200160405190810160405280929190818152602001828054610545906128fe565b80156105925780601f1061056757610100808354040283529160200191610592565b820191906000526020600020905b81548152906001019060200180831161057557829003601f168201915b50505050508152602001600582015481526020016006820180546105b5906128fe565b80601f01602080910402602001604051908101604052809291908181526020018280546105e1906128fe565b801561062e5780601f106106035761010080835404028352916020019161062e565b820191906000526020600020905b81548152906001019060200180831161061157829003601f168201915b50505050508152602001600782018054610647906128fe565b80601f0160208091040260200160405190810160405280929190818152602001828054610673906128fe565b80156106c05780601f10610695576101008083540402835291602001916106c0565b820191906000526020600020905b8154815290600101906020018083116106a357829003601f168201915b505050505081525050935050505061072b565b80806001019150506102a3565b50508080600101915050610250565b506040517f08c379a00000000000000000000000000000000000000000000000000000000081526004016107229061297b565b60405180910390fd5b919050565b6060600260008373ffffffffffffffffffffffffffffffffffffffff1673ffffffffffffffffffffffffffffffffffffffff168152602001908152602001600020805480602002602001604051908101604052809291908181526020016000905b82821015610acc578382906000526020600020906008020160405180610100016040529081600082015481526020016001820160009054906101000a900473ffffffffffffffffffffffffffffffffffffffff1673ffffffffffffffffffffffffffffffffffffffff1673ffffffffffffffffffffffffffffffffffffffff1681526020016002820160009054906101000a900473ffffffffffffffffffffffffffffffffffffffff1673ffffffffffffffffffffffffffffffffffffffff1673ffffffffffffffffffffffffffffffffffffffff16815260200160038201805461087b906128fe565b80601f01602080910402602001604051908101604052809291908181526020018280546108a7906128fe565b80156108f45780601f106108c9576101008083540402835291602001916108f4565b820191906000526020600020905b8154815290600101906020018083116108d757829003601f168201915b5050505050815260200160048201805461090d906128fe565b80601f0160208091040260200160405190810160405280929190818152602001828054610939906128fe565b80156109865780601f1061095b57610100808354040283529160200191610986565b820191906000526020600020905b81548152906001019060200180831161096957829003601f168201915b50505050508152602001600582015481526020016006820180546109a9906128fe565b80601f01602080910402602001604051908101604052809291908181526020018280546109d5906128fe565b8015610a225780601f106109f757610100808354040283529160200191610a22565b820191906000526020600020905b815481529060010190602001808311610a0557829003601f168201915b50505050508152602001600782018054610a3b906128fe565b80601f0160208091040260200160405190810160405280929190818152602001828054610a67906128fe565b8015610ab45780601f10610a8957610100808354040283529160200191610ab4565b820191906000526020600020905b815481529060010190602001808311610a9757829003601f168201915b50505050508152505081526020019060010190610791565b505050509050919050565b600060405180610100016040528060005481526020018873ffffffffffffffffffffffffffffffffffffffff1681526020018773ffffffffffffffffffffffffffffffffffffffff1681526020018681526020018581526020018481526020018381526020016040518060400160405280600781526020017f50656e64696e67000000000000000000000000000000000000000000000000008152508152509050600160008873ffffffffffffffffffffffffffffffffffffffff1673ffffffffffffffffffffffffffffffffffffffff1681526020019081526020016000208190806001815401808255809150506001900390600052602060002090600802016000909190919091506000820151816000015560208201518160010160006101000a81548173ffffffffffffffffffffffffffffffffffffffff021916908373ffffffffffffffffffffffffffffffffffffffff16021790555060408201518160020160006101000a81548173ffffffffffffffffffffffffffffffffffffffff021916908373ffffffffffffffffffffffffffffffffffffffff1602179055506060820151816003019081610c8e9190612b47565b506080820151816004019081610ca49190612b47565b5060a0820151816005015560c0820151816006019081610cc49190612b47565b5060e0820151816007019081610cda9190612b47565b505050600260008773ffffffffffffffffffffffffffffffffffffffff1673ffffffffffffffffffffffffffffffffffffffff1681526020019081526020016000208190806001815401808255809150506001900390600052602060002090600802016000909190919091506000820151816000015560208201518160010160006101000a81548173ffffffffffffffffffffffffffffffffffffffff021916908373ffffffffffffffffffffffffffffffffffffffff16021790555060408201518160020160006101000a81548173ffffffffffffffffffffffffffffffffffffffff021916908373ffffffffffffffffffffffffffffffffffffffff1602179055506060820151816003019081610df39190612b47565b506080820151816004019081610e099190612b47565b5060a0820151816005015560c0820151816006019081610e299190612b47565b5060e0820151816007019081610e3f9190612b47565b5050507f9f178a6119ce91315e0179a304ff36444a03615d3da317fb2442e03b9aca4c2f60005488888888604051610e7b959493929190612c65565b60405180910390a1600080815480929190610e9590612d08565b91905055506003879080600181540180825580915050600190039060005260206000200160009091909190916101000a81548173ffffffffffffffffffffffffffffffffffffffff021916908373ffffffffffffffffffffffffffffffffffffffff16021790555050505050505050565b60005481565b6060600160008373ffffffffffffffffffffffffffffffffffffffff1673ffffffffffffffffffffffffffffffffffffffff168152602001908152602001600020805480602002602001604051908101604052809291908181526020016000905b828210156112a8578382906000526020600020906008020160405180610100016040529081600082015481526020016001820160009054906101000a900473ffffffffffffffffffffffffffffffffffffffff1673ffffffffffffffffffffffffffffffffffffffff1673ffffffffffffffffffffffffffffffffffffffff1681526020016002820160009054906101000a900473ffffffffffffffffffffffffffffffffffffffff1673ffffffffffffffffffffffffffffffffffffffff1673ffffffffffffffffffffffffffffffffffffffff168152602001600382018054611057906128fe565b80601f0160208091040260200160405190810160405280929190818152602001828054611083906128fe565b80156110d05780601f106110a5576101008083540402835291602001916110d0565b820191906000526020600020905b8154815290600101906020018083116110b357829003601f168201915b505050505081526020016004820180546110e9906128fe565b80601f0160208091040260200160405190810160405280929190818152602001828054611115906128fe565b80156111625780601f1061113757610100808354040283529160200191611162565b820191906000526020600020905b81548152906001019060200180831161114557829003601f168201915b5050505050815260200160058201548152602001600682018054611185906128fe565b80601f01602080910402602001604051908101604052809291908181526020018280546111b1906128fe565b80156111fe5780601f106111d3576101008083540402835291602001916111fe565b820191906000526020600020905b8154815290600101906020018083116111e157829003601f168201915b50505050508152602001600782018054611217906128fe565b80601f0160208091040260200160405190810160405280929190818152602001828054611243906128fe565b80156112905780601f1061126557610100808354040283529160200191611290565b820191906000526020600020905b81548152906001019060200180831161127357829003601f168201915b50505050508152505081526020019060010190610f6d565b505050509050919050565b600260205281600052604060002081815481106112cf57600080fd5b9060005260206000209060080201600091509150508060000154908060010160009054906101000a900473ffffffffffffffffffffffffffffffffffffffff16908060020160009054906101000a900473ffffffffffffffffffffffffffffffffffffffff1690806003018054611345906128fe565b80601f0160208091040260200160405190810160405280929190818152602001828054611371906128fe565b80156113be5780601f10611393576101008083540402835291602001916113be565b820191906000526020600020905b8154815290600101906020018083116113a157829003601f168201915b5050505050908060040180546113d3906128fe565b80601f01602080910402602001604051908101604052809291908181526020018280546113ff906128fe565b801561144c5780601f106114215761010080835404028352916020019161144c565b820191906000526020600020905b81548152906001019060200180831161142f57829003601f168201915b505050505090806005015490806006018054611467906128fe565b80601f0160208091040260200160405190810160405280929190818152602001828054611493906128fe565b80156114e05780601f106114b5576101008083540402835291602001916114e0565b820191906000526020600020905b8154815290600101906020018083116114c357829003601f168201915b5050505050908060070180546114f5906128fe565b80601f0160208091040260200160405190810160405280929190818152602001828054611521906128fe565b801561156e5780601f106115435761010080835404028352916020019161156e565b820191906000526020600020905b81548152906001019060200180831161155157829003601f168201915b5050505050905088565b6001602052816000526040600020818154811061159457600080fd5b9060005260206000209060080201600091509150508060000154908060010160009054906101000a900473ffffffffffffffffffffffffffffffffffffffff16908060020160009054906101000a900473ffffffffffffffffffffffffffffffffffffffff169080600301805461160a906128fe565b80601f0160208091040260200160405190810160405280929190818152602001828054611636906128fe565b80156116835780601f1061165857610100808354040283529160200191611683565b820191906000526020600020905b81548152906001019060200180831161166657829003601f168201915b505050505090806004018054611698906128fe565b80601f01602080910402602001604051908101604052809291908181526020018280546116c4906128fe565b80156117115780601f106116e657610100808354040283529160200191611711565b820191906000526020600020905b8154815290600101906020018083116116f457829003601f168201915b50505050509080600501549080600601805461172c906128fe565b80601f0160208091040260200160405190810160405280929190818152602001828054611758906128fe565b80156117a55780601f1061177a576101008083540402835291602001916117a5565b820191906000526020600020905b81548152906001019060200180831161178857829003601f168201915b5050505050908060070180546117ba906128fe565b80601f01602080910402602001604051908101604052809291908181526020018280546117e6906128fe565b80156118335780601f1061180857610100808354040283529160200191611833565b820191906000526020600020905b81548152906001019060200180831161181657829003601f168201915b5050505050905088565b60606000805b6003805490508110156118f157600060038281548110611866576118656128a0565b5b9060005260206000200160009054906101000a900473ffffffffffffffffffffffffffffffffffffffff169050600160008273ffffffffffffffffffffffffffffffffffffffff1673ffffffffffffffffffffffffffffffffffffffff16815260200190815260200160002080549050836118e19190612d50565b9250508080600101915050611843565b5060008167ffffffffffffffff81111561190e5761190d6124c0565b5b60405190808252806020026020018201604052801561194757816020015b611934612005565b81526020019060019003908161192c5790505b5090506000805b600380549050811015611da657600060038281548110611971576119706128a0565b5b9060005260206000200160009054906101000a900473ffffffffffffffffffffffffffffffffffffffff16905060005b600160008373ffffffffffffffffffffffffffffffffffffffff1673ffffffffffffffffffffffffffffffffffffffff16815260200190815260200160002080549050811015611d9757600160008373ffffffffffffffffffffffffffffffffffffffff1673ffffffffffffffffffffffffffffffffffffffff1681526020019081526020016000208181548110611a3c57611a3b6128a0565b5b906000526020600020906008020160405180610100016040529081600082015481526020016001820160009054906101000a900473ffffffffffffffffffffffffffffffffffffffff1673ffffffffffffffffffffffffffffffffffffffff1673ffffffffffffffffffffffffffffffffffffffff1681526020016002820160009054906101000a900473ffffffffffffffffffffffffffffffffffffffff1673ffffffffffffffffffffffffffffffffffffffff1673ffffffffffffffffffffffffffffffffffffffff168152602001600382018054611b1c906128fe565b80601f0160208091040260200160405190810160405280929190818152602001828054611b48906128fe565b8015611b955780601f10611b6a57610100808354040283529160200191611b95565b820191906000526020600020905b815481529060010190602001808311611b7857829003601f168201915b50505050508152602001600482018054611bae906128fe565b80601f0160208091040260200160405190810160405280929190818152602001828054611bda906128fe565b8015611c275780601f10611bfc57610100808354040283529160200191611c27565b820191906000526020600020905b815481529060010190602001808311611c0a57829003601f168201915b5050505050815260200160058201548152602001600682018054611c4a906128fe565b80601f0160208091040260200160405190810160405280929190818152602001828054611c76906128fe565b8015611cc35780601f10611c9857610100808354040283529160200191611cc3565b820191906000526020600020905b815481529060010190602001808311611ca657829003601f168201915b50505050508152602001600782018054611cdc906128fe565b80601f0160208091040260200160405190810160405280929190818152602001828054611d08906128fe565b8015611d555780601f10611d2a57610100808354040283529160200191611d55565b820191906000526020600020905b815481529060010190602001808311611d3857829003601f168201915b505050505081525050858581518110611d7157611d706128a0565b5b60200260200101819052508380611d8790612d08565b94505080806001019150506119a1565b5050808060010191505061194e565b5081935050505090565b60038181548110611dc057600080fd5b906000526020600020016000915054906101000a900473ffffffffffffffffffffffffffffffffffffffff1681565b60005b600380549050811015611fc557600060038281548110611e1557611e146128a0565b5b9060005260206000200160009054906101000a900473ffffffffffffffffffffffffffffffffffffffff16905060005b600160008373ffffffffffffffffffffffffffffffffffffffff1673ffffffffffffffffffffffffffffffffffffffff16815260200190815260200160002080549050811015611fb65784600160008473ffffffffffffffffffffffffffffffffffffffff1673ffffffffffffffffffffffffffffffffffffffff1681526020019081526020016000208281548110611ee157611ee06128a0565b5b90600052602060002090600802016000015403611fa95783600160008473ffffffffffffffffffffffffffffffffffffffff1673ffffffffffffffffffffffffffffffffffffffff1681526020019081526020016000208281548110611f4a57611f496128a0565b5b90600052602060002090600802016007019081611f679190612b47565b507f54bef127f7763273bb5dae58114dc9b03135e8fc200e3573bbfe268bb8ce627d8585604051611f99929190612d84565b60405180910390a1505050612001565b8080600101915050611e45565b50508080600101915050611df2565b506040517f08c379a0000000000000000000000000000000000000000000000000000000008152600401611ff89061297b565b60405180910390fd5b5050565b60405180610100016040528060008152602001600073ffffffffffffffffffffffffffffffffffffffff168152602001600073ffffffffffffffffffffffffffffffffffffffff16815260200160608152602001606081526020016000815260200160608152602001606081525090565b6000604051905090565b600080fd5b600080fd5b6000819050919050565b61209d8161208a565b81146120a857600080fd5b50565b6000813590506120ba81612094565b92915050565b6000602082840312156120d6576120d5612080565b5b60006120e4848285016120ab565b91505092915050565b6120f68161208a565b82525050565b600073ffffffffffffffffffffffffffffffffffffffff82169050919050565b6000612127826120fc565b9050919050565b6121378161211c565b82525050565b600081519050919050565b600082825260208201905092915050565b60005b8381101561217757808201518184015260208101905061215c565b60008484015250505050565b6000601f19601f8301169050919050565b600061219f8261213d565b6121a98185612148565b93506121b9818560208601612159565b6121c281612183565b840191505092915050565b6000610100830160008301516121e660008601826120ed565b5060208301516121f9602086018261212e565b50604083015161220c604086018261212e565b50606083015184820360608601526122248282612194565b9150506080830151848203608086015261223e8282612194565b91505060a083015161225360a08601826120ed565b5060c083015184820360c086015261226b8282612194565b91505060e083015184820360e08601526122858282612194565b9150508091505092915050565b600060208201905081810360008301526122ac81846121cd565b905092915050565b6122bd8161211c565b81146122c857600080fd5b50565b6000813590506122da816122b4565b92915050565b6000602082840312156122f6576122f5612080565b5b6000612304848285016122cb565b91505092915050565b600081519050919050565b600082825260208201905092915050565b6000819050602082019050919050565b60006101008301600083015161235260008601826120ed565b506020830151612365602086018261212e565b506040830151612378604086018261212e565b50606083015184820360608601526123908282612194565b915050608083015184820360808601526123aa8282612194565b91505060a08301516123bf60a08601826120ed565b5060c083015184820360c08601526123d78282612194565b91505060e083015184820360e08601526123f18282612194565b9150508091505092915050565b600061240a8383612339565b905092915050565b6000602082019050919050565b600061242a8261230d565b6124348185612318565b93508360208202850161244685612329565b8060005b85811015612482578484038952815161246385826123fe565b945061246e83612412565b925060208a0199505060018101905061244a565b50829750879550505050505092915050565b600060208201905081810360008301526124ae818461241f565b905092915050565b600080fd5b600080fd5b7f4e487b7100000000000000000000000000000000000000000000000000000000600052604160045260246000fd5b6124f882612183565b810181811067ffffffffffffffff82111715612517576125166124c0565b5b80604052505050565b600061252a612076565b905061253682826124ef565b919050565b600067ffffffffffffffff821115612556576125556124c0565b5b61255f82612183565b9050602081019050919050565b82818337600083830152505050565b600061258e6125898461253b565b612520565b9050828152602081018484840111156125aa576125a96124bb565b5b6125b584828561256c565b509392505050565b600082601f8301126125d2576125d16124b6565b5b81356125e284826020860161257b565b91505092915050565b60008060008060008060c0878903121561260857612607612080565b5b600061261689828a016122cb565b965050602061262789828a016122cb565b955050604087013567ffffffffffffffff81111561264857612647612085565b5b61265489828a016125bd565b945050606087013567ffffffffffffffff81111561267557612674612085565b5b61268189828a016125bd565b935050608061269289828a016120ab565b92505060a087013567ffffffffffffffff8111156126b3576126b2612085565b5b6126bf89828a016125bd565b9150509295509295509295565b6126d58161208a565b82525050565b60006020820190506126f060008301846126cc565b92915050565b6000806040838503121561270d5761270c612080565b5b600061271b858286016122cb565b925050602061272c858286016120ab565b9150509250929050565b61273f8161211c565b82525050565b600082825260208201905092915050565b60006127618261213d565b61276b8185612745565b935061277b818560208601612159565b61278481612183565b840191505092915050565b6000610100820190506127a5600083018b6126cc565b6127b2602083018a612736565b6127bf6040830189612736565b81810360608301526127d18188612756565b905081810360808301526127e58187612756565b90506127f460a08301866126cc565b81810360c08301526128068185612756565b905081810360e083015261281a8184612756565b90509998505050505050505050565b600060208201905061283e6000830184612736565b92915050565b6000806040838503121561285b5761285a612080565b5b6000612869858286016120ab565b925050602083013567ffffffffffffffff81111561288a57612889612085565b5b612896858286016125bd565b9150509250929050565b7f4e487b7100000000000000000000000000000000000000000000000000000000600052603260045260246000fd5b7f4e487b7100000000000000000000000000000000000000000000000000000000600052602260045260246000fd5b6000600282049050600182168061291657607f821691505b602082108103612929576129286128cf565b5b50919050565b7f4170706f696e746d656e74206e6f7420666f756e640000000000000000000000600082015250565b6000612965601583612745565b91506129708261292f565b602082019050919050565b6000602082019050818103600083015261299481612958565b9050919050565b60008190508160005260206000209050919050565b60006020601f8301049050919050565b600082821b905092915050565b6000600883026129fd7fffffffffffffffffffffffffffffffffffffffffffffffffffffffffffffffff826129c0565b612a0786836129c0565b95508019841693508086168417925050509392505050565b6000819050919050565b6000612a44612a3f612a3a8461208a565b612a1f565b61208a565b9050919050565b6000819050919050565b612a5e83612a29565b612a72612a6a82612a4b565b8484546129cd565b825550505050565b600090565b612a87612a7a565b612a92818484612a55565b505050565b5b81811015612ab657612aab600082612a7f565b600181019050612a98565b5050565b601f821115612afb57612acc8161299b565b612ad5846129b0565b81016020851015612ae4578190505b612af8612af0856129b0565b830182612a97565b50505b505050565b600082821c905092915050565b6000612b1e60001984600802612b00565b1980831691505092915050565b6000612b378383612b0d565b9150826002028217905092915050565b612b508261213d565b67ffffffffffffffff811115612b6957612b686124c0565b5b612b7382546128fe565b612b7e828285612aba565b600060209050601f831160018114612bb15760008415612b9f578287015190505b612ba98582612b2b565b865550612c11565b601f198416612bbf8661299b565b60005b82811015612be757848901518255600182019150602085019450602081019050612bc2565b86831015612c045784890151612c00601f891682612b0d565b8355505b6001600288020188555050505b505050505050565b7f50656e64696e6700000000000000000000000000000000000000000000000000600082015250565b6000612c4f600783612745565b9150612c5a82612c19565b602082019050919050565b600060c082019050612c7a60008301886126cc565b612c876020830187612736565b612c946040830186612736565b8181036060830152612ca68185612756565b90508181036080830152612cba8184612756565b905081810360a0830152612ccd81612c42565b90509695505050505050565b7f4e487b7100000000000000000000000000000000000000000000000000000000600052601160045260246000fd5b6000612d138261208a565b91507fffffffffffffffffffffffffffffffffffffffffffffffffffffffffffffffff8203612d4557612d44612cd9565b5b600182019050919050565b6000612d5b8261208a565b9150612d668361208a565b9250828201905080821115612d7e57612d7d612cd9565b5b92915050565b6000604082019050612d9960008301856126cc565b8181036020830152612dab8184612756565b9050939250505056fea2646970667358221220ffd6ca5befe7a7c11cc2b45ce12e181dc2b35c06163df39393dcd65bc24743ef64736f6c634300081b0033",
  "linkReferences": {},
  "deployedLinkReferences": {}
}