{
  "_format": "hh-sol-artifact-1",
  "contractName": "AppointmentManager",
  "sourceName": "contracts/AppointmentManager.sol",
  "abi": [
    {
      "anonymous": false,
      "inputs": [
        {
          "indexed": false,
          "internalType": "uint256",
          "name": "appointmentID",
          "type": "uint256"
        },
        {
          "indexed": false,
          "internalType": "string",
          "name": "patientName",
          "type": "string"
        },
        {
          "indexed": false,
          "internalType": "string",
          "name": "doctorName",
          "type": "string"
        },
        {
          "indexed": false,
          "internalType": "string",
          "name": "date",
          "type": "string"
        },
        {
          "indexed": false,
          "internalType": "string",
          "name": "time",
          "type": "string"
        },
        {
          "indexed": false,
          "internalType": "uint256",
          "name": "duration",
          "type": "uint256"
        },
        {
          "indexed": false,
          "internalType": "string",
          "name": "comments",
          "type": "string"
        },
        {
          "indexed": false,
          "internalType": "string",
          "name": "status",
          "type": "string"
        }
      ],
      "name": "AppointmentScheduled",
      "type": "event"
    },
    {
      "anonymous": false,
      "inputs": [
        {
          "indexed": false,
          "internalType": "uint256",
          "name": "appointmentID",
          "type": "uint256"
        },
        {
          "indexed": false,
          "internalType": "string",
          "name": "newStatus",
          "type": "string"
        }
      ],
      "name": "AppointmentStatusUpdated",
      "type": "event"
    },
    {
      "inputs": [],
      "name": "appointmentCount",
      "outputs": [
        {
          "internalType": "uint256",
          "name": "",
          "type": "uint256"
        }
      ],
      "stateMutability": "view",
      "type": "function"
    },
    {
      "inputs": [],
      "name": "getScheduledAppointments",
      "outputs": [
        {
          "components": [
            {
              "internalType": "uint256",
              "name": "appointmentID",
              "type": "uint256"
            },
            {
              "internalType": "string",
              "name": "patientName",
              "type": "string"
            },
            {
              "internalType": "string",
              "name": "doctorName",
              "type": "string"
            },
            {
              "internalType": "string",
              "name": "date",
              "type": "string"
            },
            {
              "internalType": "string",
              "name": "time",
              "type": "string"
            },
            {
              "internalType": "uint256",
              "name": "duration",
              "type": "uint256"
            },
            {
              "internalType": "string",
              "name": "comments",
              "type": "string"
            },
            {
              "internalType": "string",
              "name": "status",
              "type": "string"
            },
            {
              "internalType": "address",
              "name": "appiAddress",
              "type": "address"
            }
          ],
          "internalType": "struct AppointmentManager.Appointment[]",
          "name": "",
          "type": "tuple[]"
        }
      ],
      "stateMutability": "view",
      "type": "function"
    },
    {
      "inputs": [
        {
          "internalType": "address",
          "name": "",
          "type": "address"
        }
      ],
      "name": "patientAppointments",
      "outputs": [
        {
          "internalType": "uint256",
          "name": "appointmentID",
          "type": "uint256"
        },
        {
          "internalType": "string",
          "name": "patientName",
          "type": "string"
        },
        {
          "internalType": "string",
          "name": "doctorName",
          "type": "string"
        },
        {
          "internalType": "string",
          "name": "date",
          "type": "string"
        },
        {
          "internalType": "string",
          "name": "time",
          "type": "string"
        },
        {
          "internalType": "uint256",
          "name": "duration",
          "type": "uint256"
        },
        {
          "internalType": "string",
          "name": "comments",
          "type": "string"
        },
        {
          "internalType": "string",
          "name": "status",
          "type": "string"
        },
        {
          "internalType": "address",
          "name": "appiAddress",
          "type": "address"
        }
      ],
      "stateMutability": "view",
      "type": "function"
    },
    {
      "inputs": [
        {
          "internalType": "address",
          "name": "_appiAddress",
          "type": "address"
        },
        {
          "internalType": "string",
          "name": "_patientName",
          "type": "string"
        },
        {
          "internalType": "string",
          "name": "_doctorName",
          "type": "string"
        },
        {
          "internalType": "string",
          "name": "_date",
          "type": "string"
        },
        {
          "internalType": "string",
          "name": "_time",
          "type": "string"
        },
        {
          "internalType": "uint256",
          "name": "_duration",
          "type": "uint256"
        },
        {
          "internalType": "string",
          "name": "_comments",
          "type": "string"
        }
      ],
      "name": "scheduleAppointment",
      "outputs": [],
      "stateMutability": "nonpayable",
      "type": "function"
    },
    {
      "inputs": [
        {
          "internalType": "address",
          "name": "_appiAddress",
          "type": "address"
        },
        {
          "internalType": "string",
          "name": "_newStatus",
          "type": "string"
        }
      ],
      "name": "updateAppointmentStatus",
      "outputs": [],
      "stateMutability": "nonpayable",
      "type": "function"
    }
  ],
  "bytecode": "0x6080604052610258600055348015601557600080fd5b50611912806100256000396000f3fe608060405234801561001057600080fd5b50600436106100575760003560e01c806329b66c631461005c57806362b460411461009457806363d17bcf146100b2578063b8d89358146100ce578063eebc3fb2146100ea575b600080fd5b61007660048036038101906100719190610d60565b610108565b60405161008b99989796959493929190610e45565b60405180910390f35b61009c6104a6565b6040516100a9919061110e565b60405180910390f35b6100cc60048036038101906100c79190611291565b6109b3565b005b6100e860048036038101906100e391906113bf565b610bb7565b005b6100f2610c86565b6040516100ff919061141b565b60405180910390f35b600160205280600052604060002060009150905080600001549080600101805461013190611465565b80601f016020809104026020016040519081016040528092919081815260200182805461015d90611465565b80156101aa5780601f1061017f576101008083540402835291602001916101aa565b820191906000526020600020905b81548152906001019060200180831161018d57829003601f168201915b5050505050908060020180546101bf90611465565b80601f01602080910402602001604051908101604052809291908181526020018280546101eb90611465565b80156102385780601f1061020d57610100808354040283529160200191610238565b820191906000526020600020905b81548152906001019060200180831161021b57829003601f168201915b50505050509080600301805461024d90611465565b80601f016020809104026020016040519081016040528092919081815260200182805461027990611465565b80156102c65780601f1061029b576101008083540402835291602001916102c6565b820191906000526020600020905b8154815290600101906020018083116102a957829003601f168201915b5050505050908060040180546102db90611465565b80601f016020809104026020016040519081016040528092919081815260200182805461030790611465565b80156103545780601f1061032957610100808354040283529160200191610354565b820191906000526020600020905b81548152906001019060200180831161033757829003601f168201915b50505050509080600501549080600601805461036f90611465565b80601f016020809104026020016040519081016040528092919081815260200182805461039b90611465565b80156103e85780601f106103bd576101008083540402835291602001916103e8565b820191906000526020600020905b8154815290600101906020018083116103cb57829003601f168201915b5050505050908060070180546103fd90611465565b80601f016020809104026020016040519081016040528092919081815260200182805461042990611465565b80156104765780601f1061044b57610100808354040283529160200191610476565b820191906000526020600020905b81548152906001019060200180831161045957829003601f168201915b5050505050908060080160009054906101000a900473ffffffffffffffffffffffffffffffffffffffff16905089565b6060600060028054905067ffffffffffffffff8111156104c9576104c861113a565b5b60405190808252806020026020018201604052801561050257816020015b6104ef610c8c565b8152602001906001900390816104e75790505b50905060005b6002805490508110156109ab5760006002828154811061052b5761052a611496565b5b9060005260206000200160009054906101000a900473ffffffffffffffffffffffffffffffffffffffff1690506000600160008373ffffffffffffffffffffffffffffffffffffffff1673ffffffffffffffffffffffffffffffffffffffff16815260200190815260200160002090508060405180610120016040529081600082015481526020016001820180546105c290611465565b80601f01602080910402602001604051908101604052809291908181526020018280546105ee90611465565b801561063b5780601f106106105761010080835404028352916020019161063b565b820191906000526020600020905b81548152906001019060200180831161061e57829003601f168201915b5050505050815260200160028201805461065490611465565b80601f016020809104026020016040519081016040528092919081815260200182805461068090611465565b80156106cd5780601f106106a2576101008083540402835291602001916106cd565b820191906000526020600020905b8154815290600101906020018083116106b057829003601f168201915b505050505081526020016003820180546106e690611465565b80601f016020809104026020016040519081016040528092919081815260200182805461071290611465565b801561075f5780601f106107345761010080835404028352916020019161075f565b820191906000526020600020905b81548152906001019060200180831161074257829003601f168201915b5050505050815260200160048201805461077890611465565b80601f01602080910402602001604051908101604052809291908181526020018280546107a490611465565b80156107f15780601f106107c6576101008083540402835291602001916107f1565b820191906000526020600020905b8154815290600101906020018083116107d457829003601f168201915b505050505081526020016005820154815260200160068201805461081490611465565b80601f016020809104026020016040519081016040528092919081815260200182805461084090611465565b801561088d5780601f106108625761010080835404028352916020019161088d565b820191906000526020600020905b81548152906001019060200180831161087057829003601f168201915b505050505081526020016007820180546108a690611465565b80601f01602080910402602001604051908101604052809291908181526020018280546108d290611465565b801561091f5780601f106108f45761010080835404028352916020019161091f565b820191906000526020600020905b81548152906001019060200180831161090257829003601f168201915b505050505081526020016008820160009054906101000a900473ffffffffffffffffffffffffffffffffffffffff1673ffffffffffffffffffffffffffffffffffffffff1673ffffffffffffffffffffffffffffffffffffffff168152505084848151811061099157610990611496565b5b602002602001018190525050508080600101915050610508565b508091505090565b6000600160008973ffffffffffffffffffffffffffffffffffffffff1673ffffffffffffffffffffffffffffffffffffffff1681526020019081526020016000209050600054816000018190555086816001019081610a129190611671565b5085816002019081610a249190611671565b5084816003019081610a369190611671565b5083816004019081610a489190611671565b5082816005018190555081816006019081610a639190611671565b506040518060400160405280600781526020017f50656e64696e6700000000000000000000000000000000000000000000000000815250816007019081610aaa9190611671565b50878160080160006101000a81548173ffffffffffffffffffffffffffffffffffffffff021916908373ffffffffffffffffffffffffffffffffffffffff1602179055506002889080600181540180825580915050600190039060005260206000200160009091909190916101000a81548173ffffffffffffffffffffffffffffffffffffffff021916908373ffffffffffffffffffffffffffffffffffffffff1602179055507f8602aae40f17f16f8d08993174d4eb5a63e9a55c3e1b959ab3eee4d19de81987600054888888888888604051610b8e979695949392919061178f565b60405180910390a1600080815480929190610ba890611864565b91905055505050505050505050565b80600160008473ffffffffffffffffffffffffffffffffffffffff1673ffffffffffffffffffffffffffffffffffffffff1681526020019081526020016000206007019081610c069190611671565b507f50dd90f4f80b3b646edd7ab8a6d041002a9226714236b81a742fcb254c702741600160008473ffffffffffffffffffffffffffffffffffffffff1673ffffffffffffffffffffffffffffffffffffffff1681526020019081526020016000206000015482604051610c7a9291906118ac565b60405180910390a15050565b60005481565b6040518061012001604052806000815260200160608152602001606081526020016060815260200160608152602001600081526020016060815260200160608152602001600073ffffffffffffffffffffffffffffffffffffffff1681525090565b6000604051905090565b600080fd5b600080fd5b600073ffffffffffffffffffffffffffffffffffffffff82169050919050565b6000610d2d82610d02565b9050919050565b610d3d81610d22565b8114610d4857600080fd5b50565b600081359050610d5a81610d34565b92915050565b600060208284031215610d7657610d75610cf8565b5b6000610d8484828501610d4b565b91505092915050565b6000819050919050565b610da081610d8d565b82525050565b600081519050919050565b600082825260208201905092915050565b60005b83811015610de0578082015181840152602081019050610dc5565b60008484015250505050565b6000601f19601f8301169050919050565b6000610e0882610da6565b610e128185610db1565b9350610e22818560208601610dc2565b610e2b81610dec565b840191505092915050565b610e3f81610d22565b82525050565b600061012082019050610e5b600083018c610d97565b8181036020830152610e6d818b610dfd565b90508181036040830152610e81818a610dfd565b90508181036060830152610e958189610dfd565b90508181036080830152610ea98188610dfd565b9050610eb860a0830187610d97565b81810360c0830152610eca8186610dfd565b905081810360e0830152610ede8185610dfd565b9050610eee610100830184610e36565b9a9950505050505050505050565b600081519050919050565b600082825260208201905092915050565b6000819050602082019050919050565b610f3181610d8d565b82525050565b600082825260208201905092915050565b6000610f5382610da6565b610f5d8185610f37565b9350610f6d818560208601610dc2565b610f7681610dec565b840191505092915050565b610f8a81610d22565b82525050565b600061012083016000830151610fa96000860182610f28565b5060208301518482036020860152610fc18282610f48565b91505060408301518482036040860152610fdb8282610f48565b91505060608301518482036060860152610ff58282610f48565b9150506080830151848203608086015261100f8282610f48565b91505060a083015161102460a0860182610f28565b5060c083015184820360c086015261103c8282610f48565b91505060e083015184820360e08601526110568282610f48565b91505061010083015161106d610100860182610f81565b508091505092915050565b60006110848383610f90565b905092915050565b6000602082019050919050565b60006110a482610efc565b6110ae8185610f07565b9350836020820285016110c085610f18565b8060005b858110156110fc57848403895281516110dd8582611078565b94506110e88361108c565b925060208a019950506001810190506110c4565b50829750879550505050505092915050565b600060208201905081810360008301526111288184611099565b905092915050565b600080fd5b600080fd5b7f4e487b7100000000000000000000000000000000000000000000000000000000600052604160045260246000fd5b61117282610dec565b810181811067ffffffffffffffff821117156111915761119061113a565b5b80604052505050565b60006111a4610cee565b90506111b08282611169565b919050565b600067ffffffffffffffff8211156111d0576111cf61113a565b5b6111d982610dec565b9050602081019050919050565b82818337600083830152505050565b6000611208611203846111b5565b61119a565b90508281526020810184848401111561122457611223611135565b5b61122f8482856111e6565b509392505050565b600082601f83011261124c5761124b611130565b5b813561125c8482602086016111f5565b91505092915050565b61126e81610d8d565b811461127957600080fd5b50565b60008135905061128b81611265565b92915050565b600080600080600080600060e0888a0312156112b0576112af610cf8565b5b60006112be8a828b01610d4b565b975050602088013567ffffffffffffffff8111156112df576112de610cfd565b5b6112eb8a828b01611237565b965050604088013567ffffffffffffffff81111561130c5761130b610cfd565b5b6113188a828b01611237565b955050606088013567ffffffffffffffff81111561133957611338610cfd565b5b6113458a828b01611237565b945050608088013567ffffffffffffffff81111561136657611365610cfd565b5b6113728a828b01611237565b93505060a06113838a828b0161127c565b92505060c088013567ffffffffffffffff8111156113a4576113a3610cfd565b5b6113b08a828b01611237565b91505092959891949750929550565b600080604083850312156113d6576113d5610cf8565b5b60006113e485828601610d4b565b925050602083013567ffffffffffffffff81111561140557611404610cfd565b5b61141185828601611237565b9150509250929050565b60006020820190506114306000830184610d97565b92915050565b7f4e487b7100000000000000000000000000000000000000000000000000000000600052602260045260246000fd5b6000600282049050600182168061147d57607f821691505b6020821081036114905761148f611436565b5b50919050565b7f4e487b7100000000000000000000000000000000000000000000000000000000600052603260045260246000fd5b60008190508160005260206000209050919050565b60006020601f8301049050919050565b600082821b905092915050565b6000600883026115277fffffffffffffffffffffffffffffffffffffffffffffffffffffffffffffffff826114ea565b61153186836114ea565b95508019841693508086168417925050509392505050565b6000819050919050565b600061156e61156961156484610d8d565b611549565b610d8d565b9050919050565b6000819050919050565b61158883611553565b61159c61159482611575565b8484546114f7565b825550505050565b600090565b6115b16115a4565b6115bc81848461157f565b505050565b5b818110156115e0576115d56000826115a9565b6001810190506115c2565b5050565b601f821115611625576115f6816114c5565b6115ff846114da565b8101602085101561160e578190505b61162261161a856114da565b8301826115c1565b50505b505050565b600082821c905092915050565b60006116486000198460080261162a565b1980831691505092915050565b60006116618383611637565b9150826002028217905092915050565b61167a82610da6565b67ffffffffffffffff8111156116935761169261113a565b5b61169d8254611465565b6116a88282856115e4565b600060209050601f8311600181146116db57600084156116c9578287015190505b6116d38582611655565b86555061173b565b601f1984166116e9866114c5565b60005b82811015611711578489015182556001820191506020850194506020810190506116ec565b8683101561172e578489015161172a601f891682611637565b8355505b6001600288020188555050505b505050505050565b7f50656e64696e6700000000000000000000000000000000000000000000000000600082015250565b6000611779600783610db1565b915061178482611743565b602082019050919050565b6000610100820190506117a5600083018a610d97565b81810360208301526117b78189610dfd565b905081810360408301526117cb8188610dfd565b905081810360608301526117df8187610dfd565b905081810360808301526117f38186610dfd565b905061180260a0830185610d97565b81810360c08301526118148184610dfd565b905081810360e08301526118278161176c565b905098975050505050505050565b7f4e487b7100000000000000000000000000000000000000000000000000000000600052601160045260246000fd5b600061186f82610d8d565b91507fffffffffffffffffffffffffffffffffffffffffffffffffffffffffffffffff82036118a1576118a0611835565b5b600182019050919050565b60006040820190506118c16000830185610d97565b81810360208301526118d38184610dfd565b9050939250505056fea2646970667358221220a5c8c8ea37e7bfedb15fe9b533872bc0763725a0b727c4f5ef7275f13f29e66864736f6c634300081b0033",
  "linkReferences": {},
  "deployedLinkReferences": {}
}