{
  "_format": "hh-sol-artifact-1",
  "contractName": "EHRS",
  "sourceName": "contracts/EHRS.sol",
  "abi": [
    {
      "inputs": [],
      "stateMutability": "nonpayable",
      "type": "constructor"
    },
    {
      "anonymous": false,
      "inputs": [
        {
          "indexed": false,
          "internalType": "uint256",
          "name": "id",
          "type": "uint256"
        },
        {
          "indexed": false,
          "internalType": "string",
          "name": "name",
          "type": "string"
        },
        {
          "indexed": false,
          "internalType": "string",
          "name": "gender",
          "type": "string"
        },
        {
          "indexed": false,
          "internalType": "string",
          "name": "email",
          "type": "string"
        },
        {
          "indexed": false,
          "internalType": "string",
          "name": "qualifications",
          "type": "string"
        },
        {
          "indexed": false,
          "internalType": "string",
          "name": "specialization",
          "type": "string"
        },
        {
          "indexed": false,
          "internalType": "address",
          "name": "doctorAddress",
          "type": "address"
        }
      ],
      "name": "AddDoctor",
      "type": "event"
    },
    {
      "anonymous": false,
      "inputs": [
        {
          "indexed": false,
          "internalType": "uint256",
          "name": "nurseID",
          "type": "uint256"
        },
        {
          "indexed": false,
          "internalType": "string",
          "name": "name",
          "type": "string"
        },
        {
          "indexed": false,
          "internalType": "string",
          "name": "gender",
          "type": "string"
        },
        {
          "indexed": false,
          "internalType": "string",
          "name": "email",
          "type": "string"
        },
        {
          "indexed": false,
          "internalType": "string",
          "name": "phone",
          "type": "string"
        },
        {
          "indexed": false,
          "internalType": "string",
          "name": "department",
          "type": "string"
        },
        {
          "indexed": false,
          "internalType": "string",
          "name": "qualifications",
          "type": "string"
        },
        {
          "indexed": false,
          "internalType": "address",
          "name": "nurseAddress",
          "type": "address"
        }
      ],
      "name": "AddNurse",
      "type": "event"
    },
    {
      "anonymous": false,
      "inputs": [
        {
          "indexed": false,
          "internalType": "address",
          "name": "patientAddress",
          "type": "address"
        },
        {
          "indexed": false,
          "internalType": "string",
          "name": "name",
          "type": "string"
        },
        {
          "indexed": false,
          "internalType": "uint256",
          "name": "age",
          "type": "uint256"
        },
        {
          "indexed": false,
          "internalType": "string",
          "name": "gender",
          "type": "string"
        },
        {
          "indexed": false,
          "internalType": "string",
          "name": "email",
          "type": "string"
        }
      ],
      "name": "AddPatient",
      "type": "event"
    },
    {
      "anonymous": false,
      "inputs": [
        {
          "indexed": false,
          "internalType": "address",
          "name": "doctorAddress",
          "type": "address"
        }
      ],
      "name": "DoctorDeleted",
      "type": "event"
    },
    {
      "anonymous": false,
      "inputs": [
        {
          "indexed": false,
          "internalType": "address",
          "name": "patientAddress",
          "type": "address"
        },
        {
          "indexed": false,
          "internalType": "uint256",
          "name": "medicationID",
          "type": "uint256"
        },
        {
          "indexed": false,
          "internalType": "string",
          "name": "name",
          "type": "string"
        },
        {
          "indexed": false,
          "internalType": "uint256",
          "name": "quantity",
          "type": "uint256"
        },
        {
          "indexed": false,
          "internalType": "string",
          "name": "condition",
          "type": "string"
        },
        {
          "indexed": false,
          "internalType": "address",
          "name": "provider",
          "type": "address"
        },
        {
          "indexed": false,
          "internalType": "uint256",
          "name": "prescribedDate",
          "type": "uint256"
        },
        {
          "indexed": false,
          "internalType": "string",
          "name": "renewByDate",
          "type": "string"
        }
      ],
      "name": "MedicationAdded",
      "type": "event"
    },
    {
      "anonymous": false,
      "inputs": [
        {
          "indexed": false,
          "internalType": "address",
          "name": "patientAddress",
          "type": "address"
        },
        {
          "indexed": false,
          "internalType": "uint256",
          "name": "medicationID",
          "type": "uint256"
        }
      ],
      "name": "MedicationDeleted",
      "type": "event"
    },
    {
      "anonymous": false,
      "inputs": [
        {
          "indexed": false,
          "internalType": "address",
          "name": "nurseAddress",
          "type": "address"
        }
      ],
      "name": "NurseDeleted",
      "type": "event"
    },
    {
      "anonymous": false,
      "inputs": [
        {
          "indexed": false,
          "internalType": "address",
          "name": "patientAddress",
          "type": "address"
        }
      ],
      "name": "PatientDeleted",
      "type": "event"
    },
    {
      "anonymous": false,
      "inputs": [
        {
          "indexed": false,
          "internalType": "address",
          "name": "sender",
          "type": "address"
        },
        {
          "indexed": false,
          "internalType": "string",
          "name": "_ipfsHash",
          "type": "string"
        }
      ],
      "name": "RecordAdded",
      "type": "event"
    },
    {
      "inputs": [
        {
          "internalType": "address",
          "name": "_doctorAddress",
          "type": "address"
        },
        {
          "internalType": "string",
          "name": "_name",
          "type": "string"
        },
        {
          "internalType": "string",
          "name": "_gender",
          "type": "string"
        },
        {
          "internalType": "string",
          "name": "_email",
          "type": "string"
        },
        {
          "internalType": "string",
          "name": "_qualifications",
          "type": "string"
        },
        {
          "internalType": "string",
          "name": "_specialization",
          "type": "string"
        }
      ],
      "name": "addDoctor",
      "outputs": [],
      "stateMutability": "nonpayable",
      "type": "function"
    },
    {
      "inputs": [
        {
          "internalType": "address",
          "name": "_patientAddress",
          "type": "address"
        },
        {
          "internalType": "string",
          "name": "newIPFSHash",
          "type": "string"
        }
      ],
      "name": "addMedicalRecord",
      "outputs": [],
      "stateMutability": "nonpayable",
      "type": "function"
    },
    {
      "inputs": [
        {
          "internalType": "address",
          "name": "_nurseAddress",
          "type": "address"
        },
        {
          "internalType": "string",
          "name": "_name",
          "type": "string"
        },
        {
          "internalType": "string",
          "name": "_gender",
          "type": "string"
        },
        {
          "internalType": "string",
          "name": "_email",
          "type": "string"
        },
        {
          "internalType": "string",
          "name": "_phone",
          "type": "string"
        },
        {
          "internalType": "string",
          "name": "_department",
          "type": "string"
        },
        {
          "internalType": "string",
          "name": "_qualifications",
          "type": "string"
        }
      ],
      "name": "addNurse",
      "outputs": [],
      "stateMutability": "nonpayable",
      "type": "function"
    },
    {
      "inputs": [
        {
          "internalType": "address",
          "name": "_patientAddress",
          "type": "address"
        },
        {
          "internalType": "string",
          "name": "_name",
          "type": "string"
        },
        {
          "internalType": "uint256",
          "name": "_age",
          "type": "uint256"
        },
        {
          "internalType": "string",
          "name": "_gender",
          "type": "string"
        },
        {
          "internalType": "string",
          "name": "_email",
          "type": "string"
        }
      ],
      "name": "addPatient",
      "outputs": [],
      "stateMutability": "nonpayable",
      "type": "function"
    },
    {
      "inputs": [],
      "name": "admin",
      "outputs": [
        {
          "internalType": "address",
          "name": "",
          "type": "address"
        }
      ],
      "stateMutability": "view",
      "type": "function"
    },
    {
      "inputs": [
        {
          "internalType": "address",
          "name": "_doctorAddress",
          "type": "address"
        }
      ],
      "name": "deleteDoctor",
      "outputs": [],
      "stateMutability": "nonpayable",
      "type": "function"
    },
    {
      "inputs": [
        {
          "internalType": "address",
          "name": "_patientAddress",
          "type": "address"
        },
        {
          "internalType": "uint256",
          "name": "index",
          "type": "uint256"
        }
      ],
      "name": "deleteMedicalRecord",
      "outputs": [],
      "stateMutability": "nonpayable",
      "type": "function"
    },
    {
      "inputs": [
        {
          "internalType": "address",
          "name": "_nurseAddress",
          "type": "address"
        }
      ],
      "name": "deleteNurse",
      "outputs": [],
      "stateMutability": "nonpayable",
      "type": "function"
    },
    {
      "inputs": [
        {
          "internalType": "address",
          "name": "_patientAddress",
          "type": "address"
        }
      ],
      "name": "deletePatient",
      "outputs": [],
      "stateMutability": "nonpayable",
      "type": "function"
    },
    {
      "inputs": [],
      "name": "docID",
      "outputs": [
        {
          "internalType": "uint256",
          "name": "",
          "type": "uint256"
        }
      ],
      "stateMutability": "view",
      "type": "function"
    },
    {
      "inputs": [],
      "name": "doctorCount",
      "outputs": [
        {
          "internalType": "uint256",
          "name": "",
          "type": "uint256"
        }
      ],
      "stateMutability": "view",
      "type": "function"
    },
    {
      "inputs": [
        {
          "internalType": "address",
          "name": "",
          "type": "address"
        }
      ],
      "name": "doctors",
      "outputs": [
        {
          "internalType": "uint256",
          "name": "docID",
          "type": "uint256"
        },
        {
          "internalType": "string",
          "name": "name",
          "type": "string"
        },
        {
          "internalType": "string",
          "name": "gender",
          "type": "string"
        },
        {
          "internalType": "string",
          "name": "email",
          "type": "string"
        },
        {
          "internalType": "string",
          "name": "qualifications",
          "type": "string"
        },
        {
          "internalType": "string",
          "name": "specialization",
          "type": "string"
        },
        {
          "internalType": "string",
          "name": "role",
          "type": "string"
        },
        {
          "internalType": "address",
          "name": "doctorAddress",
          "type": "address"
        }
      ],
      "stateMutability": "view",
      "type": "function"
    },
    {
      "inputs": [],
      "name": "getAllDoctor",
      "outputs": [
        {
          "components": [
            {
              "internalType": "uint256",
              "name": "docID",
              "type": "uint256"
            },
            {
              "internalType": "string",
              "name": "name",
              "type": "string"
            },
            {
              "internalType": "string",
              "name": "gender",
              "type": "string"
            },
            {
              "internalType": "string",
              "name": "email",
              "type": "string"
            },
            {
              "internalType": "string",
              "name": "qualifications",
              "type": "string"
            },
            {
              "internalType": "string",
              "name": "specialization",
              "type": "string"
            },
            {
              "internalType": "string",
              "name": "role",
              "type": "string"
            },
            {
              "internalType": "address",
              "name": "doctorAddress",
              "type": "address"
            }
          ],
          "internalType": "struct EHRS.Doctor[]",
          "name": "",
          "type": "tuple[]"
        }
      ],
      "stateMutability": "view",
      "type": "function"
    },
    {
      "inputs": [],
      "name": "getAllPatient",
      "outputs": [
        {
          "components": [
            {
              "internalType": "uint256",
              "name": "id",
              "type": "uint256"
            },
            {
              "internalType": "string",
              "name": "name",
              "type": "string"
            },
            {
              "internalType": "uint256",
              "name": "age",
              "type": "uint256"
            },
            {
              "internalType": "string",
              "name": "gender",
              "type": "string"
            },
            {
              "internalType": "string",
              "name": "email",
              "type": "string"
            },
            {
              "internalType": "string",
              "name": "role",
              "type": "string"
            },
            {
              "internalType": "address",
              "name": "patientAddress",
              "type": "address"
            },
            {
              "internalType": "string[]",
              "name": "medicalRecords",
              "type": "string[]"
            }
          ],
          "internalType": "struct EHRS.Patient[]",
          "name": "",
          "type": "tuple[]"
        }
      ],
      "stateMutability": "view",
      "type": "function"
    },
    {
      "inputs": [
        {
          "internalType": "address",
          "name": "_doctorAddress",
          "type": "address"
        }
      ],
      "name": "getDoctorDetails",
      "outputs": [
        {
          "internalType": "uint256",
          "name": "",
          "type": "uint256"
        },
        {
          "internalType": "string",
          "name": "",
          "type": "string"
        },
        {
          "internalType": "string",
          "name": "",
          "type": "string"
        },
        {
          "internalType": "string",
          "name": "",
          "type": "string"
        },
        {
          "internalType": "string",
          "name": "",
          "type": "string"
        },
        {
          "internalType": "string",
          "name": "",
          "type": "string"
        },
        {
          "internalType": "address",
          "name": "",
          "type": "address"
        }
      ],
      "stateMutability": "view",
      "type": "function"
    },
    {
      "inputs": [
        {
          "internalType": "address",
          "name": "_nurseAddress",
          "type": "address"
        }
      ],
      "name": "getNurseDetails",
      "outputs": [
        {
          "internalType": "uint256",
          "name": "",
          "type": "uint256"
        },
        {
          "internalType": "string",
          "name": "",
          "type": "string"
        },
        {
          "internalType": "string",
          "name": "",
          "type": "string"
        },
        {
          "internalType": "string",
          "name": "",
          "type": "string"
        },
        {
          "internalType": "string",
          "name": "",
          "type": "string"
        },
        {
          "internalType": "string",
          "name": "",
          "type": "string"
        },
        {
          "internalType": "string",
          "name": "",
          "type": "string"
        },
        {
          "internalType": "address",
          "name": "",
          "type": "address"
        }
      ],
      "stateMutability": "view",
      "type": "function"
    },
    {
      "inputs": [
        {
          "internalType": "address",
          "name": "_patientAddress",
          "type": "address"
        }
      ],
      "name": "getPatientDetails",
      "outputs": [
        {
          "internalType": "uint256",
          "name": "",
          "type": "uint256"
        },
        {
          "internalType": "string",
          "name": "",
          "type": "string"
        },
        {
          "internalType": "uint256",
          "name": "",
          "type": "uint256"
        },
        {
          "internalType": "string",
          "name": "",
          "type": "string"
        },
        {
          "internalType": "string",
          "name": "",
          "type": "string"
        },
        {
          "internalType": "string",
          "name": "",
          "type": "string"
        },
        {
          "internalType": "string[]",
          "name": "",
          "type": "string[]"
        }
      ],
      "stateMutability": "view",
      "type": "function"
    },
    {
      "inputs": [
        {
          "internalType": "address",
          "name": "_patientAddress",
          "type": "address"
        }
      ],
      "name": "getPrescribedMedications",
      "outputs": [
        {
          "components": [
            {
              "internalType": "uint256",
              "name": "meditionId",
              "type": "uint256"
            },
            {
              "internalType": "string",
              "name": "name",
              "type": "string"
            },
            {
              "internalType": "uint256",
              "name": "quantity",
              "type": "uint256"
            },
            {
              "internalType": "string",
              "name": "condition",
              "type": "string"
            },
            {
              "internalType": "address",
              "name": "provider",
              "type": "address"
            },
            {
              "internalType": "uint256",
              "name": "prescribedDate",
              "type": "uint256"
            },
            {
              "internalType": "string",
              "name": "renewByDate",
              "type": "string"
            }
          ],
          "internalType": "struct EHRS.Medication[]",
          "name": "",
          "type": "tuple[]"
        }
      ],
      "stateMutability": "view",
      "type": "function"
    },
    {
      "inputs": [],
      "name": "meditionId",
      "outputs": [
        {
          "internalType": "uint256",
          "name": "",
          "type": "uint256"
        }
      ],
      "stateMutability": "view",
      "type": "function"
    },
    {
      "inputs": [
        {
          "internalType": "address",
          "name": "",
          "type": "address"
        }
      ],
      "name": "nurse",
      "outputs": [
        {
          "internalType": "uint256",
          "name": "nurseID",
          "type": "uint256"
        },
        {
          "internalType": "string",
          "name": "name",
          "type": "string"
        },
        {
          "internalType": "string",
          "name": "gender",
          "type": "string"
        },
        {
          "internalType": "string",
          "name": "email",
          "type": "string"
        },
        {
          "internalType": "string",
          "name": "phone",
          "type": "string"
        },
        {
          "internalType": "string",
          "name": "department",
          "type": "string"
        },
        {
          "internalType": "string",
          "name": "qualifications",
          "type": "string"
        },
        {
          "internalType": "address",
          "name": "nurseAddress",
          "type": "address"
        }
      ],
      "stateMutability": "view",
      "type": "function"
    },
    {
      "inputs": [],
      "name": "nurseID",
      "outputs": [
        {
          "internalType": "uint256",
          "name": "",
          "type": "uint256"
        }
      ],
      "stateMutability": "view",
      "type": "function"
    },
    {
      "inputs": [],
      "name": "patientCount",
      "outputs": [
        {
          "internalType": "uint256",
          "name": "",
          "type": "uint256"
        }
      ],
      "stateMutability": "view",
      "type": "function"
    },
    {
      "inputs": [
        {
          "internalType": "address",
          "name": "",
          "type": "address"
        },
        {
          "internalType": "uint256",
          "name": "",
          "type": "uint256"
        }
      ],
      "name": "patientMedications",
      "outputs": [
        {
          "internalType": "uint256",
          "name": "meditionId",
          "type": "uint256"
        },
        {
          "internalType": "string",
          "name": "name",
          "type": "string"
        },
        {
          "internalType": "uint256",
          "name": "quantity",
          "type": "uint256"
        },
        {
          "internalType": "string",
          "name": "condition",
          "type": "string"
        },
        {
          "internalType": "address",
          "name": "provider",
          "type": "address"
        },
        {
          "internalType": "uint256",
          "name": "prescribedDate",
          "type": "uint256"
        },
        {
          "internalType": "string",
          "name": "renewByDate",
          "type": "string"
        }
      ],
      "stateMutability": "view",
      "type": "function"
    },
    {
      "inputs": [
        {
          "internalType": "address",
          "name": "",
          "type": "address"
        }
      ],
      "name": "patients",
      "outputs": [
        {
          "internalType": "uint256",
          "name": "id",
          "type": "uint256"
        },
        {
          "internalType": "string",
          "name": "name",
          "type": "string"
        },
        {
          "internalType": "uint256",
          "name": "age",
          "type": "uint256"
        },
        {
          "internalType": "string",
          "name": "gender",
          "type": "string"
        },
        {
          "internalType": "string",
          "name": "email",
          "type": "string"
        },
        {
          "internalType": "string",
          "name": "role",
          "type": "string"
        },
        {
          "internalType": "address",
          "name": "patientAddress",
          "type": "address"
        }
      ],
      "stateMutability": "view",
      "type": "function"
    },
    {
      "inputs": [
        {
          "internalType": "address",
          "name": "_patientAddress",
          "type": "address"
        },
        {
          "internalType": "string",
          "name": "_name",
          "type": "string"
        },
        {
          "internalType": "uint256",
          "name": "_quantity",
          "type": "uint256"
        },
        {
          "internalType": "string",
          "name": "_condition",
          "type": "string"
        },
        {
          "internalType": "string",
          "name": "_renewByDate",
          "type": "string"
        }
      ],
      "name": "prescribeMedication",
      "outputs": [],
      "stateMutability": "nonpayable",
      "type": "function"
    },
    {
      "inputs": [
        {
          "internalType": "address",
          "name": "_patientAddress",
          "type": "address"
        },
        {
          "internalType": "uint256",
          "name": "index",
          "type": "uint256"
        },
        {
          "internalType": "string",
          "name": "newIPFSHash",
          "type": "string"
        }
      ],
      "name": "updateMedicalRecord",
      "outputs": [],
      "stateMutability": "nonpayable",
      "type": "function"
    }
  ],
  "bytecode": "0x6080604052606460005560c86001556101906002556101f4600355348015602557600080fd5b5033600860006101000a81548173ffffffffffffffffffffffffffffffffffffffff021916908373ffffffffffffffffffffffffffffffffffffffff160217905550615e4a806100766000396000f3fe608060405234801561001057600080fd5b506004361061018d5760003560e01c80638c8350fd116100de578063bab90dbd11610097578063efe2ccc111610071578063efe2ccc1146104b9578063f851a440146104ef578063fb82aa531461050d578063ff4deeec146105295761018d565b8063bab90dbd14610447578063d9cae4511461047d578063e43642661461049b5761018d565b80638c8350fd1461034b5780638d44ac381461036957806397f6515b1461039f578063a0303c41146103bb578063a4fd4be3146103d9578063a9583c22146104105761018d565b80633a9b131c1161014b57806352c3768d1161012557806352c3768d146102c55780635419af93146102e157806378522bc4146102fd578063869e0b6f1461031b5761018d565b80633a9b131c146102565780633b1693b6146102725780633b24814b1461028e5761018d565b8062d0e7e31461019257806302513ed2146101ae5780630869cfbc146101ca5780631128c9ea146102005780631a7906fa1461021c5780632e527b511461023a575b600080fd5b6101ac60048036038101906101a79190614567565b610547565b005b6101c860048036038101906101c391906145d6565b610709565b005b6101e460048036038101906101df91906145d6565b610a64565b6040516101f797969594939291906146a0565b60405180910390f35b61021a6004803603810190610215919061472b565b610ce6565b005b610224610fdc565b6040516102319190614a41565b60405180910390f35b610254600480360381019061024f9190614a63565b6114c6565b005b610270600480360381019061026b9190614bad565b61178b565b005b61028c600480360381019061028791906145d6565b61183d565b005b6102a860048036038101906102a391906145d6565b611b88565b6040516102bc989796959493929190614c09565b60405180910390f35b6102df60048036038101906102da9190614cb1565b611f20565b005b6102fb60048036038101906102f691906145d6565b6120eb565b005b610305612436565b6040516103129190614cf1565b60405180910390f35b610335600480360381019061033091906145d6565b61243c565b6040516103429190614e78565b60405180910390f35b610353612704565b60405161036091906150ea565b60405180910390f35b610383600480360381019061037e9190614cb1565b612bb3565b604051610396979695949392919061510c565b60405180910390f35b6103b960048036038101906103b49190615190565b612dca565b005b6103c3612f92565b6040516103d09190614cf1565b60405180910390f35b6103f360048036038101906103ee91906145d6565b612f98565b604051610407989796959493929190614c09565b60405180910390f35b61042a600480360381019061042591906145d6565b61338d565b60405161043e989796959493929190614c09565b60405180910390f35b610461600480360381019061045c91906145d6565b613725565b604051610474979695949392919061525f565b60405180910390f35b610485613a87565b6040516104929190614cf1565b60405180910390f35b6104a3613a8d565b6040516104b09190614cf1565b60405180910390f35b6104d360048036038101906104ce91906145d6565b613a93565b6040516104e69796959493929190615377565b60405180910390f35b6104f7613e1d565b6040516105049190615409565b60405180910390f35b61052760048036038101906105229190615190565b613e43565b005b61053161421b565b60405161053e9190614cf1565b60405180910390f35b6000600560008573ffffffffffffffffffffffffffffffffffffffff1673ffffffffffffffffffffffffffffffffffffffff168152602001908152602001600020600101805461059690615453565b9050116105d8576040517f08c379a00000000000000000000000000000000000000000000000000000000081526004016105cf906154d0565b60405180910390fd5b600560008473ffffffffffffffffffffffffffffffffffffffff1673ffffffffffffffffffffffffffffffffffffffff16815260200190815260200160002060070180549050821061065f576040517f08c379a00000000000000000000000000000000000000000000000000000000081526004016106569061553c565b60405180910390fd5b80600560008573ffffffffffffffffffffffffffffffffffffffff1673ffffffffffffffffffffffffffffffffffffffff16815260200190815260200160002060070183815481106106b4576106b361555c565b5b9060005260206000200190816106ca9190615737565b507f44626cfec8a165f72396cc5e247c6b96279f8c205a8d07c390df7aa5806205fa83826040516106fc929190615809565b60405180910390a1505050565b6000600560008373ffffffffffffffffffffffffffffffffffffffff1673ffffffffffffffffffffffffffffffffffffffff168152602001908152602001600020600101805461075890615453565b90501161079a576040517f08c379a0000000000000000000000000000000000000000000000000000000008152600401610791906154d0565b60405180910390fd5b600560008273ffffffffffffffffffffffffffffffffffffffff1673ffffffffffffffffffffffffffffffffffffffff1681526020019081526020016000206000808201600090556001820160006107f29190614221565b600282016000905560038201600061080a9190614221565b60048201600061081a9190614221565b60058201600061082a9190614221565b6006820160006101000a81549073ffffffffffffffffffffffffffffffffffffffff02191690556007820160006108619190614261565b505060005b600a80549050811015610a11578173ffffffffffffffffffffffffffffffffffffffff16600a828154811061089e5761089d61555c565b5b9060005260206000200160009054906101000a900473ffffffffffffffffffffffffffffffffffffffff1673ffffffffffffffffffffffffffffffffffffffff1603610a045760008190505b6001600a805490506108fc9190615868565b8110156109b757600a600182610912919061589c565b815481106109235761092261555c565b5b9060005260206000200160009054906101000a900473ffffffffffffffffffffffffffffffffffffffff16600a82815481106109625761096161555c565b5b9060005260206000200160006101000a81548173ffffffffffffffffffffffffffffffffffffffff021916908373ffffffffffffffffffffffffffffffffffffffff16021790555080806001019150506108ea565b50600a8054806109ca576109c96158d0565b5b6001900381819060005260206000200160006101000a81549073ffffffffffffffffffffffffffffffffffffffff02191690559055610a11565b8080600101915050610866565b5060036000815480929190610a25906158ff565b91905055507fde39be920c3839f8060bf8f49fef3956f673e91b0c3bd11a980fd926b25b8dc681604051610a599190615409565b60405180910390a150565b6005602052806000526040600020600091509050806000015490806001018054610a8d90615453565b80601f0160208091040260200160405190810160405280929190818152602001828054610ab990615453565b8015610b065780601f10610adb57610100808354040283529160200191610b06565b820191906000526020600020905b815481529060010190602001808311610ae957829003601f168201915b505050505090806002015490806003018054610b2190615453565b80601f0160208091040260200160405190810160405280929190818152602001828054610b4d90615453565b8015610b9a5780601f10610b6f57610100808354040283529160200191610b9a565b820191906000526020600020905b815481529060010190602001808311610b7d57829003601f168201915b505050505090806004018054610baf90615453565b80601f0160208091040260200160405190810160405280929190818152602001828054610bdb90615453565b8015610c285780601f10610bfd57610100808354040283529160200191610c28565b820191906000526020600020905b815481529060010190602001808311610c0b57829003601f168201915b505050505090806005018054610c3d90615453565b80601f0160208091040260200160405190810160405280929190818152602001828054610c6990615453565b8015610cb65780601f10610c8b57610100808354040283529160200191610cb6565b820191906000526020600020905b815481529060010190602001808311610c9957829003601f168201915b5050505050908060060160009054906101000a900473ffffffffffffffffffffffffffffffffffffffff16905087565b6000600660008873ffffffffffffffffffffffffffffffffffffffff1673ffffffffffffffffffffffffffffffffffffffff1681526020019081526020016000206001018054610d3590615453565b905014610d77576040517f08c379a0000000000000000000000000000000000000000000000000000000008152600401610d6e90615974565b60405180910390fd5b60405180610100016040528060005481526020018681526020018581526020018481526020018381526020018281526020016040518060400160405280600681526020017f646f63746f72000000000000000000000000000000000000000000000000000081525081526020018773ffffffffffffffffffffffffffffffffffffffff16815250600660008873ffffffffffffffffffffffffffffffffffffffff1673ffffffffffffffffffffffffffffffffffffffff168152602001908152602001600020600082015181600001556020820151816001019081610e5c9190615737565b506040820151816002019081610e729190615737565b506060820151816003019081610e889190615737565b506080820151816004019081610e9e9190615737565b5060a0820151816005019081610eb49190615737565b5060c0820151816006019081610eca9190615737565b5060e08201518160070160006101000a81548173ffffffffffffffffffffffffffffffffffffffff021916908373ffffffffffffffffffffffffffffffffffffffff160217905550905050600b869080600181540180825580915050600190039060005260206000200160009091909190916101000a81548173ffffffffffffffffffffffffffffffffffffffff021916908373ffffffffffffffffffffffffffffffffffffffff1602179055507f08ec3fa3a3abd7295674e73b31d9c11ea1a7dbaa0b72db3a179d8f5805a60faa60005486868686868c604051610fb5979695949392919061525f565b60405180910390a1600080815480929190610fcf90615994565b9190505550505050505050565b60606000600b8054905067ffffffffffffffff811115610fff57610ffe61443c565b5b60405190808252806020026020018201604052801561103857816020015b611025614282565b81526020019060019003908161101d5790505b50905060005b600b805490508110156114be576000600b82815481106110615761106061555c565b5b9060005260206000200160009054906101000a900473ffffffffffffffffffffffffffffffffffffffff1690506000600660008373ffffffffffffffffffffffffffffffffffffffff1673ffffffffffffffffffffffffffffffffffffffff1681526020019081526020016000209050604051806101000160405280826000015481526020018260010180546110f690615453565b80601f016020809104026020016040519081016040528092919081815260200182805461112290615453565b801561116f5780601f106111445761010080835404028352916020019161116f565b820191906000526020600020905b81548152906001019060200180831161115257829003601f168201915b5050505050815260200182600201805461118890615453565b80601f01602080910402602001604051908101604052809291908181526020018280546111b490615453565b80156112015780601f106111d657610100808354040283529160200191611201565b820191906000526020600020905b8154815290600101906020018083116111e457829003601f168201915b5050505050815260200182600301805461121a90615453565b80601f016020809104026020016040519081016040528092919081815260200182805461124690615453565b80156112935780601f1061126857610100808354040283529160200191611293565b820191906000526020600020905b81548152906001019060200180831161127657829003601f168201915b505050505081526020018260040180546112ac90615453565b80601f01602080910402602001604051908101604052809291908181526020018280546112d890615453565b80156113255780601f106112fa57610100808354040283529160200191611325565b820191906000526020600020905b81548152906001019060200180831161130857829003601f168201915b5050505050815260200182600501805461133e90615453565b80601f016020809104026020016040519081016040528092919081815260200182805461136a90615453565b80156113b75780601f1061138c576101008083540402835291602001916113b7565b820191906000526020600020905b81548152906001019060200180831161139a57829003601f168201915b505050505081526020018260060180546113d090615453565b80601f01602080910402602001604051908101604052809291908181526020018280546113fc90615453565b80156114495780601f1061141e57610100808354040283529160200191611449565b820191906000526020600020905b81548152906001019060200180831161142c57829003601f168201915b505050505081526020018260070160009054906101000a900473ffffffffffffffffffffffffffffffffffffffff1673ffffffffffffffffffffffffffffffffffffffff168152508484815181106114a4576114a361555c565b5b60200260200101819052505050808060010191505061103e565b508091505090565b6000600460008973ffffffffffffffffffffffffffffffffffffffff1673ffffffffffffffffffffffffffffffffffffffff168152602001908152602001600020600101805461151590615453565b905014611557576040517f08c379a000000000000000000000000000000000000000000000000000000000815260040161154e90615a28565b60405180910390fd5b60405180610100016040528060015481526020018781526020018681526020018581526020018481526020018381526020018281526020018873ffffffffffffffffffffffffffffffffffffffff16815250600460008973ffffffffffffffffffffffffffffffffffffffff1673ffffffffffffffffffffffffffffffffffffffff1681526020019081526020016000206000820151816000015560208201518160010190816116079190615737565b50604082015181600201908161161d9190615737565b5060608201518160030190816116339190615737565b5060808201518160040190816116499190615737565b5060a082015181600501908161165f9190615737565b5060c08201518160060190816116759190615737565b5060e08201518160070160006101000a81548173ffffffffffffffffffffffffffffffffffffffff021916908373ffffffffffffffffffffffffffffffffffffffff160217905550905050600c879080600181540180825580915050600190039060005260206000200160009091909190916101000a81548173ffffffffffffffffffffffffffffffffffffffff021916908373ffffffffffffffffffffffffffffffffffffffff1602179055507f513248af9fdea1035a7597f6be05a4ad9bcc7ecb74154d66935343c000438a6b6001548787878787878e604051611762989796959493929190614c09565b60405180910390a16001600081548092919061177d90615994565b919050555050505050505050565b600560008373ffffffffffffffffffffffffffffffffffffffff1673ffffffffffffffffffffffffffffffffffffffff168152602001908152602001600020600701819080600181540180825580915050600190039060005260206000200160009091909190915090816117ff9190615737565b507f44626cfec8a165f72396cc5e247c6b96279f8c205a8d07c390df7aa5806205fa8282604051611831929190615809565b60405180910390a15050565b6000600660008373ffffffffffffffffffffffffffffffffffffffff1673ffffffffffffffffffffffffffffffffffffffff168152602001908152602001600020600101805461188c90615453565b9050116118ce576040517f08c379a00000000000000000000000000000000000000000000000000000000081526004016118c590615a94565b60405180910390fd5b600660008273ffffffffffffffffffffffffffffffffffffffff1673ffffffffffffffffffffffffffffffffffffffff1681526020019081526020016000206000808201600090556001820160006119269190614221565b6002820160006119369190614221565b6003820160006119469190614221565b6004820160006119569190614221565b6005820160006119669190614221565b6006820160006119769190614221565b6007820160006101000a81549073ffffffffffffffffffffffffffffffffffffffff0219169055505060005b600b80549050811015611b4d578173ffffffffffffffffffffffffffffffffffffffff16600b82815481106119da576119d961555c565b5b9060005260206000200160009054906101000a900473ffffffffffffffffffffffffffffffffffffffff1673ffffffffffffffffffffffffffffffffffffffff1603611b405760008190505b6001600b80549050611a389190615868565b811015611af357600b600182611a4e919061589c565b81548110611a5f57611a5e61555c565b5b9060005260206000200160009054906101000a900473ffffffffffffffffffffffffffffffffffffffff16600b8281548110611a9e57611a9d61555c565b5b9060005260206000200160006101000a81548173ffffffffffffffffffffffffffffffffffffffff021916908373ffffffffffffffffffffffffffffffffffffffff1602179055508080600101915050611a26565b50600b805480611b0657611b056158d0565b5b6001900381819060005260206000200160006101000a81549073ffffffffffffffffffffffffffffffffffffffff02191690559055611b4d565b80806001019150506119a2565b507fd336d2ce591d9d08d509129096a3fa8148c72735c0f1aacd97496684ef15006381604051611b7d9190615409565b60405180910390a150565b6004602052806000526040600020600091509050806000015490806001018054611bb190615453565b80601f0160208091040260200160405190810160405280929190818152602001828054611bdd90615453565b8015611c2a5780601f10611bff57610100808354040283529160200191611c2a565b820191906000526020600020905b815481529060010190602001808311611c0d57829003601f168201915b505050505090806002018054611c3f90615453565b80601f0160208091040260200160405190810160405280929190818152602001828054611c6b90615453565b8015611cb85780601f10611c8d57610100808354040283529160200191611cb8565b820191906000526020600020905b815481529060010190602001808311611c9b57829003601f168201915b505050505090806003018054611ccd90615453565b80601f0160208091040260200160405190810160405280929190818152602001828054611cf990615453565b8015611d465780601f10611d1b57610100808354040283529160200191611d46565b820191906000526020600020905b815481529060010190602001808311611d2957829003601f168201915b505050505090806004018054611d5b90615453565b80601f0160208091040260200160405190810160405280929190818152602001828054611d8790615453565b8015611dd45780601f10611da957610100808354040283529160200191611dd4565b820191906000526020600020905b815481529060010190602001808311611db757829003601f168201915b505050505090806005018054611de990615453565b80601f0160208091040260200160405190810160405280929190818152602001828054611e1590615453565b8015611e625780601f10611e3757610100808354040283529160200191611e62565b820191906000526020600020905b815481529060010190602001808311611e4557829003601f168201915b505050505090806006018054611e7790615453565b80601f0160208091040260200160405190810160405280929190818152602001828054611ea390615453565b8015611ef05780601f10611ec557610100808354040283529160200191611ef0565b820191906000526020600020905b815481529060010190602001808311611ed357829003601f168201915b5050505050908060070160009054906101000a900473ffffffffffffffffffffffffffffffffffffffff16905088565b60006001600560008573ffffffffffffffffffffffffffffffffffffffff1673ffffffffffffffffffffffffffffffffffffffff16815260200190815260200160002060070180549050611f749190615868565b9050600560008473ffffffffffffffffffffffffffffffffffffffff1673ffffffffffffffffffffffffffffffffffffffff1681526020019081526020016000206007018181548110611fca57611fc961555c565b5b90600052602060002001600560008573ffffffffffffffffffffffffffffffffffffffff1673ffffffffffffffffffffffffffffffffffffffff16815260200190815260200160002060070183815481106120285761202761555c565b5b90600052602060002001908161203e9190615adf565b50600560008473ffffffffffffffffffffffffffffffffffffffff1673ffffffffffffffffffffffffffffffffffffffff168152602001908152602001600020600701805480612091576120906158d0565b5b6001900381819060005260206000200160006120ad9190614221565b90557f44626cfec8a165f72396cc5e247c6b96279f8c205a8d07c390df7aa5806205fa836040516120de9190615c13565b60405180910390a1505050565b6000600460008373ffffffffffffffffffffffffffffffffffffffff1673ffffffffffffffffffffffffffffffffffffffff168152602001908152602001600020600101805461213a90615453565b90501161217c576040517f08c379a000000000000000000000000000000000000000000000000000000000815260040161217390615c8d565b60405180910390fd5b600460008273ffffffffffffffffffffffffffffffffffffffff1673ffffffffffffffffffffffffffffffffffffffff1681526020019081526020016000206000808201600090556001820160006121d49190614221565b6002820160006121e49190614221565b6003820160006121f49190614221565b6004820160006122049190614221565b6005820160006122149190614221565b6006820160006122249190614221565b6007820160006101000a81549073ffffffffffffffffffffffffffffffffffffffff0219169055505060005b600c805490508110156123fb578173ffffffffffffffffffffffffffffffffffffffff16600c82815481106122885761228761555c565b5b9060005260206000200160009054906101000a900473ffffffffffffffffffffffffffffffffffffffff1673ffffffffffffffffffffffffffffffffffffffff16036123ee5760008190505b6001600c805490506122e69190615868565b8110156123a157600c6001826122fc919061589c565b8154811061230d5761230c61555c565b5b9060005260206000200160009054906101000a900473ffffffffffffffffffffffffffffffffffffffff16600c828154811061234c5761234b61555c565b5b9060005260206000200160006101000a81548173ffffffffffffffffffffffffffffffffffffffff021916908373ffffffffffffffffffffffffffffffffffffffff16021790555080806001019150506122d4565b50600c8054806123b4576123b36158d0565b5b6001900381819060005260206000200160006101000a81549073ffffffffffffffffffffffffffffffffffffffff021916905590556123fb565b8080600101915050612250565b507fa63d853f41bfcbfddabc7a2b8936f22d6f737cb61ef145489580add27330dad68160405161242b9190615409565b60405180910390a150565b60095481565b6060600760008373ffffffffffffffffffffffffffffffffffffffff1673ffffffffffffffffffffffffffffffffffffffff168152602001908152602001600020805480602002602001604051908101604052809291908181526020016000905b828210156126f957838290600052602060002090600702016040518060e0016040529081600082015481526020016001820180546124da90615453565b80601f016020809104026020016040519081016040528092919081815260200182805461250690615453565b80156125535780601f1061252857610100808354040283529160200191612553565b820191906000526020600020905b81548152906001019060200180831161253657829003601f168201915b505050505081526020016002820154815260200160038201805461257690615453565b80601f01602080910402602001604051908101604052809291908181526020018280546125a290615453565b80156125ef5780601f106125c4576101008083540402835291602001916125ef565b820191906000526020600020905b8154815290600101906020018083116125d257829003601f168201915b505050505081526020016004820160009054906101000a900473ffffffffffffffffffffffffffffffffffffffff1673ffffffffffffffffffffffffffffffffffffffff1673ffffffffffffffffffffffffffffffffffffffff1681526020016005820154815260200160068201805461266890615453565b80601f016020809104026020016040519081016040528092919081815260200182805461269490615453565b80156126e15780601f106126b6576101008083540402835291602001916126e1565b820191906000526020600020905b8154815290600101906020018083116126c457829003601f168201915b5050505050815250508152602001906001019061249d565b505050509050919050565b60606000600a8054905067ffffffffffffffff8111156127275761272661443c565b5b60405190808252806020026020018201604052801561276057816020015b61274d6142dd565b8152602001906001900390816127455790505b50905060005b600a80549050811015612bab576000600a82815481106127895761278861555c565b5b9060005260206000200160009054906101000a900473ffffffffffffffffffffffffffffffffffffffff1690506000600560008373ffffffffffffffffffffffffffffffffffffffff1673ffffffffffffffffffffffffffffffffffffffff168152602001908152602001600020905060006040518061010001604052808360000154815260200183600101805461282090615453565b80601f016020809104026020016040519081016040528092919081815260200182805461284c90615453565b80156128995780601f1061286e57610100808354040283529160200191612899565b820191906000526020600020905b81548152906001019060200180831161287c57829003601f168201915b50505050508152602001836002015481526020018360030180546128bc90615453565b80601f01602080910402602001604051908101604052809291908181526020018280546128e890615453565b80156129355780601f1061290a57610100808354040283529160200191612935565b820191906000526020600020905b81548152906001019060200180831161291857829003601f168201915b5050505050815260200183600401805461294e90615453565b80601f016020809104026020016040519081016040528092919081815260200182805461297a90615453565b80156129c75780601f1061299c576101008083540402835291602001916129c7565b820191906000526020600020905b8154815290600101906020018083116129aa57829003601f168201915b505050505081526020018360050180546129e090615453565b80601f0160208091040260200160405190810160405280929190818152602001828054612a0c90615453565b8015612a595780601f10612a2e57610100808354040283529160200191612a59565b820191906000526020600020905b815481529060010190602001808311612a3c57829003601f168201915b505050505081526020018360060160009054906101000a900473ffffffffffffffffffffffffffffffffffffffff1673ffffffffffffffffffffffffffffffffffffffff16815260200183600701805480602002602001604051908101604052809291908181526020016000905b82821015612b73578382906000526020600020018054612ae690615453565b80601f0160208091040260200160405190810160405280929190818152602001828054612b1290615453565b8015612b5f5780601f10612b3457610100808354040283529160200191612b5f565b820191906000526020600020905b815481529060010190602001808311612b4257829003601f168201915b505050505081526020019060010190612ac7565b50505050815250905080858581518110612b9057612b8f61555c565b5b60200260200101819052505050508080600101915050612766565b508091505090565b60076020528160005260406000208181548110612bcf57600080fd5b906000526020600020906007020160009150915050806000015490806001018054612bf990615453565b80601f0160208091040260200160405190810160405280929190818152602001828054612c2590615453565b8015612c725780601f10612c4757610100808354040283529160200191612c72565b820191906000526020600020905b815481529060010190602001808311612c5557829003601f168201915b505050505090806002015490806003018054612c8d90615453565b80601f0160208091040260200160405190810160405280929190818152602001828054612cb990615453565b8015612d065780601f10612cdb57610100808354040283529160200191612d06565b820191906000526020600020905b815481529060010190602001808311612ce957829003601f168201915b5050505050908060040160009054906101000a900473ffffffffffffffffffffffffffffffffffffffff1690806005015490806006018054612d4790615453565b80601f0160208091040260200160405190810160405280929190818152602001828054612d7390615453565b8015612dc05780601f10612d9557610100808354040283529160200191612dc0565b820191906000526020600020905b815481529060010190602001808311612da357829003601f168201915b5050505050905087565b60006040518060e0016040528060025481526020018681526020018581526020018481526020013373ffffffffffffffffffffffffffffffffffffffff168152602001428152602001838152509050600760008773ffffffffffffffffffffffffffffffffffffffff1673ffffffffffffffffffffffffffffffffffffffff168152602001908152602001600020819080600181540180825580915050600190039060005260206000209060070201600090919091909150600082015181600001556020820151816001019081612ea19190615737565b50604082015181600201556060820151816003019081612ec19190615737565b5060808201518160040160006101000a81548173ffffffffffffffffffffffffffffffffffffffff021916908373ffffffffffffffffffffffffffffffffffffffff16021790555060a0820151816005015560c0820151816006019081612f289190615737565b5050507fcbc7ad85bbeeccca4cc8e23eb6efd1d0dde9dfb02b08802040083c72541eaa7c86600254878787334289604051612f6a989796959493929190615cad565b60405180910390a160026000815480929190612f8590615994565b9190505550505050505050565b60035481565b6000606080606080606080600080600460008b73ffffffffffffffffffffffffffffffffffffffff1673ffffffffffffffffffffffffffffffffffffffff168152602001908152602001600020905080600001548160010182600201836003018460040185600501866006018760070160009054906101000a900473ffffffffffffffffffffffffffffffffffffffff1686805461303590615453565b80601f016020809104026020016040519081016040528092919081815260200182805461306190615453565b80156130ae5780601f10613083576101008083540402835291602001916130ae565b820191906000526020600020905b81548152906001019060200180831161309157829003601f168201915b505050505096508580546130c190615453565b80601f01602080910402602001604051908101604052809291908181526020018280546130ed90615453565b801561313a5780601f1061310f5761010080835404028352916020019161313a565b820191906000526020600020905b81548152906001019060200180831161311d57829003601f168201915b5050505050955084805461314d90615453565b80601f016020809104026020016040519081016040528092919081815260200182805461317990615453565b80156131c65780601f1061319b576101008083540402835291602001916131c6565b820191906000526020600020905b8154815290600101906020018083116131a957829003601f168201915b505050505094508380546131d990615453565b80601f016020809104026020016040519081016040528092919081815260200182805461320590615453565b80156132525780601f1061322757610100808354040283529160200191613252565b820191906000526020600020905b81548152906001019060200180831161323557829003601f168201915b5050505050935082805461326590615453565b80601f016020809104026020016040519081016040528092919081815260200182805461329190615453565b80156132de5780601f106132b3576101008083540402835291602001916132de565b820191906000526020600020905b8154815290600101906020018083116132c157829003601f168201915b505050505092508180546132f190615453565b80601f016020809104026020016040519081016040528092919081815260200182805461331d90615453565b801561336a5780601f1061333f5761010080835404028352916020019161336a565b820191906000526020600020905b81548152906001019060200180831161334d57829003601f168201915b505050505091509850985098509850985098509850985050919395975091939597565b60066020528060005260406000206000915090508060000154908060010180546133b690615453565b80601f01602080910402602001604051908101604052809291908181526020018280546133e290615453565b801561342f5780601f106134045761010080835404028352916020019161342f565b820191906000526020600020905b81548152906001019060200180831161341257829003601f168201915b50505050509080600201805461344490615453565b80601f016020809104026020016040519081016040528092919081815260200182805461347090615453565b80156134bd5780601f10613492576101008083540402835291602001916134bd565b820191906000526020600020905b8154815290600101906020018083116134a057829003601f168201915b5050505050908060030180546134d290615453565b80601f01602080910402602001604051908101604052809291908181526020018280546134fe90615453565b801561354b5780601f106135205761010080835404028352916020019161354b565b820191906000526020600020905b81548152906001019060200180831161352e57829003601f168201915b50505050509080600401805461356090615453565b80601f016020809104026020016040519081016040528092919081815260200182805461358c90615453565b80156135d95780601f106135ae576101008083540402835291602001916135d9565b820191906000526020600020905b8154815290600101906020018083116135bc57829003601f168201915b5050505050908060050180546135ee90615453565b80601f016020809104026020016040519081016040528092919081815260200182805461361a90615453565b80156136675780601f1061363c57610100808354040283529160200191613667565b820191906000526020600020905b81548152906001019060200180831161364a57829003601f168201915b50505050509080600601805461367c90615453565b80601f01602080910402602001604051908101604052809291908181526020018280546136a890615453565b80156136f55780601f106136ca576101008083540402835291602001916136f5565b820191906000526020600020905b8154815290600101906020018083116136d857829003601f168201915b5050505050908060070160009054906101000a900473ffffffffffffffffffffffffffffffffffffffff16905088565b60006060806060806060600080600660008a73ffffffffffffffffffffffffffffffffffffffff1673ffffffffffffffffffffffffffffffffffffffff1681526020019081526020016000209050806000015481600101826003018360040184600501856006018660070160009054906101000a900473ffffffffffffffffffffffffffffffffffffffff168580546137bd90615453565b80601f01602080910402602001604051908101604052809291908181526020018280546137e990615453565b80156138365780601f1061380b57610100808354040283529160200191613836565b820191906000526020600020905b81548152906001019060200180831161381957829003601f168201915b5050505050955084805461384990615453565b80601f016020809104026020016040519081016040528092919081815260200182805461387590615453565b80156138c25780601f10613897576101008083540402835291602001916138c2565b820191906000526020600020905b8154815290600101906020018083116138a557829003601f168201915b505050505094508380546138d590615453565b80601f016020809104026020016040519081016040528092919081815260200182805461390190615453565b801561394e5780601f106139235761010080835404028352916020019161394e565b820191906000526020600020905b81548152906001019060200180831161393157829003601f168201915b5050505050935082805461396190615453565b80601f016020809104026020016040519081016040528092919081815260200182805461398d90615453565b80156139da5780601f106139af576101008083540402835291602001916139da565b820191906000526020600020905b8154815290600101906020018083116139bd57829003601f168201915b505050505092508180546139ed90615453565b80601f0160208091040260200160405190810160405280929190818152602001828054613a1990615453565b8015613a665780601f10613a3b57610100808354040283529160200191613a66565b820191906000526020600020905b815481529060010190602001808311613a4957829003601f168201915b50505050509150975097509750975097509750975050919395979092949650565b60015481565b60005481565b6000606060006060806060806000600560008a73ffffffffffffffffffffffffffffffffffffffff1673ffffffffffffffffffffffffffffffffffffffff1681526020019081526020016000209050806000015481600101826002015483600301846004018560050186600701858054613b0c90615453565b80601f0160208091040260200160405190810160405280929190818152602001828054613b3890615453565b8015613b855780601f10613b5a57610100808354040283529160200191613b85565b820191906000526020600020905b815481529060010190602001808311613b6857829003601f168201915b50505050509550838054613b9890615453565b80601f0160208091040260200160405190810160405280929190818152602001828054613bc490615453565b8015613c115780601f10613be657610100808354040283529160200191613c11565b820191906000526020600020905b815481529060010190602001808311613bf457829003601f168201915b50505050509350828054613c2490615453565b80601f0160208091040260200160405190810160405280929190818152602001828054613c5090615453565b8015613c9d5780601f10613c7257610100808354040283529160200191613c9d565b820191906000526020600020905b815481529060010190602001808311613c8057829003601f168201915b50505050509250818054613cb090615453565b80601f0160208091040260200160405190810160405280929190818152602001828054613cdc90615453565b8015613d295780601f10613cfe57610100808354040283529160200191613d29565b820191906000526020600020905b815481529060010190602001808311613d0c57829003601f168201915b5050505050915080805480602002602001604051908101604052809291908181526020016000905b82821015613dfd578382906000526020600020018054613d7090615453565b80601f0160208091040260200160405190810160405280929190818152602001828054613d9c90615453565b8015613de95780601f10613dbe57610100808354040283529160200191613de9565b820191906000526020600020905b815481529060010190602001808311613dcc57829003601f168201915b505050505081526020019060010190613d51565b505050509050975097509750975097509750975050919395979092949650565b600860009054906101000a900473ffffffffffffffffffffffffffffffffffffffff1681565b6000600560008773ffffffffffffffffffffffffffffffffffffffff1673ffffffffffffffffffffffffffffffffffffffff1681526020019081526020016000206001018054613e9290615453565b905014613ed4576040517f08c379a0000000000000000000000000000000000000000000000000000000008152600401613ecb90615d8c565b60405180910390fd5b600354600560008773ffffffffffffffffffffffffffffffffffffffff1673ffffffffffffffffffffffffffffffffffffffff1681526020019081526020016000206000018190555083600560008773ffffffffffffffffffffffffffffffffffffffff1673ffffffffffffffffffffffffffffffffffffffff1681526020019081526020016000206001019081613f6c9190615737565b5082600560008773ffffffffffffffffffffffffffffffffffffffff1673ffffffffffffffffffffffffffffffffffffffff1681526020019081526020016000206002018190555081600560008773ffffffffffffffffffffffffffffffffffffffff1673ffffffffffffffffffffffffffffffffffffffff16815260200190815260200160002060030190816140039190615737565b5080600560008773ffffffffffffffffffffffffffffffffffffffff1673ffffffffffffffffffffffffffffffffffffffff16815260200190815260200160002060040190816140539190615737565b506040518060400160405280600781526020017f50617469656e7400000000000000000000000000000000000000000000000000815250600560008773ffffffffffffffffffffffffffffffffffffffff1673ffffffffffffffffffffffffffffffffffffffff16815260200190815260200160002060050190816140d89190615737565b5084600560008773ffffffffffffffffffffffffffffffffffffffff1673ffffffffffffffffffffffffffffffffffffffff16815260200190815260200160002060060160006101000a81548173ffffffffffffffffffffffffffffffffffffffff021916908373ffffffffffffffffffffffffffffffffffffffff160217905550600a859080600181540180825580915050600190039060005260206000200160009091909190916101000a81548173ffffffffffffffffffffffffffffffffffffffff021916908373ffffffffffffffffffffffffffffffffffffffff160217905550600360008154809291906141d090615994565b91905055507f2580101fe9f55b9620159c1979f066dfc6da4e9d6448a616ed293c6758632311858585858560405161420c959493929190615dac565b60405180910390a15050505050565b60025481565b50805461422d90615453565b6000825580601f1061423f575061425e565b601f01602090049060005260206000209081019061425d9190614338565b5b50565b508054600082559060005260206000209081019061427f9190614355565b50565b60405180610100016040528060008152602001606081526020016060815260200160608152602001606081526020016060815260200160608152602001600073ffffffffffffffffffffffffffffffffffffffff1681525090565b604051806101000160405280600081526020016060815260200160008152602001606081526020016060815260200160608152602001600073ffffffffffffffffffffffffffffffffffffffff168152602001606081525090565b5b80821115614351576000816000905550600101614339565b5090565b5b80821115614375576000818161436c9190614221565b50600101614356565b5090565b6000604051905090565b600080fd5b600080fd5b600073ffffffffffffffffffffffffffffffffffffffff82169050919050565b60006143b88261438d565b9050919050565b6143c8816143ad565b81146143d357600080fd5b50565b6000813590506143e5816143bf565b92915050565b6000819050919050565b6143fe816143eb565b811461440957600080fd5b50565b60008135905061441b816143f5565b92915050565b600080fd5b600080fd5b6000601f19601f8301169050919050565b7f4e487b7100000000000000000000000000000000000000000000000000000000600052604160045260246000fd5b6144748261442b565b810181811067ffffffffffffffff821117156144935761449261443c565b5b80604052505050565b60006144a6614379565b90506144b2828261446b565b919050565b600067ffffffffffffffff8211156144d2576144d161443c565b5b6144db8261442b565b9050602081019050919050565b82818337600083830152505050565b600061450a614505846144b7565b61449c565b90508281526020810184848401111561452657614525614426565b5b6145318482856144e8565b509392505050565b600082601f83011261454e5761454d614421565b5b813561455e8482602086016144f7565b91505092915050565b6000806000606084860312156145805761457f614383565b5b600061458e868287016143d6565b935050602061459f8682870161440c565b925050604084013567ffffffffffffffff8111156145c0576145bf614388565b5b6145cc86828701614539565b9150509250925092565b6000602082840312156145ec576145eb614383565b5b60006145fa848285016143d6565b91505092915050565b61460c816143eb565b82525050565b600081519050919050565b600082825260208201905092915050565b60005b8381101561464c578082015181840152602081019050614631565b60008484015250505050565b600061466382614612565b61466d818561461d565b935061467d81856020860161462e565b6146868161442b565b840191505092915050565b61469a816143ad565b82525050565b600060e0820190506146b5600083018a614603565b81810360208301526146c78189614658565b90506146d66040830188614603565b81810360608301526146e88187614658565b905081810360808301526146fc8186614658565b905081810360a08301526147108185614658565b905061471f60c0830184614691565b98975050505050505050565b60008060008060008060c0878903121561474857614747614383565b5b600061475689828a016143d6565b965050602087013567ffffffffffffffff81111561477757614776614388565b5b61478389828a01614539565b955050604087013567ffffffffffffffff8111156147a4576147a3614388565b5b6147b089828a01614539565b945050606087013567ffffffffffffffff8111156147d1576147d0614388565b5b6147dd89828a01614539565b935050608087013567ffffffffffffffff8111156147fe576147fd614388565b5b61480a89828a01614539565b92505060a087013567ffffffffffffffff81111561482b5761482a614388565b5b61483789828a01614539565b9150509295509295509295565b600081519050919050565b600082825260208201905092915050565b6000819050602082019050919050565b614879816143eb565b82525050565b600082825260208201905092915050565b600061489b82614612565b6148a5818561487f565b93506148b581856020860161462e565b6148be8161442b565b840191505092915050565b6148d2816143ad565b82525050565b6000610100830160008301516148f16000860182614870565b50602083015184820360208601526149098282614890565b915050604083015184820360408601526149238282614890565b9150506060830151848203606086015261493d8282614890565b915050608083015184820360808601526149578282614890565b91505060a083015184820360a08601526149718282614890565b91505060c083015184820360c086015261498b8282614890565b91505060e08301516149a060e08601826148c9565b508091505092915050565b60006149b783836148d8565b905092915050565b6000602082019050919050565b60006149d782614844565b6149e1818561484f565b9350836020820285016149f385614860565b8060005b85811015614a2f5784840389528151614a1085826149ab565b9450614a1b836149bf565b925060208a019950506001810190506149f7565b50829750879550505050505092915050565b60006020820190508181036000830152614a5b81846149cc565b905092915050565b600080600080600080600060e0888a031215614a8257614a81614383565b5b6000614a908a828b016143d6565b975050602088013567ffffffffffffffff811115614ab157614ab0614388565b5b614abd8a828b01614539565b965050604088013567ffffffffffffffff811115614ade57614add614388565b5b614aea8a828b01614539565b955050606088013567ffffffffffffffff811115614b0b57614b0a614388565b5b614b178a828b01614539565b945050608088013567ffffffffffffffff811115614b3857614b37614388565b5b614b448a828b01614539565b93505060a088013567ffffffffffffffff811115614b6557614b64614388565b5b614b718a828b01614539565b92505060c088013567ffffffffffffffff811115614b9257614b91614388565b5b614b9e8a828b01614539565b91505092959891949750929550565b60008060408385031215614bc457614bc3614383565b5b6000614bd2858286016143d6565b925050602083013567ffffffffffffffff811115614bf357614bf2614388565b5b614bff85828601614539565b9150509250929050565b600061010082019050614c1f600083018b614603565b8181036020830152614c31818a614658565b90508181036040830152614c458189614658565b90508181036060830152614c598188614658565b90508181036080830152614c6d8187614658565b905081810360a0830152614c818186614658565b905081810360c0830152614c958185614658565b9050614ca460e0830184614691565b9998505050505050505050565b60008060408385031215614cc857614cc7614383565b5b6000614cd6858286016143d6565b9250506020614ce78582860161440c565b9150509250929050565b6000602082019050614d066000830184614603565b92915050565b600081519050919050565b600082825260208201905092915050565b6000819050602082019050919050565b600060e083016000830151614d506000860182614870565b5060208301518482036020860152614d688282614890565b9150506040830151614d7d6040860182614870565b5060608301518482036060860152614d958282614890565b9150506080830151614daa60808601826148c9565b5060a0830151614dbd60a0860182614870565b5060c083015184820360c0860152614dd58282614890565b9150508091505092915050565b6000614dee8383614d38565b905092915050565b6000602082019050919050565b6000614e0e82614d0c565b614e188185614d17565b935083602082028501614e2a85614d28565b8060005b85811015614e665784840389528151614e478582614de2565b9450614e5283614df6565b925060208a01995050600181019050614e2e565b50829750879550505050505092915050565b60006020820190508181036000830152614e928184614e03565b905092915050565b600081519050919050565b600082825260208201905092915050565b6000819050602082019050919050565b600081519050919050565b600082825260208201905092915050565b6000819050602082019050919050565b6000614efe8383614890565b905092915050565b6000602082019050919050565b6000614f1e82614ec6565b614f288185614ed1565b935083602082028501614f3a85614ee2565b8060005b85811015614f765784840389528151614f578582614ef2565b9450614f6283614f06565b925060208a01995050600181019050614f3e565b50829750879550505050505092915050565b600061010083016000830151614fa16000860182614870565b5060208301518482036020860152614fb98282614890565b9150506040830151614fce6040860182614870565b5060608301518482036060860152614fe68282614890565b915050608083015184820360808601526150008282614890565b91505060a083015184820360a086015261501a8282614890565b91505060c083015161502f60c08601826148c9565b5060e083015184820360e08601526150478282614f13565b9150508091505092915050565b60006150608383614f88565b905092915050565b6000602082019050919050565b600061508082614e9a565b61508a8185614ea5565b93508360208202850161509c85614eb6565b8060005b858110156150d857848403895281516150b98582615054565b94506150c483615068565b925060208a019950506001810190506150a0565b50829750879550505050505092915050565b600060208201905081810360008301526151048184615075565b905092915050565b600060e082019050615121600083018a614603565b81810360208301526151338189614658565b90506151426040830188614603565b81810360608301526151548187614658565b90506151636080830186614691565b61517060a0830185614603565b81810360c08301526151828184614658565b905098975050505050505050565b600080600080600060a086880312156151ac576151ab614383565b5b60006151ba888289016143d6565b955050602086013567ffffffffffffffff8111156151db576151da614388565b5b6151e788828901614539565b94505060406151f88882890161440c565b935050606086013567ffffffffffffffff81111561521957615218614388565b5b61522588828901614539565b925050608086013567ffffffffffffffff81111561524657615245614388565b5b61525288828901614539565b9150509295509295909350565b600060e082019050615274600083018a614603565b81810360208301526152868189614658565b9050818103604083015261529a8188614658565b905081810360608301526152ae8187614658565b905081810360808301526152c28186614658565b905081810360a08301526152d68185614658565b90506152e560c0830184614691565b98975050505050505050565b600082825260208201905092915050565b600061530d82614ec6565b61531781856152f1565b93508360208202850161532985614ee2565b8060005b8581101561536557848403895281516153468582614ef2565b945061535183614f06565b925060208a0199505060018101905061532d565b50829750879550505050505092915050565b600060e08201905061538c600083018a614603565b818103602083015261539e8189614658565b90506153ad6040830188614603565b81810360608301526153bf8187614658565b905081810360808301526153d38186614658565b905081810360a08301526153e78185614658565b905081810360c08301526153fb8184615302565b905098975050505050505050565b600060208201905061541e6000830184614691565b92915050565b7f4e487b7100000000000000000000000000000000000000000000000000000000600052602260045260246000fd5b6000600282049050600182168061546b57607f821691505b60208210810361547e5761547d615424565b5b50919050565b7f50617469656e7420646f6573206e6f7420657869737400000000000000000000600082015250565b60006154ba60168361461d565b91506154c582615484565b602082019050919050565b600060208201905081810360008301526154e9816154ad565b9050919050565b7f496e76616c696420696e64657800000000000000000000000000000000000000600082015250565b6000615526600d8361461d565b9150615531826154f0565b602082019050919050565b6000602082019050818103600083015261555581615519565b9050919050565b7f4e487b7100000000000000000000000000000000000000000000000000000000600052603260045260246000fd5b60008190508160005260206000209050919050565b60006020601f8301049050919050565b600082821b905092915050565b6000600883026155ed7fffffffffffffffffffffffffffffffffffffffffffffffffffffffffffffffff826155b0565b6155f786836155b0565b95508019841693508086168417925050509392505050565b6000819050919050565b600061563461562f61562a846143eb565b61560f565b6143eb565b9050919050565b6000819050919050565b61564e83615619565b61566261565a8261563b565b8484546155bd565b825550505050565b600090565b61567761566a565b615682818484615645565b505050565b5b818110156156a65761569b60008261566f565b600181019050615688565b5050565b601f8211156156eb576156bc8161558b565b6156c5846155a0565b810160208510156156d4578190505b6156e86156e0856155a0565b830182615687565b50505b505050565b600082821c905092915050565b600061570e600019846008026156f0565b1980831691505092915050565b600061572783836156fd565b9150826002028217905092915050565b61574082614612565b67ffffffffffffffff8111156157595761575861443c565b5b6157638254615453565b61576e8282856156aa565b600060209050601f8311600181146157a1576000841561578f578287015190505b615799858261571b565b865550615801565b601f1984166157af8661558b565b60005b828110156157d7578489015182556001820191506020850194506020810190506157b2565b868310156157f457848901516157f0601f8916826156fd565b8355505b6001600288020188555050505b505050505050565b600060408201905061581e6000830185614691565b81810360208301526158308184614658565b90509392505050565b7f4e487b7100000000000000000000000000000000000000000000000000000000600052601160045260246000fd5b6000615873826143eb565b915061587e836143eb565b925082820390508181111561589657615895615839565b5b92915050565b60006158a7826143eb565b91506158b2836143eb565b92508282019050808211156158ca576158c9615839565b5b92915050565b7f4e487b7100000000000000000000000000000000000000000000000000000000600052603160045260246000fd5b600061590a826143eb565b91506000820361591d5761591c615839565b5b600182039050919050565b7f446f63746f7220616c7265616479206578697374730000000000000000000000600082015250565b600061595e60158361461d565b915061596982615928565b602082019050919050565b6000602082019050818103600083015261598d81615951565b9050919050565b600061599f826143eb565b91507fffffffffffffffffffffffffffffffffffffffffffffffffffffffffffffffff82036159d1576159d0615839565b5b600182019050919050565b7f4e7572736520616c726561647920657869737473000000000000000000000000600082015250565b6000615a1260148361461d565b9150615a1d826159dc565b602082019050919050565b60006020820190508181036000830152615a4181615a05565b9050919050565b7f446f63746f7220646f6573206e6f742065786973740000000000000000000000600082015250565b6000615a7e60158361461d565b9150615a8982615a48565b602082019050919050565b60006020820190508181036000830152615aad81615a71565b9050919050565b600081549050615ac381615453565b9050919050565b60008190508160005260206000209050919050565b818103615aed575050615bc5565b615af682615ab4565b67ffffffffffffffff811115615b0f57615b0e61443c565b5b615b198254615453565b615b248282856156aa565b6000601f831160018114615b535760008415615b41578287015490505b615b4b858261571b565b865550615bbe565b601f198416615b6187615aca565b9650615b6c8661558b565b60005b82811015615b9457848901548255600182019150600185019450602081019050615b6f565b86831015615bb15784890154615bad601f8916826156fd565b8355505b6001600288020188555050505b5050505050505b565b7f5265636f72642064656c65746564000000000000000000000000000000000000600082015250565b6000615bfd600e8361461d565b9150615c0882615bc7565b602082019050919050565b6000604082019050615c286000830184614691565b8181036020830152615c3981615bf0565b905092915050565b7f4e7572736520646f6573206e6f74206578697374000000000000000000000000600082015250565b6000615c7760148361461d565b9150615c8282615c41565b602082019050919050565b60006020820190508181036000830152615ca681615c6a565b9050919050565b600061010082019050615cc3600083018b614691565b615cd0602083018a614603565b8181036040830152615ce28189614658565b9050615cf16060830188614603565b8181036080830152615d038187614658565b9050615d1260a0830186614691565b615d1f60c0830185614603565b81810360e0830152615d318184614658565b90509998505050505050505050565b7f50617469656e7420616c72656164792065786973747300000000000000000000600082015250565b6000615d7660168361461d565b9150615d8182615d40565b602082019050919050565b60006020820190508181036000830152615da581615d69565b9050919050565b600060a082019050615dc16000830188614691565b8181036020830152615dd38187614658565b9050615de26040830186614603565b8181036060830152615df48185614658565b90508181036080830152615e088184614658565b9050969550505050505056fea26469706673582212202197805f4f914282533d9900fc6b113a248ec2feff2311670614da8e44cba8bf64736f6c634300081b0033",
  "linkReferences": {},
  "deployedLinkReferences": {}
}