{
  "_format": "hh-sol-artifact-1",
  "contractName": "EHRS",
  "sourceName": "contracts/EHRS.sol",
  "abi": [
    {
      "inputs": [],
      "stateMutability": "nonpayable",
      "type": "constructor"
    },
    {
      "anonymous": false,
      "inputs": [
        {
          "indexed": false,
          "internalType": "uint256",
          "name": "id",
          "type": "uint256"
        },
        {
          "indexed": false,
          "internalType": "string",
          "name": "name",
          "type": "string"
        },
        {
          "indexed": false,
          "internalType": "string",
          "name": "gender",
          "type": "string"
        },
        {
          "indexed": false,
          "internalType": "string",
          "name": "email",
          "type": "string"
        },
        {
          "indexed": false,
          "internalType": "string",
          "name": "qualifications",
          "type": "string"
        },
        {
          "indexed": false,
          "internalType": "string",
          "name": "specialization",
          "type": "string"
        },
        {
          "indexed": false,
          "internalType": "address",
          "name": "doctorAddress",
          "type": "address"
        }
      ],
      "name": "AddDoctor",
      "type": "event"
    },
    {
      "anonymous": false,
      "inputs": [
        {
          "indexed": false,
          "internalType": "address",
          "name": "patientAddress",
          "type": "address"
        },
        {
          "indexed": false,
          "internalType": "string",
          "name": "name",
          "type": "string"
        },
        {
          "indexed": false,
          "internalType": "uint256",
          "name": "age",
          "type": "uint256"
        }
      ],
      "name": "AddPatient",
      "type": "event"
    },
    {
      "anonymous": false,
      "inputs": [
        {
          "indexed": false,
          "internalType": "address",
          "name": "sender",
          "type": "address"
        },
        {
          "indexed": false,
          "internalType": "string",
          "name": "_ipfsHash",
          "type": "string"
        }
      ],
      "name": "RecordAdded",
      "type": "event"
    },
    {
      "inputs": [
        {
          "internalType": "address",
          "name": "_doctorAddress",
          "type": "address"
        },
        {
          "internalType": "string",
          "name": "_name",
          "type": "string"
        },
        {
          "internalType": "string",
          "name": "_gender",
          "type": "string"
        },
        {
          "internalType": "string",
          "name": "_email",
          "type": "string"
        },
        {
          "internalType": "string",
          "name": "_qualifications",
          "type": "string"
        },
        {
          "internalType": "string",
          "name": "_specialization",
          "type": "string"
        }
      ],
      "name": "addDoctor",
      "outputs": [],
      "stateMutability": "nonpayable",
      "type": "function"
    },
    {
      "inputs": [
        {
          "internalType": "string",
          "name": "_ipfsHash",
          "type": "string"
        }
      ],
      "name": "addMedicalRecord",
      "outputs": [],
      "stateMutability": "nonpayable",
      "type": "function"
    },
    {
      "inputs": [
        {
          "internalType": "address",
          "name": "_patientAddress",
          "type": "address"
        },
        {
          "internalType": "string",
          "name": "_name",
          "type": "string"
        },
        {
          "internalType": "uint256",
          "name": "_age",
          "type": "uint256"
        }
      ],
      "name": "addPatient",
      "outputs": [],
      "stateMutability": "nonpayable",
      "type": "function"
    },
    {
      "inputs": [],
      "name": "admin",
      "outputs": [
        {
          "internalType": "address",
          "name": "",
          "type": "address"
        }
      ],
      "stateMutability": "view",
      "type": "function"
    },
    {
      "inputs": [],
      "name": "docID",
      "outputs": [
        {
          "internalType": "uint256",
          "name": "",
          "type": "uint256"
        }
      ],
      "stateMutability": "view",
      "type": "function"
    },
    {
      "inputs": [],
      "name": "doctorCount",
      "outputs": [
        {
          "internalType": "uint256",
          "name": "",
          "type": "uint256"
        }
      ],
      "stateMutability": "view",
      "type": "function"
    },
    {
      "inputs": [
        {
          "internalType": "address",
          "name": "",
          "type": "address"
        }
      ],
      "name": "doctors",
      "outputs": [
        {
          "internalType": "uint256",
          "name": "docID",
          "type": "uint256"
        },
        {
          "internalType": "string",
          "name": "name",
          "type": "string"
        },
        {
          "internalType": "string",
          "name": "gender",
          "type": "string"
        },
        {
          "internalType": "string",
          "name": "email",
          "type": "string"
        },
        {
          "internalType": "string",
          "name": "qualifications",
          "type": "string"
        },
        {
          "internalType": "string",
          "name": "specialization",
          "type": "string"
        },
        {
          "internalType": "address",
          "name": "doctorAddress",
          "type": "address"
        }
      ],
      "stateMutability": "view",
      "type": "function"
    },
    {
      "inputs": [
        {
          "internalType": "address",
          "name": "_doctorAddress",
          "type": "address"
        }
      ],
      "name": "getDoctorDetails",
      "outputs": [
        {
          "internalType": "string",
          "name": "",
          "type": "string"
        }
      ],
      "stateMutability": "view",
      "type": "function"
    },
    {
      "inputs": [
        {
          "internalType": "address",
          "name": "_patientAddress",
          "type": "address"
        }
      ],
      "name": "getPatientDetails",
      "outputs": [
        {
          "internalType": "string",
          "name": "",
          "type": "string"
        },
        {
          "internalType": "uint256",
          "name": "",
          "type": "uint256"
        },
        {
          "internalType": "string[]",
          "name": "",
          "type": "string[]"
        }
      ],
      "stateMutability": "view",
      "type": "function"
    },
    {
      "inputs": [
        {
          "internalType": "address",
          "name": "_doctorAddress",
          "type": "address"
        }
      ],
      "name": "grantAccessToDoctor",
      "outputs": [],
      "stateMutability": "nonpayable",
      "type": "function"
    },
    {
      "inputs": [],
      "name": "patientCount",
      "outputs": [
        {
          "internalType": "uint256",
          "name": "",
          "type": "uint256"
        }
      ],
      "stateMutability": "view",
      "type": "function"
    },
    {
      "inputs": [
        {
          "internalType": "address",
          "name": "",
          "type": "address"
        }
      ],
      "name": "patients",
      "outputs": [
        {
          "internalType": "uint256",
          "name": "id",
          "type": "uint256"
        },
        {
          "internalType": "string",
          "name": "name",
          "type": "string"
        },
        {
          "internalType": "uint256",
          "name": "age",
          "type": "uint256"
        },
        {
          "internalType": "address",
          "name": "patientAddress",
          "type": "address"
        }
      ],
      "stateMutability": "view",
      "type": "function"
    },
    {
      "inputs": [
        {
          "internalType": "address",
          "name": "_doctorAddress",
          "type": "address"
        }
      ],
      "name": "revokeAccessFromDoctor",
      "outputs": [],
      "stateMutability": "nonpayable",
      "type": "function"
    },
    {
      "inputs": [
        {
          "internalType": "address",
          "name": "_patientAddress",
          "type": "address"
        },
        {
          "internalType": "string",
          "name": "_newRecord",
          "type": "string"
        }
      ],
      "name": "updateMedicalRecord",
      "outputs": [],
      "stateMutability": "nonpayable",
      "type": "function"
    },
    {
      "inputs": [
        {
          "internalType": "address",
          "name": "_patient",
          "type": "address"
        }
      ],
      "name": "viewAllRecords",
      "outputs": [
        {
          "internalType": "string[]",
          "name": "",
          "type": "string[]"
        }
      ],
      "stateMutability": "view",
      "type": "function"
    },
    {
      "inputs": [
        {
          "internalType": "address",
          "name": "_patientAddress",
          "type": "address"
        }
      ],
      "name": "viewMedicalRecords",
      "outputs": [
        {
          "internalType": "string[]",
          "name": "",
          "type": "string[]"
        }
      ],
      "stateMutability": "view",
      "type": "function"
    }
  ],
  "bytecode": "0x60806040526064600055348015601457600080fd5b5033600360006101000a81548173ffffffffffffffffffffffffffffffffffffffff021916908373ffffffffffffffffffffffffffffffffffffffff1602179055506129af806100656000396000f3fe608060405234801561001057600080fd5b50600436106101005760003560e01c8063a0303c4111610097578063e671926a11610066578063e671926a146102c8578063ebda21ed146102e4578063efe2ccc114610300578063f851a4401461033257610100565b8063a0303c4114610226578063a9583c2214610244578063bab90dbd1461027a578063e4364266146102aa57610100565b8063629e559d116100d3578063629e559d1461018c578063651a8098146101a857806378522bc4146101d857806382b41392146101f657610100565b80630869cfbc146101055780631128c9ea1461013857806315942e07146101545780631c8e251c14610170575b600080fd5b61011f600480360381019061011a9190611ba6565b610350565b60405161012f9493929190611c8b565b60405180910390f35b610152600480360381019061014d9190611e0c565b610428565b005b61016e60048036038101906101699190611f25565b610668565b005b61018a60048036038101906101859190611ba6565b610840565b005b6101a660048036038101906101a19190611ba6565b6109fc565b005b6101c260048036038101906101bd9190611ba6565b610bf4565b6040516101cf919061208d565b60405180910390f35b6101e0610d9f565b6040516101ed91906120af565b60405180910390f35b610210600480360381019061020b9190611ba6565b610da5565b60405161021d919061208d565b60405180910390f35b61022e61101f565b60405161023b91906120af565b60405180910390f35b61025e60048036038101906102599190611ba6565b611025565b60405161027197969594939291906120ca565b60405180910390f35b610294600480360381019061028f9190611ba6565b61132f565b6040516102a1919061215c565b60405180910390f35b6102b2611499565b6040516102bf91906120af565b60405180910390f35b6102e260048036038101906102dd919061217e565b61149f565b005b6102fe60048036038101906102f991906121f3565b6115e1565b005b61031a60048036038101906103159190611ba6565b6118bb565b60405161032993929190612262565b60405180910390f35b61033a611b0e565b60405161034791906122a7565b60405180910390f35b6001602052806000526040600020600091509050806000015490806001018054610379906122f1565b80601f01602080910402602001604051908101604052809291908181526020018280546103a5906122f1565b80156103f25780601f106103c7576101008083540402835291602001916103f2565b820191906000526020600020905b8154815290600101906020018083116103d557829003601f168201915b5050505050908060020154908060030160009054906101000a900473ffffffffffffffffffffffffffffffffffffffff16905084565b600360009054906101000a900473ffffffffffffffffffffffffffffffffffffffff1673ffffffffffffffffffffffffffffffffffffffff163373ffffffffffffffffffffffffffffffffffffffff16146104b8576040517f08c379a00000000000000000000000000000000000000000000000000000000081526004016104af9061236e565b60405180910390fd5b6040518060e0016040528060005481526020018681526020018581526020018481526020018381526020018281526020018773ffffffffffffffffffffffffffffffffffffffff16815250600260008873ffffffffffffffffffffffffffffffffffffffff1673ffffffffffffffffffffffffffffffffffffffff168152602001908152602001600020600082015181600001556020820151816001019081610561919061253a565b506040820151816002019081610577919061253a565b50606082015181600301908161058d919061253a565b5060808201518160040190816105a3919061253a565b5060a08201518160050190816105b9919061253a565b5060c08201518160060160006101000a81548173ffffffffffffffffffffffffffffffffffffffff021916908373ffffffffffffffffffffffffffffffffffffffff1602179055509050507f08ec3fa3a3abd7295674e73b31d9c11ea1a7dbaa0b72db3a179d8f5805a60faa60005486868686868c60405161064197969594939291906120ca565b60405180910390a160008081548092919061065b9061263b565b9190505550505050505050565b6000600260003373ffffffffffffffffffffffffffffffffffffffff1673ffffffffffffffffffffffffffffffffffffffff16815260200190815260200160002060010180546106b7906122f1565b9050116106f9576040517f08c379a00000000000000000000000000000000000000000000000000000000081526004016106f0906126cf565b60405180910390fd5b81600160008273ffffffffffffffffffffffffffffffffffffffff1673ffffffffffffffffffffffffffffffffffffffff16815260200190815260200160002060050160003373ffffffffffffffffffffffffffffffffffffffff1673ffffffffffffffffffffffffffffffffffffffff16815260200190815260200160002060009054906101000a900460ff166107c6576040517f08c379a00000000000000000000000000000000000000000000000000000000081526004016107bd9061273b565b60405180910390fd5b600160008473ffffffffffffffffffffffffffffffffffffffff1673ffffffffffffffffffffffffffffffffffffffff1681526020019081526020016000206004018290806001815401808255809150506001900390600052602060002001600090919091909150908161083a919061253a565b50505050565b6000600160003373ffffffffffffffffffffffffffffffffffffffff1673ffffffffffffffffffffffffffffffffffffffff168152602001908152602001600020600101805461088f906122f1565b9050116108d1576040517f08c379a00000000000000000000000000000000000000000000000000000000081526004016108c8906127a7565b60405180910390fd5b6000600260008373ffffffffffffffffffffffffffffffffffffffff1673ffffffffffffffffffffffffffffffffffffffff1681526020019081526020016000206001018054610920906122f1565b905011610962576040517f08c379a000000000000000000000000000000000000000000000000000000000815260040161095990612813565b60405180910390fd5b60018060003373ffffffffffffffffffffffffffffffffffffffff1673ffffffffffffffffffffffffffffffffffffffff16815260200190815260200160002060050160008373ffffffffffffffffffffffffffffffffffffffff1673ffffffffffffffffffffffffffffffffffffffff16815260200190815260200160002060006101000a81548160ff02191690831515021790555050565b6000600160003373ffffffffffffffffffffffffffffffffffffffff1673ffffffffffffffffffffffffffffffffffffffff1681526020019081526020016000206001018054610a4b906122f1565b905011610a8d576040517f08c379a0000000000000000000000000000000000000000000000000000000008152600401610a84906127a7565b60405180910390fd5b600160003373ffffffffffffffffffffffffffffffffffffffff1673ffffffffffffffffffffffffffffffffffffffff16815260200190815260200160002060050160008273ffffffffffffffffffffffffffffffffffffffff1673ffffffffffffffffffffffffffffffffffffffff16815260200190815260200160002060009054906101000a900460ff16610b59576040517f08c379a0000000000000000000000000000000000000000000000000000000008152600401610b509061287f565b60405180910390fd5b6000600160003373ffffffffffffffffffffffffffffffffffffffff1673ffffffffffffffffffffffffffffffffffffffff16815260200190815260200160002060050160008373ffffffffffffffffffffffffffffffffffffffff1673ffffffffffffffffffffffffffffffffffffffff16815260200190815260200160002060006101000a81548160ff02191690831515021790555050565b6060600360009054906101000a900473ffffffffffffffffffffffffffffffffffffffff1673ffffffffffffffffffffffffffffffffffffffff163373ffffffffffffffffffffffffffffffffffffffff1614610c86576040517f08c379a0000000000000000000000000000000000000000000000000000000008152600401610c7d9061236e565b60405180910390fd5b600160008373ffffffffffffffffffffffffffffffffffffffff1673ffffffffffffffffffffffffffffffffffffffff168152602001908152602001600020600401805480602002602001604051908101604052809291908181526020016000905b82821015610d94578382906000526020600020018054610d07906122f1565b80601f0160208091040260200160405190810160405280929190818152602001828054610d33906122f1565b8015610d805780601f10610d5557610100808354040283529160200191610d80565b820191906000526020600020905b815481529060010190602001808311610d6357829003601f168201915b505050505081526020019060010190610ce8565b505050509050919050565b60055481565b60606000600260003373ffffffffffffffffffffffffffffffffffffffff1673ffffffffffffffffffffffffffffffffffffffff1681526020019081526020016000206001018054610df6906122f1565b905011610e38576040517f08c379a0000000000000000000000000000000000000000000000000000000008152600401610e2f906126cf565b60405180910390fd5b81600160008273ffffffffffffffffffffffffffffffffffffffff1673ffffffffffffffffffffffffffffffffffffffff16815260200190815260200160002060050160003373ffffffffffffffffffffffffffffffffffffffff1673ffffffffffffffffffffffffffffffffffffffff16815260200190815260200160002060009054906101000a900460ff16610f05576040517f08c379a0000000000000000000000000000000000000000000000000000000008152600401610efc9061273b565b60405180910390fd5b600160008473ffffffffffffffffffffffffffffffffffffffff1673ffffffffffffffffffffffffffffffffffffffff168152602001908152602001600020600401805480602002602001604051908101604052809291908181526020016000905b82821015611013578382906000526020600020018054610f86906122f1565b80601f0160208091040260200160405190810160405280929190818152602001828054610fb2906122f1565b8015610fff5780601f10610fd457610100808354040283529160200191610fff565b820191906000526020600020905b815481529060010190602001808311610fe257829003601f168201915b505050505081526020019060010190610f67565b50505050915050919050565b60045481565b600260205280600052604060002060009150905080600001549080600101805461104e906122f1565b80601f016020809104026020016040519081016040528092919081815260200182805461107a906122f1565b80156110c75780601f1061109c576101008083540402835291602001916110c7565b820191906000526020600020905b8154815290600101906020018083116110aa57829003601f168201915b5050505050908060020180546110dc906122f1565b80601f0160208091040260200160405190810160405280929190818152602001828054611108906122f1565b80156111555780601f1061112a57610100808354040283529160200191611155565b820191906000526020600020905b81548152906001019060200180831161113857829003601f168201915b50505050509080600301805461116a906122f1565b80601f0160208091040260200160405190810160405280929190818152602001828054611196906122f1565b80156111e35780601f106111b8576101008083540402835291602001916111e3565b820191906000526020600020905b8154815290600101906020018083116111c657829003601f168201915b5050505050908060040180546111f8906122f1565b80601f0160208091040260200160405190810160405280929190818152602001828054611224906122f1565b80156112715780601f1061124657610100808354040283529160200191611271565b820191906000526020600020905b81548152906001019060200180831161125457829003601f168201915b505050505090806005018054611286906122f1565b80601f01602080910402602001604051908101604052809291908181526020018280546112b2906122f1565b80156112ff5780601f106112d4576101008083540402835291602001916112ff565b820191906000526020600020905b8154815290600101906020018083116112e257829003601f168201915b5050505050908060060160009054906101000a900473ffffffffffffffffffffffffffffffffffffffff16905087565b6060600360009054906101000a900473ffffffffffffffffffffffffffffffffffffffff1673ffffffffffffffffffffffffffffffffffffffff163373ffffffffffffffffffffffffffffffffffffffff16146113c1576040517f08c379a00000000000000000000000000000000000000000000000000000000081526004016113b89061236e565b60405180910390fd5b6000600260008473ffffffffffffffffffffffffffffffffffffffff1673ffffffffffffffffffffffffffffffffffffffff1681526020019081526020016000209050806001018054611413906122f1565b80601f016020809104026020016040519081016040528092919081815260200182805461143f906122f1565b801561148c5780601f106114615761010080835404028352916020019161148c565b820191906000526020600020905b81548152906001019060200180831161146f57829003601f168201915b5050505050915050919050565b60005481565b6000600160003373ffffffffffffffffffffffffffffffffffffffff1673ffffffffffffffffffffffffffffffffffffffff16815260200190815260200160002060010180546114ee906122f1565b905011611530576040517f08c379a0000000000000000000000000000000000000000000000000000000008152600401611527906127a7565b60405180910390fd5b600160003373ffffffffffffffffffffffffffffffffffffffff1673ffffffffffffffffffffffffffffffffffffffff168152602001908152602001600020600401819080600181540180825580915050600190039060005260206000200160009091909190915090816115a4919061253a565b507f44626cfec8a165f72396cc5e247c6b96279f8c205a8d07c390df7aa5806205fa33826040516115d692919061289f565b60405180910390a150565b600360009054906101000a900473ffffffffffffffffffffffffffffffffffffffff1673ffffffffffffffffffffffffffffffffffffffff163373ffffffffffffffffffffffffffffffffffffffff1614611671576040517f08c379a00000000000000000000000000000000000000000000000000000000081526004016116689061236e565b60405180910390fd5b6000600160008573ffffffffffffffffffffffffffffffffffffffff1673ffffffffffffffffffffffffffffffffffffffff16815260200190815260200160002060010180546116c0906122f1565b905014611702576040517f08c379a00000000000000000000000000000000000000000000000000000000081526004016116f99061291b565b60405180910390fd5b600454600160008573ffffffffffffffffffffffffffffffffffffffff1673ffffffffffffffffffffffffffffffffffffffff1681526020019081526020016000206000018190555081600160008573ffffffffffffffffffffffffffffffffffffffff1673ffffffffffffffffffffffffffffffffffffffff168152602001908152602001600020600101908161179a919061253a565b5080600160008573ffffffffffffffffffffffffffffffffffffffff1673ffffffffffffffffffffffffffffffffffffffff1681526020019081526020016000206002018190555082600160008573ffffffffffffffffffffffffffffffffffffffff1673ffffffffffffffffffffffffffffffffffffffff16815260200190815260200160002060030160006101000a81548173ffffffffffffffffffffffffffffffffffffffff021916908373ffffffffffffffffffffffffffffffffffffffff160217905550600460008154809291906118769061263b565b91905055507f5ebd9615993b978f4cc755e678d69bf1ad395c44459770f907073509aff006288383836040516118ae9392919061293b565b60405180910390a1505050565b606060006060600360009054906101000a900473ffffffffffffffffffffffffffffffffffffffff1673ffffffffffffffffffffffffffffffffffffffff163373ffffffffffffffffffffffffffffffffffffffff1614611951576040517f08c379a00000000000000000000000000000000000000000000000000000000081526004016119489061236e565b60405180910390fd5b6000600160008673ffffffffffffffffffffffffffffffffffffffff1673ffffffffffffffffffffffffffffffffffffffff1681526020019081526020016000209050806001018160020154826004018280546119ad906122f1565b80601f01602080910402602001604051908101604052809291908181526020018280546119d9906122f1565b8015611a265780601f106119fb57610100808354040283529160200191611a26565b820191906000526020600020905b815481529060010190602001808311611a0957829003601f168201915b5050505050925080805480602002602001604051908101604052809291908181526020016000905b82821015611afa578382906000526020600020018054611a6d906122f1565b80601f0160208091040260200160405190810160405280929190818152602001828054611a99906122f1565b8015611ae65780601f10611abb57610100808354040283529160200191611ae6565b820191906000526020600020905b815481529060010190602001808311611ac957829003601f168201915b505050505081526020019060010190611a4e565b505050509050935093509350509193909250565b600360009054906101000a900473ffffffffffffffffffffffffffffffffffffffff1681565b6000604051905090565b600080fd5b600080fd5b600073ffffffffffffffffffffffffffffffffffffffff82169050919050565b6000611b7382611b48565b9050919050565b611b8381611b68565b8114611b8e57600080fd5b50565b600081359050611ba081611b7a565b92915050565b600060208284031215611bbc57611bbb611b3e565b5b6000611bca84828501611b91565b91505092915050565b6000819050919050565b611be681611bd3565b82525050565b600081519050919050565b600082825260208201905092915050565b60005b83811015611c26578082015181840152602081019050611c0b565b60008484015250505050565b6000601f19601f8301169050919050565b6000611c4e82611bec565b611c588185611bf7565b9350611c68818560208601611c08565b611c7181611c32565b840191505092915050565b611c8581611b68565b82525050565b6000608082019050611ca06000830187611bdd565b8181036020830152611cb28186611c43565b9050611cc16040830185611bdd565b611cce6060830184611c7c565b95945050505050565b600080fd5b600080fd5b7f4e487b7100000000000000000000000000000000000000000000000000000000600052604160045260246000fd5b611d1982611c32565b810181811067ffffffffffffffff82111715611d3857611d37611ce1565b5b80604052505050565b6000611d4b611b34565b9050611d578282611d10565b919050565b600067ffffffffffffffff821115611d7757611d76611ce1565b5b611d8082611c32565b9050602081019050919050565b82818337600083830152505050565b6000611daf611daa84611d5c565b611d41565b905082815260208101848484011115611dcb57611dca611cdc565b5b611dd6848285611d8d565b509392505050565b600082601f830112611df357611df2611cd7565b5b8135611e03848260208601611d9c565b91505092915050565b60008060008060008060c08789031215611e2957611e28611b3e565b5b6000611e3789828a01611b91565b965050602087013567ffffffffffffffff811115611e5857611e57611b43565b5b611e6489828a01611dde565b955050604087013567ffffffffffffffff811115611e8557611e84611b43565b5b611e9189828a01611dde565b945050606087013567ffffffffffffffff811115611eb257611eb1611b43565b5b611ebe89828a01611dde565b935050608087013567ffffffffffffffff811115611edf57611ede611b43565b5b611eeb89828a01611dde565b92505060a087013567ffffffffffffffff811115611f0c57611f0b611b43565b5b611f1889828a01611dde565b9150509295509295509295565b60008060408385031215611f3c57611f3b611b3e565b5b6000611f4a85828601611b91565b925050602083013567ffffffffffffffff811115611f6b57611f6a611b43565b5b611f7785828601611dde565b9150509250929050565b600081519050919050565b600082825260208201905092915050565b6000819050602082019050919050565b600082825260208201905092915050565b6000611fc982611bec565b611fd38185611fad565b9350611fe3818560208601611c08565b611fec81611c32565b840191505092915050565b60006120038383611fbe565b905092915050565b6000602082019050919050565b600061202382611f81565b61202d8185611f8c565b93508360208202850161203f85611f9d565b8060005b8581101561207b578484038952815161205c8582611ff7565b94506120678361200b565b925060208a01995050600181019050612043565b50829750879550505050505092915050565b600060208201905081810360008301526120a78184612018565b905092915050565b60006020820190506120c46000830184611bdd565b92915050565b600060e0820190506120df600083018a611bdd565b81810360208301526120f18189611c43565b905081810360408301526121058188611c43565b905081810360608301526121198187611c43565b9050818103608083015261212d8186611c43565b905081810360a08301526121418185611c43565b905061215060c0830184611c7c565b98975050505050505050565b600060208201905081810360008301526121768184611c43565b905092915050565b60006020828403121561219457612193611b3e565b5b600082013567ffffffffffffffff8111156121b2576121b1611b43565b5b6121be84828501611dde565b91505092915050565b6121d081611bd3565b81146121db57600080fd5b50565b6000813590506121ed816121c7565b92915050565b60008060006060848603121561220c5761220b611b3e565b5b600061221a86828701611b91565b935050602084013567ffffffffffffffff81111561223b5761223a611b43565b5b61224786828701611dde565b9250506040612258868287016121de565b9150509250925092565b6000606082019050818103600083015261227c8186611c43565b905061228b6020830185611bdd565b818103604083015261229d8184612018565b9050949350505050565b60006020820190506122bc6000830184611c7c565b92915050565b7f4e487b7100000000000000000000000000000000000000000000000000000000600052602260045260246000fd5b6000600282049050600182168061230957607f821691505b60208210810361231c5761231b6122c2565b5b50919050565b7f4e6f7420616e2061646d696e6973747261746f72000000000000000000000000600082015250565b6000612358601483611bf7565b915061236382612322565b602082019050919050565b600060208201905081810360008301526123878161234b565b9050919050565b60008190508160005260206000209050919050565b60006020601f8301049050919050565b600082821b905092915050565b6000600883026123f07fffffffffffffffffffffffffffffffffffffffffffffffffffffffffffffffff826123b3565b6123fa86836123b3565b95508019841693508086168417925050509392505050565b6000819050919050565b600061243761243261242d84611bd3565b612412565b611bd3565b9050919050565b6000819050919050565b6124518361241c565b61246561245d8261243e565b8484546123c0565b825550505050565b600090565b61247a61246d565b612485818484612448565b505050565b5b818110156124a95761249e600082612472565b60018101905061248b565b5050565b601f8211156124ee576124bf8161238e565b6124c8846123a3565b810160208510156124d7578190505b6124eb6124e3856123a3565b83018261248a565b50505b505050565b600082821c905092915050565b6000612511600019846008026124f3565b1980831691505092915050565b600061252a8383612500565b9150826002028217905092915050565b61254382611bec565b67ffffffffffffffff81111561255c5761255b611ce1565b5b61256682546122f1565b6125718282856124ad565b600060209050601f8311600181146125a45760008415612592578287015190505b61259c858261251e565b865550612604565b601f1984166125b28661238e565b60005b828110156125da578489015182556001820191506020850194506020810190506125b5565b868310156125f757848901516125f3601f891682612500565b8355505b6001600288020188555050505b505050505050565b7f4e487b7100000000000000000000000000000000000000000000000000000000600052601160045260246000fd5b600061264682611bd3565b91507fffffffffffffffffffffffffffffffffffffffffffffffffffffffffffffffff82036126785761267761260c565b5b600182019050919050565b7f4e6f742061207265676973746572656420646f63746f72000000000000000000600082015250565b60006126b9601783611bf7565b91506126c482612683565b602082019050919050565b600060208201905081810360008301526126e8816126ac565b9050919050565b7f446f63746f72206e6f7420617574686f72697a65640000000000000000000000600082015250565b6000612725601583611bf7565b9150612730826126ef565b602082019050919050565b6000602082019050818103600083015261275481612718565b9050919050565b7f4e6f74206120726567697374657265642070617469656e740000000000000000600082015250565b6000612791601883611bf7565b915061279c8261275b565b602082019050919050565b600060208201905081810360008301526127c081612784565b9050919050565b7f446f63746f72206e6f7420726567697374657265640000000000000000000000600082015250565b60006127fd601583611bf7565b9150612808826127c7565b602082019050919050565b6000602082019050818103600083015261282c816127f0565b9050919050565b7f446f63746f72206973206e6f7420617574686f72697a65640000000000000000600082015250565b6000612869601883611bf7565b915061287482612833565b602082019050919050565b600060208201905081810360008301526128988161285c565b9050919050565b60006040820190506128b46000830185611c7c565b81810360208301526128c68184611c43565b90509392505050565b7f50617469656e7420616c72656164792065786973747300000000000000000000600082015250565b6000612905601683611bf7565b9150612910826128cf565b602082019050919050565b60006020820190508181036000830152612934816128f8565b9050919050565b60006060820190506129506000830186611c7c565b81810360208301526129628185611c43565b90506129716040830184611bdd565b94935050505056fea26469706673582212209fac56914a9c46703833b40bc454a2e0ce1c6a500237729f4c58574b0c024e7c64736f6c634300081b0033",
  "linkReferences": {},
  "deployedLinkReferences": {}
}