{
  "_format": "hh-sol-artifact-1",
  "contractName": "EHRS",
  "sourceName": "contracts/EHRS.sol",
  "abi": [
    {
      "inputs": [],
      "stateMutability": "nonpayable",
      "type": "constructor"
    },
    {
      "anonymous": false,
      "inputs": [
        {
          "indexed": false,
          "internalType": "uint256",
          "name": "id",
          "type": "uint256"
        },
        {
          "indexed": false,
          "internalType": "string",
          "name": "name",
          "type": "string"
        },
        {
          "indexed": false,
          "internalType": "string",
          "name": "gender",
          "type": "string"
        },
        {
          "indexed": false,
          "internalType": "string",
          "name": "email",
          "type": "string"
        },
        {
          "indexed": false,
          "internalType": "string",
          "name": "qualifications",
          "type": "string"
        },
        {
          "indexed": false,
          "internalType": "string",
          "name": "specialization",
          "type": "string"
        },
        {
          "indexed": false,
          "internalType": "address",
          "name": "doctorAddress",
          "type": "address"
        }
      ],
      "name": "AddDoctor",
      "type": "event"
    },
    {
      "anonymous": false,
      "inputs": [
        {
          "indexed": false,
          "internalType": "uint256",
          "name": "nurseID",
          "type": "uint256"
        },
        {
          "indexed": false,
          "internalType": "string",
          "name": "name",
          "type": "string"
        },
        {
          "indexed": false,
          "internalType": "string",
          "name": "gender",
          "type": "string"
        },
        {
          "indexed": false,
          "internalType": "string",
          "name": "email",
          "type": "string"
        },
        {
          "indexed": false,
          "internalType": "string",
          "name": "phone",
          "type": "string"
        },
        {
          "indexed": false,
          "internalType": "string",
          "name": "department",
          "type": "string"
        },
        {
          "indexed": false,
          "internalType": "string",
          "name": "qualifications",
          "type": "string"
        },
        {
          "indexed": false,
          "internalType": "address",
          "name": "nurseAddress",
          "type": "address"
        }
      ],
      "name": "AddNurse",
      "type": "event"
    },
    {
      "anonymous": false,
      "inputs": [
        {
          "indexed": false,
          "internalType": "address",
          "name": "patientAddress",
          "type": "address"
        },
        {
          "indexed": false,
          "internalType": "string",
          "name": "name",
          "type": "string"
        },
        {
          "indexed": false,
          "internalType": "uint256",
          "name": "age",
          "type": "uint256"
        },
        {
          "indexed": false,
          "internalType": "string",
          "name": "gender",
          "type": "string"
        },
        {
          "indexed": false,
          "internalType": "string",
          "name": "email",
          "type": "string"
        }
      ],
      "name": "AddPatient",
      "type": "event"
    },
    {
      "anonymous": false,
      "inputs": [
        {
          "indexed": false,
          "internalType": "address",
          "name": "doctorAddress",
          "type": "address"
        }
      ],
      "name": "DoctorDeleted",
      "type": "event"
    },
    {
      "anonymous": false,
      "inputs": [
        {
          "indexed": false,
          "internalType": "address",
          "name": "patientAddress",
          "type": "address"
        },
        {
          "indexed": false,
          "internalType": "uint256",
          "name": "medicationID",
          "type": "uint256"
        },
        {
          "indexed": false,
          "internalType": "string",
          "name": "name",
          "type": "string"
        },
        {
          "indexed": false,
          "internalType": "uint256",
          "name": "quantity",
          "type": "uint256"
        },
        {
          "indexed": false,
          "internalType": "string",
          "name": "condition",
          "type": "string"
        },
        {
          "indexed": false,
          "internalType": "address",
          "name": "provider",
          "type": "address"
        },
        {
          "indexed": false,
          "internalType": "uint256",
          "name": "prescribedDate",
          "type": "uint256"
        },
        {
          "indexed": false,
          "internalType": "string",
          "name": "renewByDate",
          "type": "string"
        }
      ],
      "name": "MedicationAdded",
      "type": "event"
    },
    {
      "anonymous": false,
      "inputs": [
        {
          "indexed": false,
          "internalType": "address",
          "name": "patientAddress",
          "type": "address"
        },
        {
          "indexed": false,
          "internalType": "uint256",
          "name": "medicationID",
          "type": "uint256"
        }
      ],
      "name": "MedicationDeleted",
      "type": "event"
    },
    {
      "anonymous": false,
      "inputs": [
        {
          "indexed": false,
          "internalType": "address",
          "name": "nurseAddress",
          "type": "address"
        }
      ],
      "name": "NurseDeleted",
      "type": "event"
    },
    {
      "anonymous": false,
      "inputs": [
        {
          "indexed": false,
          "internalType": "address",
          "name": "patientAddress",
          "type": "address"
        }
      ],
      "name": "PatientDeleted",
      "type": "event"
    },
    {
      "anonymous": false,
      "inputs": [
        {
          "indexed": false,
          "internalType": "address",
          "name": "sender",
          "type": "address"
        },
        {
          "indexed": false,
          "internalType": "string",
          "name": "_ipfsHash",
          "type": "string"
        }
      ],
      "name": "RecordAdded",
      "type": "event"
    },
    {
      "inputs": [
        {
          "internalType": "address",
          "name": "_doctorAddress",
          "type": "address"
        },
        {
          "internalType": "string",
          "name": "_name",
          "type": "string"
        },
        {
          "internalType": "string",
          "name": "_gender",
          "type": "string"
        },
        {
          "internalType": "string",
          "name": "_email",
          "type": "string"
        },
        {
          "internalType": "string",
          "name": "_qualifications",
          "type": "string"
        },
        {
          "internalType": "string",
          "name": "_specialization",
          "type": "string"
        }
      ],
      "name": "addDoctor",
      "outputs": [],
      "stateMutability": "nonpayable",
      "type": "function"
    },
    {
      "inputs": [
        {
          "internalType": "address",
          "name": "_nurseAddress",
          "type": "address"
        },
        {
          "internalType": "string",
          "name": "_name",
          "type": "string"
        },
        {
          "internalType": "string",
          "name": "_gender",
          "type": "string"
        },
        {
          "internalType": "string",
          "name": "_email",
          "type": "string"
        },
        {
          "internalType": "string",
          "name": "_phone",
          "type": "string"
        },
        {
          "internalType": "string",
          "name": "_department",
          "type": "string"
        },
        {
          "internalType": "string",
          "name": "_qualifications",
          "type": "string"
        }
      ],
      "name": "addNurse",
      "outputs": [],
      "stateMutability": "nonpayable",
      "type": "function"
    },
    {
      "inputs": [
        {
          "internalType": "address",
          "name": "_patientAddress",
          "type": "address"
        },
        {
          "internalType": "string",
          "name": "_name",
          "type": "string"
        },
        {
          "internalType": "uint256",
          "name": "_age",
          "type": "uint256"
        },
        {
          "internalType": "string",
          "name": "_gender",
          "type": "string"
        },
        {
          "internalType": "string",
          "name": "_email",
          "type": "string"
        }
      ],
      "name": "addPatient",
      "outputs": [],
      "stateMutability": "nonpayable",
      "type": "function"
    },
    {
      "inputs": [],
      "name": "admin",
      "outputs": [
        {
          "internalType": "address",
          "name": "",
          "type": "address"
        }
      ],
      "stateMutability": "view",
      "type": "function"
    },
    {
      "inputs": [
        {
          "internalType": "address",
          "name": "_doctorAddress",
          "type": "address"
        }
      ],
      "name": "deleteDoctor",
      "outputs": [],
      "stateMutability": "nonpayable",
      "type": "function"
    },
    {
      "inputs": [
        {
          "internalType": "address",
          "name": "_nurseAddress",
          "type": "address"
        }
      ],
      "name": "deleteNurse",
      "outputs": [],
      "stateMutability": "nonpayable",
      "type": "function"
    },
    {
      "inputs": [
        {
          "internalType": "address",
          "name": "_patientAddress",
          "type": "address"
        }
      ],
      "name": "deletePatient",
      "outputs": [],
      "stateMutability": "nonpayable",
      "type": "function"
    },
    {
      "inputs": [],
      "name": "docID",
      "outputs": [
        {
          "internalType": "uint256",
          "name": "",
          "type": "uint256"
        }
      ],
      "stateMutability": "view",
      "type": "function"
    },
    {
      "inputs": [],
      "name": "doctorCount",
      "outputs": [
        {
          "internalType": "uint256",
          "name": "",
          "type": "uint256"
        }
      ],
      "stateMutability": "view",
      "type": "function"
    },
    {
      "inputs": [
        {
          "internalType": "address",
          "name": "",
          "type": "address"
        }
      ],
      "name": "doctors",
      "outputs": [
        {
          "internalType": "uint256",
          "name": "docID",
          "type": "uint256"
        },
        {
          "internalType": "string",
          "name": "name",
          "type": "string"
        },
        {
          "internalType": "string",
          "name": "gender",
          "type": "string"
        },
        {
          "internalType": "string",
          "name": "email",
          "type": "string"
        },
        {
          "internalType": "string",
          "name": "qualifications",
          "type": "string"
        },
        {
          "internalType": "string",
          "name": "specialization",
          "type": "string"
        },
        {
          "internalType": "string",
          "name": "role",
          "type": "string"
        },
        {
          "internalType": "address",
          "name": "doctorAddress",
          "type": "address"
        }
      ],
      "stateMutability": "view",
      "type": "function"
    },
    {
      "inputs": [],
      "name": "getAllDoctor",
      "outputs": [
        {
          "components": [
            {
              "internalType": "uint256",
              "name": "docID",
              "type": "uint256"
            },
            {
              "internalType": "string",
              "name": "name",
              "type": "string"
            },
            {
              "internalType": "string",
              "name": "gender",
              "type": "string"
            },
            {
              "internalType": "string",
              "name": "email",
              "type": "string"
            },
            {
              "internalType": "string",
              "name": "qualifications",
              "type": "string"
            },
            {
              "internalType": "string",
              "name": "specialization",
              "type": "string"
            },
            {
              "internalType": "string",
              "name": "role",
              "type": "string"
            },
            {
              "internalType": "address",
              "name": "doctorAddress",
              "type": "address"
            }
          ],
          "internalType": "struct EHRS.Doctor[]",
          "name": "",
          "type": "tuple[]"
        }
      ],
      "stateMutability": "view",
      "type": "function"
    },
    {
      "inputs": [],
      "name": "getAllNurses",
      "outputs": [
        {
          "components": [
            {
              "internalType": "uint256",
              "name": "nurseID",
              "type": "uint256"
            },
            {
              "internalType": "string",
              "name": "name",
              "type": "string"
            },
            {
              "internalType": "string",
              "name": "gender",
              "type": "string"
            },
            {
              "internalType": "string",
              "name": "email",
              "type": "string"
            },
            {
              "internalType": "string",
              "name": "phone",
              "type": "string"
            },
            {
              "internalType": "string",
              "name": "department",
              "type": "string"
            },
            {
              "internalType": "string",
              "name": "qualifications",
              "type": "string"
            },
            {
              "internalType": "address",
              "name": "nurseAddress",
              "type": "address"
            }
          ],
          "internalType": "struct EHRS.Nurse[]",
          "name": "",
          "type": "tuple[]"
        }
      ],
      "stateMutability": "view",
      "type": "function"
    },
    {
      "inputs": [],
      "name": "getAllPatient",
      "outputs": [
        {
          "components": [
            {
              "internalType": "uint256",
              "name": "id",
              "type": "uint256"
            },
            {
              "internalType": "string",
              "name": "name",
              "type": "string"
            },
            {
              "internalType": "uint256",
              "name": "age",
              "type": "uint256"
            },
            {
              "internalType": "string",
              "name": "gender",
              "type": "string"
            },
            {
              "internalType": "string",
              "name": "email",
              "type": "string"
            },
            {
              "internalType": "string",
              "name": "role",
              "type": "string"
            },
            {
              "internalType": "address",
              "name": "patientAddress",
              "type": "address"
            },
            {
              "internalType": "string[]",
              "name": "medicalRecords",
              "type": "string[]"
            }
          ],
          "internalType": "struct EHRS.Patient[]",
          "name": "",
          "type": "tuple[]"
        }
      ],
      "stateMutability": "view",
      "type": "function"
    },
    {
      "inputs": [
        {
          "internalType": "address",
          "name": "_doctorAddress",
          "type": "address"
        }
      ],
      "name": "getDoctorDetails",
      "outputs": [
        {
          "internalType": "uint256",
          "name": "",
          "type": "uint256"
        },
        {
          "internalType": "string",
          "name": "",
          "type": "string"
        },
        {
          "internalType": "string",
          "name": "",
          "type": "string"
        },
        {
          "internalType": "string",
          "name": "",
          "type": "string"
        },
        {
          "internalType": "string",
          "name": "",
          "type": "string"
        },
        {
          "internalType": "string",
          "name": "",
          "type": "string"
        },
        {
          "internalType": "address",
          "name": "",
          "type": "address"
        }
      ],
      "stateMutability": "view",
      "type": "function"
    },
    {
      "inputs": [
        {
          "internalType": "address",
          "name": "_nurseAddress",
          "type": "address"
        }
      ],
      "name": "getNurseDetails",
      "outputs": [
        {
          "internalType": "uint256",
          "name": "",
          "type": "uint256"
        },
        {
          "internalType": "string",
          "name": "",
          "type": "string"
        },
        {
          "internalType": "string",
          "name": "",
          "type": "string"
        },
        {
          "internalType": "string",
          "name": "",
          "type": "string"
        },
        {
          "internalType": "string",
          "name": "",
          "type": "string"
        },
        {
          "internalType": "string",
          "name": "",
          "type": "string"
        },
        {
          "internalType": "string",
          "name": "",
          "type": "string"
        },
        {
          "internalType": "address",
          "name": "",
          "type": "address"
        }
      ],
      "stateMutability": "view",
      "type": "function"
    },
    {
      "inputs": [
        {
          "internalType": "address",
          "name": "_patientAddress",
          "type": "address"
        }
      ],
      "name": "getPatientDetails",
      "outputs": [
        {
          "internalType": "uint256",
          "name": "",
          "type": "uint256"
        },
        {
          "internalType": "string",
          "name": "",
          "type": "string"
        },
        {
          "internalType": "uint256",
          "name": "",
          "type": "uint256"
        },
        {
          "internalType": "string",
          "name": "",
          "type": "string"
        },
        {
          "internalType": "string",
          "name": "",
          "type": "string"
        },
        {
          "internalType": "string",
          "name": "",
          "type": "string"
        },
        {
          "internalType": "string[]",
          "name": "",
          "type": "string[]"
        }
      ],
      "stateMutability": "view",
      "type": "function"
    },
    {
      "inputs": [
        {
          "internalType": "address",
          "name": "_patientAddress",
          "type": "address"
        }
      ],
      "name": "getPrescribedMedications",
      "outputs": [
        {
          "components": [
            {
              "internalType": "uint256",
              "name": "meditionId",
              "type": "uint256"
            },
            {
              "internalType": "string",
              "name": "name",
              "type": "string"
            },
            {
              "internalType": "uint256",
              "name": "quantity",
              "type": "uint256"
            },
            {
              "internalType": "string",
              "name": "condition",
              "type": "string"
            },
            {
              "internalType": "address",
              "name": "provider",
              "type": "address"
            },
            {
              "internalType": "uint256",
              "name": "prescribedDate",
              "type": "uint256"
            },
            {
              "internalType": "string",
              "name": "renewByDate",
              "type": "string"
            }
          ],
          "internalType": "struct EHRS.Medication[]",
          "name": "",
          "type": "tuple[]"
        }
      ],
      "stateMutability": "view",
      "type": "function"
    },
    {
      "inputs": [],
      "name": "meditionId",
      "outputs": [
        {
          "internalType": "uint256",
          "name": "",
          "type": "uint256"
        }
      ],
      "stateMutability": "view",
      "type": "function"
    },
    {
      "inputs": [
        {
          "internalType": "address",
          "name": "",
          "type": "address"
        }
      ],
      "name": "nurse",
      "outputs": [
        {
          "internalType": "uint256",
          "name": "nurseID",
          "type": "uint256"
        },
        {
          "internalType": "string",
          "name": "name",
          "type": "string"
        },
        {
          "internalType": "string",
          "name": "gender",
          "type": "string"
        },
        {
          "internalType": "string",
          "name": "email",
          "type": "string"
        },
        {
          "internalType": "string",
          "name": "phone",
          "type": "string"
        },
        {
          "internalType": "string",
          "name": "department",
          "type": "string"
        },
        {
          "internalType": "string",
          "name": "qualifications",
          "type": "string"
        },
        {
          "internalType": "address",
          "name": "nurseAddress",
          "type": "address"
        }
      ],
      "stateMutability": "view",
      "type": "function"
    },
    {
      "inputs": [],
      "name": "nurseID",
      "outputs": [
        {
          "internalType": "uint256",
          "name": "",
          "type": "uint256"
        }
      ],
      "stateMutability": "view",
      "type": "function"
    },
    {
      "inputs": [],
      "name": "patientCount",
      "outputs": [
        {
          "internalType": "uint256",
          "name": "",
          "type": "uint256"
        }
      ],
      "stateMutability": "view",
      "type": "function"
    },
    {
      "inputs": [
        {
          "internalType": "address",
          "name": "",
          "type": "address"
        },
        {
          "internalType": "uint256",
          "name": "",
          "type": "uint256"
        }
      ],
      "name": "patientMedications",
      "outputs": [
        {
          "internalType": "uint256",
          "name": "meditionId",
          "type": "uint256"
        },
        {
          "internalType": "string",
          "name": "name",
          "type": "string"
        },
        {
          "internalType": "uint256",
          "name": "quantity",
          "type": "uint256"
        },
        {
          "internalType": "string",
          "name": "condition",
          "type": "string"
        },
        {
          "internalType": "address",
          "name": "provider",
          "type": "address"
        },
        {
          "internalType": "uint256",
          "name": "prescribedDate",
          "type": "uint256"
        },
        {
          "internalType": "string",
          "name": "renewByDate",
          "type": "string"
        }
      ],
      "stateMutability": "view",
      "type": "function"
    },
    {
      "inputs": [
        {
          "internalType": "address",
          "name": "",
          "type": "address"
        }
      ],
      "name": "patients",
      "outputs": [
        {
          "internalType": "uint256",
          "name": "id",
          "type": "uint256"
        },
        {
          "internalType": "string",
          "name": "name",
          "type": "string"
        },
        {
          "internalType": "uint256",
          "name": "age",
          "type": "uint256"
        },
        {
          "internalType": "string",
          "name": "gender",
          "type": "string"
        },
        {
          "internalType": "string",
          "name": "email",
          "type": "string"
        },
        {
          "internalType": "string",
          "name": "role",
          "type": "string"
        },
        {
          "internalType": "address",
          "name": "patientAddress",
          "type": "address"
        }
      ],
      "stateMutability": "view",
      "type": "function"
    },
    {
      "inputs": [
        {
          "internalType": "address",
          "name": "_patientAddress",
          "type": "address"
        },
        {
          "internalType": "string",
          "name": "_name",
          "type": "string"
        },
        {
          "internalType": "uint256",
          "name": "_quantity",
          "type": "uint256"
        },
        {
          "internalType": "string",
          "name": "_condition",
          "type": "string"
        },
        {
          "internalType": "string",
          "name": "_renewByDate",
          "type": "string"
        }
      ],
      "name": "prescribeMedication",
      "outputs": [],
      "stateMutability": "nonpayable",
      "type": "function"
    }
  ],
  "bytecode": "0x6080604052606460005560c86001556101906002556101f4600355348015602557600080fd5b5033600860006101000a81548173ffffffffffffffffffffffffffffffffffffffff021916908373ffffffffffffffffffffffffffffffffffffffff160217905550615da8806100766000396000f3fe608060405234801561001057600080fd5b50600436106101585760003560e01c806397f6515b116100c3578063e43642661161007c578063e436426614610412578063efe2ccc114610430578063f60c121814610466578063f851a44014610484578063fb82aa53146104a2578063ff4deeec146104be57610158565b806397f6515b14610316578063a0303c4114610332578063a4fd4be314610350578063a9583c2214610387578063bab90dbd146103be578063d9cae451146103f457610158565b80633b24814b116101155780633b24814b146102215780635419af931461025857806378522bc414610274578063869e0b6f146102925780638c8350fd146102c25780638d44ac38146102e057610158565b806302513ed21461015d5780630869cfbc146101795780631128c9ea146101af5780631a7906fa146101cb5780632e527b51146101e95780633b1693b614610205575b600080fd5b61017760048036038101906101729190614486565b6104dc565b005b610193600480360381019061018e9190614486565b610837565b6040516101a6979695949392919061456b565b60405180910390f35b6101c960048036038101906101c4919061472b565b610ab9565b005b6101d3610daf565b6040516101e09190614a41565b60405180910390f35b61020360048036038101906101fe9190614a63565b611299565b005b61021f600480360381019061021a9190614486565b61155e565b005b61023b60048036038101906102369190614486565b6118a9565b60405161024f989796959493929190614bad565b60405180910390f35b610272600480360381019061026d9190614486565b611c41565b005b61027c611f8c565b6040516102899190614c55565b60405180910390f35b6102ac60048036038101906102a79190614486565b611f92565b6040516102b99190614ddc565b60405180910390f35b6102ca61225a565b6040516102d7919061504e565b60405180910390f35b6102fa60048036038101906102f5919061509c565b612709565b60405161030d97969594939291906150dc565b60405180910390f35b610330600480360381019061032b9190615160565b612920565b005b61033a612ae8565b6040516103479190614c55565b60405180910390f35b61036a60048036038101906103659190614486565b612aee565b60405161037e989796959493929190614bad565b60405180910390f35b6103a1600480360381019061039c9190614486565b612ee3565b6040516103b5989796959493929190614bad565b60405180910390f35b6103d860048036038101906103d39190614486565b61327b565b6040516103eb979695949392919061522f565b60405180910390f35b6103fc6135dd565b6040516104099190614c55565b60405180910390f35b61041a6135e3565b6040516104279190614c55565b60405180910390f35b61044a60048036038101906104459190614486565b6135e9565b60405161045d9796959493929190615347565b60405180910390f35b61046e613973565b60405161047b919061556e565b60405180910390f35b61048c613e5d565b6040516104999190615590565b60405180910390f35b6104bc60048036038101906104b79190615160565b613e83565b005b6104c661425b565b6040516104d39190614c55565b60405180910390f35b6000600560008373ffffffffffffffffffffffffffffffffffffffff1673ffffffffffffffffffffffffffffffffffffffff168152602001908152602001600020600101805461052b906155da565b90501161056d576040517f08c379a000000000000000000000000000000000000000000000000000000000815260040161056490615657565b60405180910390fd5b600560008273ffffffffffffffffffffffffffffffffffffffff1673ffffffffffffffffffffffffffffffffffffffff1681526020019081526020016000206000808201600090556001820160006105c59190614261565b60028201600090556003820160006105dd9190614261565b6004820160006105ed9190614261565b6005820160006105fd9190614261565b6006820160006101000a81549073ffffffffffffffffffffffffffffffffffffffff021916905560078201600061063491906142a1565b505060005b600a805490508110156107e4578173ffffffffffffffffffffffffffffffffffffffff16600a828154811061067157610670615677565b5b9060005260206000200160009054906101000a900473ffffffffffffffffffffffffffffffffffffffff1673ffffffffffffffffffffffffffffffffffffffff16036107d75760008190505b6001600a805490506106cf91906156d5565b81101561078a57600a6001826106e59190615709565b815481106106f6576106f5615677565b5b9060005260206000200160009054906101000a900473ffffffffffffffffffffffffffffffffffffffff16600a828154811061073557610734615677565b5b9060005260206000200160006101000a81548173ffffffffffffffffffffffffffffffffffffffff021916908373ffffffffffffffffffffffffffffffffffffffff16021790555080806001019150506106bd565b50600a80548061079d5761079c61573d565b5b6001900381819060005260206000200160006101000a81549073ffffffffffffffffffffffffffffffffffffffff021916905590556107e4565b8080600101915050610639565b50600360008154809291906107f89061576c565b91905055507fde39be920c3839f8060bf8f49fef3956f673e91b0c3bd11a980fd926b25b8dc68160405161082c9190615590565b60405180910390a150565b6005602052806000526040600020600091509050806000015490806001018054610860906155da565b80601f016020809104026020016040519081016040528092919081815260200182805461088c906155da565b80156108d95780601f106108ae576101008083540402835291602001916108d9565b820191906000526020600020905b8154815290600101906020018083116108bc57829003601f168201915b5050505050908060020154908060030180546108f4906155da565b80601f0160208091040260200160405190810160405280929190818152602001828054610920906155da565b801561096d5780601f106109425761010080835404028352916020019161096d565b820191906000526020600020905b81548152906001019060200180831161095057829003601f168201915b505050505090806004018054610982906155da565b80601f01602080910402602001604051908101604052809291908181526020018280546109ae906155da565b80156109fb5780601f106109d0576101008083540402835291602001916109fb565b820191906000526020600020905b8154815290600101906020018083116109de57829003601f168201915b505050505090806005018054610a10906155da565b80601f0160208091040260200160405190810160405280929190818152602001828054610a3c906155da565b8015610a895780601f10610a5e57610100808354040283529160200191610a89565b820191906000526020600020905b815481529060010190602001808311610a6c57829003601f168201915b5050505050908060060160009054906101000a900473ffffffffffffffffffffffffffffffffffffffff16905087565b6000600660008873ffffffffffffffffffffffffffffffffffffffff1673ffffffffffffffffffffffffffffffffffffffff1681526020019081526020016000206001018054610b08906155da565b905014610b4a576040517f08c379a0000000000000000000000000000000000000000000000000000000008152600401610b41906157e1565b60405180910390fd5b60405180610100016040528060005481526020018681526020018581526020018481526020018381526020018281526020016040518060400160405280600681526020017f646f63746f72000000000000000000000000000000000000000000000000000081525081526020018773ffffffffffffffffffffffffffffffffffffffff16815250600660008873ffffffffffffffffffffffffffffffffffffffff1673ffffffffffffffffffffffffffffffffffffffff168152602001908152602001600020600082015181600001556020820151816001019081610c2f91906159ad565b506040820151816002019081610c4591906159ad565b506060820151816003019081610c5b91906159ad565b506080820151816004019081610c7191906159ad565b5060a0820151816005019081610c8791906159ad565b5060c0820151816006019081610c9d91906159ad565b5060e08201518160070160006101000a81548173ffffffffffffffffffffffffffffffffffffffff021916908373ffffffffffffffffffffffffffffffffffffffff160217905550905050600b869080600181540180825580915050600190039060005260206000200160009091909190916101000a81548173ffffffffffffffffffffffffffffffffffffffff021916908373ffffffffffffffffffffffffffffffffffffffff1602179055507f08ec3fa3a3abd7295674e73b31d9c11ea1a7dbaa0b72db3a179d8f5805a60faa60005486868686868c604051610d88979695949392919061522f565b60405180910390a1600080815480929190610da290615a7f565b9190505550505050505050565b60606000600b8054905067ffffffffffffffff811115610dd257610dd1614600565b5b604051908082528060200260200182016040528015610e0b57816020015b610df86142c2565b815260200190600190039081610df05790505b50905060005b600b80549050811015611291576000600b8281548110610e3457610e33615677565b5b9060005260206000200160009054906101000a900473ffffffffffffffffffffffffffffffffffffffff1690506000600660008373ffffffffffffffffffffffffffffffffffffffff1673ffffffffffffffffffffffffffffffffffffffff168152602001908152602001600020905060405180610100016040528082600001548152602001826001018054610ec9906155da565b80601f0160208091040260200160405190810160405280929190818152602001828054610ef5906155da565b8015610f425780601f10610f1757610100808354040283529160200191610f42565b820191906000526020600020905b815481529060010190602001808311610f2557829003601f168201915b50505050508152602001826002018054610f5b906155da565b80601f0160208091040260200160405190810160405280929190818152602001828054610f87906155da565b8015610fd45780601f10610fa957610100808354040283529160200191610fd4565b820191906000526020600020905b815481529060010190602001808311610fb757829003601f168201915b50505050508152602001826003018054610fed906155da565b80601f0160208091040260200160405190810160405280929190818152602001828054611019906155da565b80156110665780601f1061103b57610100808354040283529160200191611066565b820191906000526020600020905b81548152906001019060200180831161104957829003601f168201915b5050505050815260200182600401805461107f906155da565b80601f01602080910402602001604051908101604052809291908181526020018280546110ab906155da565b80156110f85780601f106110cd576101008083540402835291602001916110f8565b820191906000526020600020905b8154815290600101906020018083116110db57829003601f168201915b50505050508152602001826005018054611111906155da565b80601f016020809104026020016040519081016040528092919081815260200182805461113d906155da565b801561118a5780601f1061115f5761010080835404028352916020019161118a565b820191906000526020600020905b81548152906001019060200180831161116d57829003601f168201915b505050505081526020018260060180546111a3906155da565b80601f01602080910402602001604051908101604052809291908181526020018280546111cf906155da565b801561121c5780601f106111f15761010080835404028352916020019161121c565b820191906000526020600020905b8154815290600101906020018083116111ff57829003601f168201915b505050505081526020018260070160009054906101000a900473ffffffffffffffffffffffffffffffffffffffff1673ffffffffffffffffffffffffffffffffffffffff1681525084848151811061127757611276615677565b5b602002602001018190525050508080600101915050610e11565b508091505090565b6000600460008973ffffffffffffffffffffffffffffffffffffffff1673ffffffffffffffffffffffffffffffffffffffff16815260200190815260200160002060010180546112e8906155da565b90501461132a576040517f08c379a000000000000000000000000000000000000000000000000000000000815260040161132190615b13565b60405180910390fd5b60405180610100016040528060015481526020018781526020018681526020018581526020018481526020018381526020018281526020018873ffffffffffffffffffffffffffffffffffffffff16815250600460008973ffffffffffffffffffffffffffffffffffffffff1673ffffffffffffffffffffffffffffffffffffffff1681526020019081526020016000206000820151816000015560208201518160010190816113da91906159ad565b5060408201518160020190816113f091906159ad565b50606082015181600301908161140691906159ad565b50608082015181600401908161141c91906159ad565b5060a082015181600501908161143291906159ad565b5060c082015181600601908161144891906159ad565b5060e08201518160070160006101000a81548173ffffffffffffffffffffffffffffffffffffffff021916908373ffffffffffffffffffffffffffffffffffffffff160217905550905050600c879080600181540180825580915050600190039060005260206000200160009091909190916101000a81548173ffffffffffffffffffffffffffffffffffffffff021916908373ffffffffffffffffffffffffffffffffffffffff1602179055507f513248af9fdea1035a7597f6be05a4ad9bcc7ecb74154d66935343c000438a6b6001548787878787878e604051611535989796959493929190614bad565b60405180910390a16001600081548092919061155090615a7f565b919050555050505050505050565b6000600660008373ffffffffffffffffffffffffffffffffffffffff1673ffffffffffffffffffffffffffffffffffffffff16815260200190815260200160002060010180546115ad906155da565b9050116115ef576040517f08c379a00000000000000000000000000000000000000000000000000000000081526004016115e690615b7f565b60405180910390fd5b600660008273ffffffffffffffffffffffffffffffffffffffff1673ffffffffffffffffffffffffffffffffffffffff1681526020019081526020016000206000808201600090556001820160006116479190614261565b6002820160006116579190614261565b6003820160006116679190614261565b6004820160006116779190614261565b6005820160006116879190614261565b6006820160006116979190614261565b6007820160006101000a81549073ffffffffffffffffffffffffffffffffffffffff0219169055505060005b600b8054905081101561186e578173ffffffffffffffffffffffffffffffffffffffff16600b82815481106116fb576116fa615677565b5b9060005260206000200160009054906101000a900473ffffffffffffffffffffffffffffffffffffffff1673ffffffffffffffffffffffffffffffffffffffff16036118615760008190505b6001600b8054905061175991906156d5565b81101561181457600b60018261176f9190615709565b815481106117805761177f615677565b5b9060005260206000200160009054906101000a900473ffffffffffffffffffffffffffffffffffffffff16600b82815481106117bf576117be615677565b5b9060005260206000200160006101000a81548173ffffffffffffffffffffffffffffffffffffffff021916908373ffffffffffffffffffffffffffffffffffffffff1602179055508080600101915050611747565b50600b8054806118275761182661573d565b5b6001900381819060005260206000200160006101000a81549073ffffffffffffffffffffffffffffffffffffffff0219169055905561186e565b80806001019150506116c3565b507fd336d2ce591d9d08d509129096a3fa8148c72735c0f1aacd97496684ef1500638160405161189e9190615590565b60405180910390a150565b60046020528060005260406000206000915090508060000154908060010180546118d2906155da565b80601f01602080910402602001604051908101604052809291908181526020018280546118fe906155da565b801561194b5780601f106119205761010080835404028352916020019161194b565b820191906000526020600020905b81548152906001019060200180831161192e57829003601f168201915b505050505090806002018054611960906155da565b80601f016020809104026020016040519081016040528092919081815260200182805461198c906155da565b80156119d95780601f106119ae576101008083540402835291602001916119d9565b820191906000526020600020905b8154815290600101906020018083116119bc57829003601f168201915b5050505050908060030180546119ee906155da565b80601f0160208091040260200160405190810160405280929190818152602001828054611a1a906155da565b8015611a675780601f10611a3c57610100808354040283529160200191611a67565b820191906000526020600020905b815481529060010190602001808311611a4a57829003601f168201915b505050505090806004018054611a7c906155da565b80601f0160208091040260200160405190810160405280929190818152602001828054611aa8906155da565b8015611af55780601f10611aca57610100808354040283529160200191611af5565b820191906000526020600020905b815481529060010190602001808311611ad857829003601f168201915b505050505090806005018054611b0a906155da565b80601f0160208091040260200160405190810160405280929190818152602001828054611b36906155da565b8015611b835780601f10611b5857610100808354040283529160200191611b83565b820191906000526020600020905b815481529060010190602001808311611b6657829003601f168201915b505050505090806006018054611b98906155da565b80601f0160208091040260200160405190810160405280929190818152602001828054611bc4906155da565b8015611c115780601f10611be657610100808354040283529160200191611c11565b820191906000526020600020905b815481529060010190602001808311611bf457829003601f168201915b5050505050908060070160009054906101000a900473ffffffffffffffffffffffffffffffffffffffff16905088565b6000600460008373ffffffffffffffffffffffffffffffffffffffff1673ffffffffffffffffffffffffffffffffffffffff1681526020019081526020016000206001018054611c90906155da565b905011611cd2576040517f08c379a0000000000000000000000000000000000000000000000000000000008152600401611cc990615beb565b60405180910390fd5b600460008273ffffffffffffffffffffffffffffffffffffffff1673ffffffffffffffffffffffffffffffffffffffff168152602001908152602001600020600080820160009055600182016000611d2a9190614261565b600282016000611d3a9190614261565b600382016000611d4a9190614261565b600482016000611d5a9190614261565b600582016000611d6a9190614261565b600682016000611d7a9190614261565b6007820160006101000a81549073ffffffffffffffffffffffffffffffffffffffff0219169055505060005b600c80549050811015611f51578173ffffffffffffffffffffffffffffffffffffffff16600c8281548110611dde57611ddd615677565b5b9060005260206000200160009054906101000a900473ffffffffffffffffffffffffffffffffffffffff1673ffffffffffffffffffffffffffffffffffffffff1603611f445760008190505b6001600c80549050611e3c91906156d5565b811015611ef757600c600182611e529190615709565b81548110611e6357611e62615677565b5b9060005260206000200160009054906101000a900473ffffffffffffffffffffffffffffffffffffffff16600c8281548110611ea257611ea1615677565b5b9060005260206000200160006101000a81548173ffffffffffffffffffffffffffffffffffffffff021916908373ffffffffffffffffffffffffffffffffffffffff1602179055508080600101915050611e2a565b50600c805480611f0a57611f0961573d565b5b6001900381819060005260206000200160006101000a81549073ffffffffffffffffffffffffffffffffffffffff02191690559055611f51565b8080600101915050611da6565b507fa63d853f41bfcbfddabc7a2b8936f22d6f737cb61ef145489580add27330dad681604051611f819190615590565b60405180910390a150565b60095481565b6060600760008373ffffffffffffffffffffffffffffffffffffffff1673ffffffffffffffffffffffffffffffffffffffff168152602001908152602001600020805480602002602001604051908101604052809291908181526020016000905b8282101561224f57838290600052602060002090600702016040518060e001604052908160008201548152602001600182018054612030906155da565b80601f016020809104026020016040519081016040528092919081815260200182805461205c906155da565b80156120a95780601f1061207e576101008083540402835291602001916120a9565b820191906000526020600020905b81548152906001019060200180831161208c57829003601f168201915b50505050508152602001600282015481526020016003820180546120cc906155da565b80601f01602080910402602001604051908101604052809291908181526020018280546120f8906155da565b80156121455780601f1061211a57610100808354040283529160200191612145565b820191906000526020600020905b81548152906001019060200180831161212857829003601f168201915b505050505081526020016004820160009054906101000a900473ffffffffffffffffffffffffffffffffffffffff1673ffffffffffffffffffffffffffffffffffffffff1673ffffffffffffffffffffffffffffffffffffffff168152602001600582015481526020016006820180546121be906155da565b80601f01602080910402602001604051908101604052809291908181526020018280546121ea906155da565b80156122375780601f1061220c57610100808354040283529160200191612237565b820191906000526020600020905b81548152906001019060200180831161221a57829003601f168201915b50505050508152505081526020019060010190611ff3565b505050509050919050565b60606000600a8054905067ffffffffffffffff81111561227d5761227c614600565b5b6040519080825280602002602001820160405280156122b657816020015b6122a361431d565b81526020019060019003908161229b5790505b50905060005b600a80549050811015612701576000600a82815481106122df576122de615677565b5b9060005260206000200160009054906101000a900473ffffffffffffffffffffffffffffffffffffffff1690506000600560008373ffffffffffffffffffffffffffffffffffffffff1673ffffffffffffffffffffffffffffffffffffffff1681526020019081526020016000209050600060405180610100016040528083600001548152602001836001018054612376906155da565b80601f01602080910402602001604051908101604052809291908181526020018280546123a2906155da565b80156123ef5780601f106123c4576101008083540402835291602001916123ef565b820191906000526020600020905b8154815290600101906020018083116123d257829003601f168201915b5050505050815260200183600201548152602001836003018054612412906155da565b80601f016020809104026020016040519081016040528092919081815260200182805461243e906155da565b801561248b5780601f106124605761010080835404028352916020019161248b565b820191906000526020600020905b81548152906001019060200180831161246e57829003601f168201915b505050505081526020018360040180546124a4906155da565b80601f01602080910402602001604051908101604052809291908181526020018280546124d0906155da565b801561251d5780601f106124f25761010080835404028352916020019161251d565b820191906000526020600020905b81548152906001019060200180831161250057829003601f168201915b50505050508152602001836005018054612536906155da565b80601f0160208091040260200160405190810160405280929190818152602001828054612562906155da565b80156125af5780601f10612584576101008083540402835291602001916125af565b820191906000526020600020905b81548152906001019060200180831161259257829003601f168201915b505050505081526020018360060160009054906101000a900473ffffffffffffffffffffffffffffffffffffffff1673ffffffffffffffffffffffffffffffffffffffff16815260200183600701805480602002602001604051908101604052809291908181526020016000905b828210156126c957838290600052602060002001805461263c906155da565b80601f0160208091040260200160405190810160405280929190818152602001828054612668906155da565b80156126b55780601f1061268a576101008083540402835291602001916126b5565b820191906000526020600020905b81548152906001019060200180831161269857829003601f168201915b50505050508152602001906001019061261d565b505050508152509050808585815181106126e6576126e5615677565b5b602002602001018190525050505080806001019150506122bc565b508091505090565b6007602052816000526040600020818154811061272557600080fd5b90600052602060002090600702016000915091505080600001549080600101805461274f906155da565b80601f016020809104026020016040519081016040528092919081815260200182805461277b906155da565b80156127c85780601f1061279d576101008083540402835291602001916127c8565b820191906000526020600020905b8154815290600101906020018083116127ab57829003601f168201915b5050505050908060020154908060030180546127e3906155da565b80601f016020809104026020016040519081016040528092919081815260200182805461280f906155da565b801561285c5780601f106128315761010080835404028352916020019161285c565b820191906000526020600020905b81548152906001019060200180831161283f57829003601f168201915b5050505050908060040160009054906101000a900473ffffffffffffffffffffffffffffffffffffffff169080600501549080600601805461289d906155da565b80601f01602080910402602001604051908101604052809291908181526020018280546128c9906155da565b80156129165780601f106128eb57610100808354040283529160200191612916565b820191906000526020600020905b8154815290600101906020018083116128f957829003601f168201915b5050505050905087565b60006040518060e0016040528060025481526020018681526020018581526020018481526020013373ffffffffffffffffffffffffffffffffffffffff168152602001428152602001838152509050600760008773ffffffffffffffffffffffffffffffffffffffff1673ffffffffffffffffffffffffffffffffffffffff1681526020019081526020016000208190806001815401808255809150506001900390600052602060002090600702016000909190919091506000820151816000015560208201518160010190816129f791906159ad565b50604082015181600201556060820151816003019081612a1791906159ad565b5060808201518160040160006101000a81548173ffffffffffffffffffffffffffffffffffffffff021916908373ffffffffffffffffffffffffffffffffffffffff16021790555060a0820151816005015560c0820151816006019081612a7e91906159ad565b5050507fcbc7ad85bbeeccca4cc8e23eb6efd1d0dde9dfb02b08802040083c72541eaa7c86600254878787334289604051612ac0989796959493929190615c0b565b60405180910390a160026000815480929190612adb90615a7f565b9190505550505050505050565b60035481565b6000606080606080606080600080600460008b73ffffffffffffffffffffffffffffffffffffffff1673ffffffffffffffffffffffffffffffffffffffff168152602001908152602001600020905080600001548160010182600201836003018460040185600501866006018760070160009054906101000a900473ffffffffffffffffffffffffffffffffffffffff16868054612b8b906155da565b80601f0160208091040260200160405190810160405280929190818152602001828054612bb7906155da565b8015612c045780601f10612bd957610100808354040283529160200191612c04565b820191906000526020600020905b815481529060010190602001808311612be757829003601f168201915b50505050509650858054612c17906155da565b80601f0160208091040260200160405190810160405280929190818152602001828054612c43906155da565b8015612c905780601f10612c6557610100808354040283529160200191612c90565b820191906000526020600020905b815481529060010190602001808311612c7357829003601f168201915b50505050509550848054612ca3906155da565b80601f0160208091040260200160405190810160405280929190818152602001828054612ccf906155da565b8015612d1c5780601f10612cf157610100808354040283529160200191612d1c565b820191906000526020600020905b815481529060010190602001808311612cff57829003601f168201915b50505050509450838054612d2f906155da565b80601f0160208091040260200160405190810160405280929190818152602001828054612d5b906155da565b8015612da85780601f10612d7d57610100808354040283529160200191612da8565b820191906000526020600020905b815481529060010190602001808311612d8b57829003601f168201915b50505050509350828054612dbb906155da565b80601f0160208091040260200160405190810160405280929190818152602001828054612de7906155da565b8015612e345780601f10612e0957610100808354040283529160200191612e34565b820191906000526020600020905b815481529060010190602001808311612e1757829003601f168201915b50505050509250818054612e47906155da565b80601f0160208091040260200160405190810160405280929190818152602001828054612e73906155da565b8015612ec05780601f10612e9557610100808354040283529160200191612ec0565b820191906000526020600020905b815481529060010190602001808311612ea357829003601f168201915b505050505091509850985098509850985098509850985050919395975091939597565b6006602052806000526040600020600091509050806000015490806001018054612f0c906155da565b80601f0160208091040260200160405190810160405280929190818152602001828054612f38906155da565b8015612f855780601f10612f5a57610100808354040283529160200191612f85565b820191906000526020600020905b815481529060010190602001808311612f6857829003601f168201915b505050505090806002018054612f9a906155da565b80601f0160208091040260200160405190810160405280929190818152602001828054612fc6906155da565b80156130135780601f10612fe857610100808354040283529160200191613013565b820191906000526020600020905b815481529060010190602001808311612ff657829003601f168201915b505050505090806003018054613028906155da565b80601f0160208091040260200160405190810160405280929190818152602001828054613054906155da565b80156130a15780601f10613076576101008083540402835291602001916130a1565b820191906000526020600020905b81548152906001019060200180831161308457829003601f168201915b5050505050908060040180546130b6906155da565b80601f01602080910402602001604051908101604052809291908181526020018280546130e2906155da565b801561312f5780601f106131045761010080835404028352916020019161312f565b820191906000526020600020905b81548152906001019060200180831161311257829003601f168201915b505050505090806005018054613144906155da565b80601f0160208091040260200160405190810160405280929190818152602001828054613170906155da565b80156131bd5780601f10613192576101008083540402835291602001916131bd565b820191906000526020600020905b8154815290600101906020018083116131a057829003601f168201915b5050505050908060060180546131d2906155da565b80601f01602080910402602001604051908101604052809291908181526020018280546131fe906155da565b801561324b5780601f106132205761010080835404028352916020019161324b565b820191906000526020600020905b81548152906001019060200180831161322e57829003601f168201915b5050505050908060070160009054906101000a900473ffffffffffffffffffffffffffffffffffffffff16905088565b60006060806060806060600080600660008a73ffffffffffffffffffffffffffffffffffffffff1673ffffffffffffffffffffffffffffffffffffffff1681526020019081526020016000209050806000015481600101826003018360040184600501856006018660070160009054906101000a900473ffffffffffffffffffffffffffffffffffffffff16858054613313906155da565b80601f016020809104026020016040519081016040528092919081815260200182805461333f906155da565b801561338c5780601f106133615761010080835404028352916020019161338c565b820191906000526020600020905b81548152906001019060200180831161336f57829003601f168201915b5050505050955084805461339f906155da565b80601f01602080910402602001604051908101604052809291908181526020018280546133cb906155da565b80156134185780601f106133ed57610100808354040283529160200191613418565b820191906000526020600020905b8154815290600101906020018083116133fb57829003601f168201915b5050505050945083805461342b906155da565b80601f0160208091040260200160405190810160405280929190818152602001828054613457906155da565b80156134a45780601f10613479576101008083540402835291602001916134a4565b820191906000526020600020905b81548152906001019060200180831161348757829003601f168201915b505050505093508280546134b7906155da565b80601f01602080910402602001604051908101604052809291908181526020018280546134e3906155da565b80156135305780601f1061350557610100808354040283529160200191613530565b820191906000526020600020905b81548152906001019060200180831161351357829003601f168201915b50505050509250818054613543906155da565b80601f016020809104026020016040519081016040528092919081815260200182805461356f906155da565b80156135bc5780601f10613591576101008083540402835291602001916135bc565b820191906000526020600020905b81548152906001019060200180831161359f57829003601f168201915b50505050509150975097509750975097509750975050919395979092949650565b60015481565b60005481565b6000606060006060806060806000600560008a73ffffffffffffffffffffffffffffffffffffffff1673ffffffffffffffffffffffffffffffffffffffff1681526020019081526020016000209050806000015481600101826002015483600301846004018560050186600701858054613662906155da565b80601f016020809104026020016040519081016040528092919081815260200182805461368e906155da565b80156136db5780601f106136b0576101008083540402835291602001916136db565b820191906000526020600020905b8154815290600101906020018083116136be57829003601f168201915b505050505095508380546136ee906155da565b80601f016020809104026020016040519081016040528092919081815260200182805461371a906155da565b80156137675780601f1061373c57610100808354040283529160200191613767565b820191906000526020600020905b81548152906001019060200180831161374a57829003601f168201915b5050505050935082805461377a906155da565b80601f01602080910402602001604051908101604052809291908181526020018280546137a6906155da565b80156137f35780601f106137c8576101008083540402835291602001916137f3565b820191906000526020600020905b8154815290600101906020018083116137d657829003601f168201915b50505050509250818054613806906155da565b80601f0160208091040260200160405190810160405280929190818152602001828054613832906155da565b801561387f5780601f106138545761010080835404028352916020019161387f565b820191906000526020600020905b81548152906001019060200180831161386257829003601f168201915b5050505050915080805480602002602001604051908101604052809291908181526020016000905b828210156139535783829060005260206000200180546138c6906155da565b80601f01602080910402602001604051908101604052809291908181526020018280546138f2906155da565b801561393f5780601f106139145761010080835404028352916020019161393f565b820191906000526020600020905b81548152906001019060200180831161392257829003601f168201915b5050505050815260200190600101906138a7565b505050509050975097509750975097509750975050919395979092949650565b60606000600c8054905067ffffffffffffffff81111561399657613995614600565b5b6040519080825280602002602001820160405280156139cf57816020015b6139bc614378565b8152602001906001900390816139b45790505b50905060005b600c80549050811015613e55576000600c82815481106139f8576139f7615677565b5b9060005260206000200160009054906101000a900473ffffffffffffffffffffffffffffffffffffffff1690506000600460008373ffffffffffffffffffffffffffffffffffffffff1673ffffffffffffffffffffffffffffffffffffffff168152602001908152602001600020905060405180610100016040528082600001548152602001826001018054613a8d906155da565b80601f0160208091040260200160405190810160405280929190818152602001828054613ab9906155da565b8015613b065780601f10613adb57610100808354040283529160200191613b06565b820191906000526020600020905b815481529060010190602001808311613ae957829003601f168201915b50505050508152602001826002018054613b1f906155da565b80601f0160208091040260200160405190810160405280929190818152602001828054613b4b906155da565b8015613b985780601f10613b6d57610100808354040283529160200191613b98565b820191906000526020600020905b815481529060010190602001808311613b7b57829003601f168201915b50505050508152602001826003018054613bb1906155da565b80601f0160208091040260200160405190810160405280929190818152602001828054613bdd906155da565b8015613c2a5780601f10613bff57610100808354040283529160200191613c2a565b820191906000526020600020905b815481529060010190602001808311613c0d57829003601f168201915b50505050508152602001826004018054613c43906155da565b80601f0160208091040260200160405190810160405280929190818152602001828054613c6f906155da565b8015613cbc5780601f10613c9157610100808354040283529160200191613cbc565b820191906000526020600020905b815481529060010190602001808311613c9f57829003601f168201915b50505050508152602001826005018054613cd5906155da565b80601f0160208091040260200160405190810160405280929190818152602001828054613d01906155da565b8015613d4e5780601f10613d2357610100808354040283529160200191613d4e565b820191906000526020600020905b815481529060010190602001808311613d3157829003601f168201915b50505050508152602001826006018054613d67906155da565b80601f0160208091040260200160405190810160405280929190818152602001828054613d93906155da565b8015613de05780601f10613db557610100808354040283529160200191613de0565b820191906000526020600020905b815481529060010190602001808311613dc357829003601f168201915b505050505081526020018260070160009054906101000a900473ffffffffffffffffffffffffffffffffffffffff1673ffffffffffffffffffffffffffffffffffffffff16815250848481518110613e3b57613e3a615677565b5b6020026020010181905250505080806001019150506139d5565b508091505090565b600860009054906101000a900473ffffffffffffffffffffffffffffffffffffffff1681565b6000600560008773ffffffffffffffffffffffffffffffffffffffff1673ffffffffffffffffffffffffffffffffffffffff1681526020019081526020016000206001018054613ed2906155da565b905014613f14576040517f08c379a0000000000000000000000000000000000000000000000000000000008152600401613f0b90615cea565b60405180910390fd5b600354600560008773ffffffffffffffffffffffffffffffffffffffff1673ffffffffffffffffffffffffffffffffffffffff1681526020019081526020016000206000018190555083600560008773ffffffffffffffffffffffffffffffffffffffff1673ffffffffffffffffffffffffffffffffffffffff1681526020019081526020016000206001019081613fac91906159ad565b5082600560008773ffffffffffffffffffffffffffffffffffffffff1673ffffffffffffffffffffffffffffffffffffffff1681526020019081526020016000206002018190555081600560008773ffffffffffffffffffffffffffffffffffffffff1673ffffffffffffffffffffffffffffffffffffffff168152602001908152602001600020600301908161404391906159ad565b5080600560008773ffffffffffffffffffffffffffffffffffffffff1673ffffffffffffffffffffffffffffffffffffffff168152602001908152602001600020600401908161409391906159ad565b506040518060400160405280600781526020017f50617469656e7400000000000000000000000000000000000000000000000000815250600560008773ffffffffffffffffffffffffffffffffffffffff1673ffffffffffffffffffffffffffffffffffffffff168152602001908152602001600020600501908161411891906159ad565b5084600560008773ffffffffffffffffffffffffffffffffffffffff1673ffffffffffffffffffffffffffffffffffffffff16815260200190815260200160002060060160006101000a81548173ffffffffffffffffffffffffffffffffffffffff021916908373ffffffffffffffffffffffffffffffffffffffff160217905550600a859080600181540180825580915050600190039060005260206000200160009091909190916101000a81548173ffffffffffffffffffffffffffffffffffffffff021916908373ffffffffffffffffffffffffffffffffffffffff1602179055506003600081548092919061421090615a7f565b91905055507f2580101fe9f55b9620159c1979f066dfc6da4e9d6448a616ed293c6758632311858585858560405161424c959493929190615d0a565b60405180910390a15050505050565b60025481565b50805461426d906155da565b6000825580601f1061427f575061429e565b601f01602090049060005260206000209081019061429d91906143d3565b5b50565b50805460008255906000526020600020908101906142bf91906143f0565b50565b60405180610100016040528060008152602001606081526020016060815260200160608152602001606081526020016060815260200160608152602001600073ffffffffffffffffffffffffffffffffffffffff1681525090565b604051806101000160405280600081526020016060815260200160008152602001606081526020016060815260200160608152602001600073ffffffffffffffffffffffffffffffffffffffff168152602001606081525090565b60405180610100016040528060008152602001606081526020016060815260200160608152602001606081526020016060815260200160608152602001600073ffffffffffffffffffffffffffffffffffffffff1681525090565b5b808211156143ec5760008160009055506001016143d4565b5090565b5b8082111561441057600081816144079190614261565b506001016143f1565b5090565b6000604051905090565b600080fd5b600080fd5b600073ffffffffffffffffffffffffffffffffffffffff82169050919050565b600061445382614428565b9050919050565b61446381614448565b811461446e57600080fd5b50565b6000813590506144808161445a565b92915050565b60006020828403121561449c5761449b61441e565b5b60006144aa84828501614471565b91505092915050565b6000819050919050565b6144c6816144b3565b82525050565b600081519050919050565b600082825260208201905092915050565b60005b838110156145065780820151818401526020810190506144eb565b60008484015250505050565b6000601f19601f8301169050919050565b600061452e826144cc565b61453881856144d7565b93506145488185602086016144e8565b61455181614512565b840191505092915050565b61456581614448565b82525050565b600060e082019050614580600083018a6144bd565b81810360208301526145928189614523565b90506145a160408301886144bd565b81810360608301526145b38187614523565b905081810360808301526145c78186614523565b905081810360a08301526145db8185614523565b90506145ea60c083018461455c565b98975050505050505050565b600080fd5b600080fd5b7f4e487b7100000000000000000000000000000000000000000000000000000000600052604160045260246000fd5b61463882614512565b810181811067ffffffffffffffff8211171561465757614656614600565b5b80604052505050565b600061466a614414565b9050614676828261462f565b919050565b600067ffffffffffffffff82111561469657614695614600565b5b61469f82614512565b9050602081019050919050565b82818337600083830152505050565b60006146ce6146c98461467b565b614660565b9050828152602081018484840111156146ea576146e96145fb565b5b6146f58482856146ac565b509392505050565b600082601f830112614712576147116145f6565b5b81356147228482602086016146bb565b91505092915050565b60008060008060008060c087890312156147485761474761441e565b5b600061475689828a01614471565b965050602087013567ffffffffffffffff81111561477757614776614423565b5b61478389828a016146fd565b955050604087013567ffffffffffffffff8111156147a4576147a3614423565b5b6147b089828a016146fd565b945050606087013567ffffffffffffffff8111156147d1576147d0614423565b5b6147dd89828a016146fd565b935050608087013567ffffffffffffffff8111156147fe576147fd614423565b5b61480a89828a016146fd565b92505060a087013567ffffffffffffffff81111561482b5761482a614423565b5b61483789828a016146fd565b9150509295509295509295565b600081519050919050565b600082825260208201905092915050565b6000819050602082019050919050565b614879816144b3565b82525050565b600082825260208201905092915050565b600061489b826144cc565b6148a5818561487f565b93506148b58185602086016144e8565b6148be81614512565b840191505092915050565b6148d281614448565b82525050565b6000610100830160008301516148f16000860182614870565b50602083015184820360208601526149098282614890565b915050604083015184820360408601526149238282614890565b9150506060830151848203606086015261493d8282614890565b915050608083015184820360808601526149578282614890565b91505060a083015184820360a08601526149718282614890565b91505060c083015184820360c086015261498b8282614890565b91505060e08301516149a060e08601826148c9565b508091505092915050565b60006149b783836148d8565b905092915050565b6000602082019050919050565b60006149d782614844565b6149e1818561484f565b9350836020820285016149f385614860565b8060005b85811015614a2f5784840389528151614a1085826149ab565b9450614a1b836149bf565b925060208a019950506001810190506149f7565b50829750879550505050505092915050565b60006020820190508181036000830152614a5b81846149cc565b905092915050565b600080600080600080600060e0888a031215614a8257614a8161441e565b5b6000614a908a828b01614471565b975050602088013567ffffffffffffffff811115614ab157614ab0614423565b5b614abd8a828b016146fd565b965050604088013567ffffffffffffffff811115614ade57614add614423565b5b614aea8a828b016146fd565b955050606088013567ffffffffffffffff811115614b0b57614b0a614423565b5b614b178a828b016146fd565b945050608088013567ffffffffffffffff811115614b3857614b37614423565b5b614b448a828b016146fd565b93505060a088013567ffffffffffffffff811115614b6557614b64614423565b5b614b718a828b016146fd565b92505060c088013567ffffffffffffffff811115614b9257614b91614423565b5b614b9e8a828b016146fd565b91505092959891949750929550565b600061010082019050614bc3600083018b6144bd565b8181036020830152614bd5818a614523565b90508181036040830152614be98189614523565b90508181036060830152614bfd8188614523565b90508181036080830152614c118187614523565b905081810360a0830152614c258186614523565b905081810360c0830152614c398185614523565b9050614c4860e083018461455c565b9998505050505050505050565b6000602082019050614c6a60008301846144bd565b92915050565b600081519050919050565b600082825260208201905092915050565b6000819050602082019050919050565b600060e083016000830151614cb46000860182614870565b5060208301518482036020860152614ccc8282614890565b9150506040830151614ce16040860182614870565b5060608301518482036060860152614cf98282614890565b9150506080830151614d0e60808601826148c9565b5060a0830151614d2160a0860182614870565b5060c083015184820360c0860152614d398282614890565b9150508091505092915050565b6000614d528383614c9c565b905092915050565b6000602082019050919050565b6000614d7282614c70565b614d7c8185614c7b565b935083602082028501614d8e85614c8c565b8060005b85811015614dca5784840389528151614dab8582614d46565b9450614db683614d5a565b925060208a01995050600181019050614d92565b50829750879550505050505092915050565b60006020820190508181036000830152614df68184614d67565b905092915050565b600081519050919050565b600082825260208201905092915050565b6000819050602082019050919050565b600081519050919050565b600082825260208201905092915050565b6000819050602082019050919050565b6000614e628383614890565b905092915050565b6000602082019050919050565b6000614e8282614e2a565b614e8c8185614e35565b935083602082028501614e9e85614e46565b8060005b85811015614eda5784840389528151614ebb8582614e56565b9450614ec683614e6a565b925060208a01995050600181019050614ea2565b50829750879550505050505092915050565b600061010083016000830151614f056000860182614870565b5060208301518482036020860152614f1d8282614890565b9150506040830151614f326040860182614870565b5060608301518482036060860152614f4a8282614890565b91505060808301518482036080860152614f648282614890565b91505060a083015184820360a0860152614f7e8282614890565b91505060c0830151614f9360c08601826148c9565b5060e083015184820360e0860152614fab8282614e77565b9150508091505092915050565b6000614fc48383614eec565b905092915050565b6000602082019050919050565b6000614fe482614dfe565b614fee8185614e09565b93508360208202850161500085614e1a565b8060005b8581101561503c578484038952815161501d8582614fb8565b945061502883614fcc565b925060208a01995050600181019050615004565b50829750879550505050505092915050565b600060208201905081810360008301526150688184614fd9565b905092915050565b615079816144b3565b811461508457600080fd5b50565b60008135905061509681615070565b92915050565b600080604083850312156150b3576150b261441e565b5b60006150c185828601614471565b92505060206150d285828601615087565b9150509250929050565b600060e0820190506150f1600083018a6144bd565b81810360208301526151038189614523565b905061511260408301886144bd565b81810360608301526151248187614523565b9050615133608083018661455c565b61514060a08301856144bd565b81810360c08301526151528184614523565b905098975050505050505050565b600080600080600060a0868803121561517c5761517b61441e565b5b600061518a88828901614471565b955050602086013567ffffffffffffffff8111156151ab576151aa614423565b5b6151b7888289016146fd565b94505060406151c888828901615087565b935050606086013567ffffffffffffffff8111156151e9576151e8614423565b5b6151f5888289016146fd565b925050608086013567ffffffffffffffff81111561521657615215614423565b5b615222888289016146fd565b9150509295509295909350565b600060e082019050615244600083018a6144bd565b81810360208301526152568189614523565b9050818103604083015261526a8188614523565b9050818103606083015261527e8187614523565b905081810360808301526152928186614523565b905081810360a08301526152a68185614523565b90506152b560c083018461455c565b98975050505050505050565b600082825260208201905092915050565b60006152dd82614e2a565b6152e781856152c1565b9350836020820285016152f985614e46565b8060005b8581101561533557848403895281516153168582614e56565b945061532183614e6a565b925060208a019950506001810190506152fd565b50829750879550505050505092915050565b600060e08201905061535c600083018a6144bd565b818103602083015261536e8189614523565b905061537d60408301886144bd565b818103606083015261538f8187614523565b905081810360808301526153a38186614523565b905081810360a08301526153b78185614523565b905081810360c08301526153cb81846152d2565b905098975050505050505050565b600081519050919050565b600082825260208201905092915050565b6000819050602082019050919050565b60006101008301600083015161541e6000860182614870565b50602083015184820360208601526154368282614890565b915050604083015184820360408601526154508282614890565b9150506060830151848203606086015261546a8282614890565b915050608083015184820360808601526154848282614890565b91505060a083015184820360a086015261549e8282614890565b91505060c083015184820360c08601526154b88282614890565b91505060e08301516154cd60e08601826148c9565b508091505092915050565b60006154e48383615405565b905092915050565b6000602082019050919050565b6000615504826153d9565b61550e81856153e4565b935083602082028501615520856153f5565b8060005b8581101561555c578484038952815161553d85826154d8565b9450615548836154ec565b925060208a01995050600181019050615524565b50829750879550505050505092915050565b6000602082019050818103600083015261558881846154f9565b905092915050565b60006020820190506155a5600083018461455c565b92915050565b7f4e487b7100000000000000000000000000000000000000000000000000000000600052602260045260246000fd5b600060028204905060018216806155f257607f821691505b602082108103615605576156046155ab565b5b50919050565b7f50617469656e7420646f6573206e6f7420657869737400000000000000000000600082015250565b60006156416016836144d7565b915061564c8261560b565b602082019050919050565b6000602082019050818103600083015261567081615634565b9050919050565b7f4e487b7100000000000000000000000000000000000000000000000000000000600052603260045260246000fd5b7f4e487b7100000000000000000000000000000000000000000000000000000000600052601160045260246000fd5b60006156e0826144b3565b91506156eb836144b3565b9250828203905081811115615703576157026156a6565b5b92915050565b6000615714826144b3565b915061571f836144b3565b9250828201905080821115615737576157366156a6565b5b92915050565b7f4e487b7100000000000000000000000000000000000000000000000000000000600052603160045260246000fd5b6000615777826144b3565b91506000820361578a576157896156a6565b5b600182039050919050565b7f446f63746f7220616c7265616479206578697374730000000000000000000000600082015250565b60006157cb6015836144d7565b91506157d682615795565b602082019050919050565b600060208201905081810360008301526157fa816157be565b9050919050565b60008190508160005260206000209050919050565b60006020601f8301049050919050565b600082821b905092915050565b6000600883026158637fffffffffffffffffffffffffffffffffffffffffffffffffffffffffffffffff82615826565b61586d8683615826565b95508019841693508086168417925050509392505050565b6000819050919050565b60006158aa6158a56158a0846144b3565b615885565b6144b3565b9050919050565b6000819050919050565b6158c48361588f565b6158d86158d0826158b1565b848454615833565b825550505050565b600090565b6158ed6158e0565b6158f88184846158bb565b505050565b5b8181101561591c576159116000826158e5565b6001810190506158fe565b5050565b601f8211156159615761593281615801565b61593b84615816565b8101602085101561594a578190505b61595e61595685615816565b8301826158fd565b50505b505050565b600082821c905092915050565b600061598460001984600802615966565b1980831691505092915050565b600061599d8383615973565b9150826002028217905092915050565b6159b6826144cc565b67ffffffffffffffff8111156159cf576159ce614600565b5b6159d982546155da565b6159e4828285615920565b600060209050601f831160018114615a175760008415615a05578287015190505b615a0f8582615991565b865550615a77565b601f198416615a2586615801565b60005b82811015615a4d57848901518255600182019150602085019450602081019050615a28565b86831015615a6a5784890151615a66601f891682615973565b8355505b6001600288020188555050505b505050505050565b6000615a8a826144b3565b91507fffffffffffffffffffffffffffffffffffffffffffffffffffffffffffffffff8203615abc57615abb6156a6565b5b600182019050919050565b7f4e7572736520616c726561647920657869737473000000000000000000000000600082015250565b6000615afd6014836144d7565b9150615b0882615ac7565b602082019050919050565b60006020820190508181036000830152615b2c81615af0565b9050919050565b7f446f63746f7220646f6573206e6f742065786973740000000000000000000000600082015250565b6000615b696015836144d7565b9150615b7482615b33565b602082019050919050565b60006020820190508181036000830152615b9881615b5c565b9050919050565b7f4e7572736520646f6573206e6f74206578697374000000000000000000000000600082015250565b6000615bd56014836144d7565b9150615be082615b9f565b602082019050919050565b60006020820190508181036000830152615c0481615bc8565b9050919050565b600061010082019050615c21600083018b61455c565b615c2e602083018a6144bd565b8181036040830152615c408189614523565b9050615c4f60608301886144bd565b8181036080830152615c618187614523565b9050615c7060a083018661455c565b615c7d60c08301856144bd565b81810360e0830152615c8f8184614523565b90509998505050505050505050565b7f50617469656e7420616c72656164792065786973747300000000000000000000600082015250565b6000615cd46016836144d7565b9150615cdf82615c9e565b602082019050919050565b60006020820190508181036000830152615d0381615cc7565b9050919050565b600060a082019050615d1f600083018861455c565b8181036020830152615d318187614523565b9050615d4060408301866144bd565b8181036060830152615d528185614523565b90508181036080830152615d668184614523565b9050969550505050505056fea26469706673582212208f32ca466e2d673494805128b140ca5ecaa2e3d1ea7ddbc6cbba39628c77da3b64736f6c634300081b0033",
  "linkReferences": {},
  "deployedLinkReferences": {}
}